:040000000CEF00F011
:10000800D9CF3BF0DACF3CF0F3CF3DF0FEEDF4F082
:10001800A2EFF5F04FD078C0D9FF79C0DAFFDECF74
:1000280060F0DDCF61F063EC0BF020EE04F0785166
:10003800D9267951DA22DF50F2EC0EF0000909E0F6
:10004800000E0001626FF30E616F4C0E606FCAEC18
:100058000FF078C0D9FF79C0DAFF0001DECF60F079
:10006800DDCF61F019EC0DF02FD078C0D9FF79C041
:10007800DAFFDECF60F0DDCF61F063EC0BF09BECD4
:100088000FF000017C6F78C0D9FF79C0DAFFDECFAE
:1000980060F0DDCF61F019EC0DF0000E0001626F29
:1000A800F00E616F3B0E606FCAEC0FF07C51C8EC2C
:1000B8000FF00AD076C07AF077C07BF07B5104E16C
:1000C8007A51A9E0010AD1E0120046D078C0D9FFE0
:1000D80079C0DAFF0201DECFD6F2DDCFD7F24CD0FD
:1000E80078C0D9FF79C0DAFF0201DECFD4F2DDCFC4
:1000F800D5F242D078C0D9FF79C0DAFF0201DECF4D
:10010800D0F2DDCFD1F238D078C0D9FF79C0DAFF8C
:100118000201DECFD2F2DDCFD3F22ED0D6C2A2F1C9
:10012800D7C2A3F1D4C2A0F1D5C2A1F1D0C29CF12B
:10013800D1C29DF1D2C29EF1D3C29FF101012D6BB4
:10014800010E2C6F0201D66BD76BD46BD56BD06BBD
:10015800D16BD26BD36B10D076C07AF077C07BF0BE
:100168007B510AE17A51B2E0010ABAE0030AC2E01F
:10017800010ACAE0070AD2E0120042D043EC0BF0B1
:1001880051D078C0D9FF79C0DAFFDECF7AF0DDCF61
:100198007BF019ECD5F046D0C2EC0BF069ECC5F059
:1001A800EEC060F0EFC061F0C7EC0FF00001ECC0EA
:1001B80060F0EDC061F0626B636BC9EC0FF0E4C0F6
:1001C80060F0E5C061F0E6C062F0E7C063F0C9EC3A
:1001D8000FF028D0C2EC0BF0EEC060F0EFC061F079
:1001E800C7EC0FF0ECD778C0D9FF79C0DAFFDECFC3
:1001F800DCF0DECFDDF0DECFDEF0DECFDFF012D0D8
:1002080076C07AF077C07BF07B510CE17A51B9E087
:10021800010AB4E0030AC0E0010A04E0070ADAE0D0
:10022800010AE1E0120020EE64F06051D926615124
:10023800DA22DECF63F0DDCF64F06451800AF36E1A
:10024800800EF35C5F0ED8B4635D2DE220EE62F0A1
:100258006051D9266151DA22DECF63F0DDCF64F038
:1002680063516025D96E64516121DA6E62C0DFFF87
:1002780020EE62F019D820EE64F016D820EE62F075
:100288006051D9266151DA225F0EDE16000EDD16A6
:1002980013D8010ADD1002E19D8805D00DD8020AA5
:1002A800DD10D8B4A38812006051D9266151DA2232
:1002B800DE2A000EDD22000C20EE66F06051D92601
:1002C8006151DA22DE50120069C06DF06AC06EF02A
:1002D8006DC060F06EC061F06BC062F06CC063F01E
:1002E80084EC09F060C06DF061C06EF0674B682B5C
:1002F8006E516D11EDE167C0D9FF68C0DAFF000EDD
:10030800DF6A6707D8A0680769C060F06AC061F053
:100318006BC062F06CC063F0A3EC0BF060516F6FC0
:1003280069C060F06AC061F06BC062F06CC063F0D5
:1003380084EC09F060C069F061C06AF0090E6F656D
:1003480002D0070E6F27300E6F2767C0D9FF68C02D
:10035800DAFF6FC0DFFF6707D8A068076A51691125
:10036800D3E1674B682B12000001635160116111E2
:10037800621105E1606B616B626B636B42D06C6B01
:100388006D6B6CC064F06DC065F0D89064376537EC
:10039800330E6425F66EC30E6521B8ECAAF0090089
:1003A800F5CF66F00900F5CF67F06651686F6751C1
:1003B800696F6A6B6B6B6851605D695161596A510D
:1003C80062596B5163590EE3020E6C25646F000E7F
:1003D8006D21656F64C060F065C061F0000E61BF9B
:1003E800FF0E0DD06C4B6D2B6D51800A800F0E0ED9
:1003F800D8B46C5DC6E3060E606F000E616F626F65
:10040800636F1200776B7551800AF36E800EF35C90
:10041800000ED8B4745D06E2746D751FD8B0752BE4
:10042800010E776F7351800AF36E800EF35C000E35
:10043800D8B4725D06E2726D731FD8B0732B010ECB
:10044800771B786B796B755174111BE0010E766F11
:1004580004D0D89074377537762B75AFFAD7D89003
:10046800783779377451725D7551735905E3745152
:10047800725F7551735B7881D89075337433762FBA
:10048800EED7775104E0786D791FD8B0792B78C012
:1004980072F079C073F01200626F856A976A92945D
:1004A80092929296899489928996BBEC0FF0300EBD
:1004B8007FEC0EF0050E01EC0FF0300E7FEC0EF025
:1004C800010E01EC0FF0320E7FEC0EF090EC0EF006
:1004D8000009FCE190EC0EF00009FCE1000162511A
:1004E8007FEC0EF090EC0EF00009FCE1080E7FECBA
:1004F8000EF090EC0EF00009FCE10F0E7FEC0EF010
:1005080090EC0EF00009FCE1010E7FEC0EF090EC8F
:100518000EF00009FCE1130E7FEC0EF090EC0EF0EB
:100528000009FCE1800E5CEF0EF06B6F6E6B6BC028
:1005380060F0616B010E636FF40E626F37EC0EF0C2
:100548006E510A0DB40E696FC30E6A6FF3506927B6
:10055800F4506A23605169256C6F61516A216D6F8F
:10056800090E6C25696F000E6D216A6F69C0F6FF70
:100578006AC0F7FF000EF86E0800F550671910E121
:100588006CC0F6FF6DC0F7FF000EF86E0800F5505E
:10059800661906E16851D96EDA6A6EC0DFFF05D0C8
:1005A8006E2B6E51800A4E0FC2E36E51800A4E0FB9
:1005B800010ED8B0000E1200150E0001776F3BD067
:1005C800656B350E646F000E676B666B696B686BE5
:1005D80043ECF2F0050E5FEC0FF0000E616B606B00
:1005E80063EC0BF09BEC0FF00001776F000E616B72
:1005F800606B19EC0DF0050E5FEC0FF0000E616BEF
:10060800606B63EC0BF09BEC0FF00001766F000E53
:10061800616B606B19EC0DF000017751150A03E06E
:100628007651150A08E1000E626FFF0E616FCA0E5F
:10063800606FCAEC0FF07751150AC2E07651150ABF
:10064800D8A41200BDD70101B66709D0030E000176
:10065800796F540E786F0101F5518EECFFF0806AC6
:10066800C69A4F0EAB16AC9ACF0E9D164F0E6B1650
:100678006C9ACF0EA316C0EC0FF0C2EC0FF0BEECD4
:100688000FF0A6EC0FF0B5EC0FF0ACEC0FF0B2ECFD
:100698000FF0A9EC0FF0C26AACEC0FF0AFEC0FF062
:1006A800806A816A826A836A846A856A866A926ACB
:1006B800010E936E946A956A966A976A986AD190C1
:1006C800F29EF29CF292F288030000F0F292F29805
:1006D800120078C0D9FF79C0DAFFDECF7BF0DECF19
:1006E8007CF0DECF7DF0DECF7EF07F6B806B7FC04D
:1006F8007AF00F0E7A1707E17BC060F07CC061F0DA
:10070800C7EC0FF00ED07FC07AF0030E7A1709E11C
:10071800070E0001616F680E606F200E626F17ECA4
:1007280001F000017B51D96EDA6ADF50C8EC0FF096
:1007380000017B2B000E7C237D237E237F4B802BA7
:100748008051800A800F800ED8B47F5DD0E3000E00
:10075800626FF00E616F3B0E606FCAEF0FF07D5154
:100768007C113EE07DC061F07CC060F07EC062F02C
:10077800636B93EC0DF060C084F061C085F0855127
:10078800841126E084C0D9FF85C0DAFF000EDF6E31
:10079800844B852B7F5124E07DC065F07CC064F0DC
:1007A80018ECFBF064C080F065C081F066C082F090
:1007B80067C083F07F51D96EDA6A80C0DEFF81C0DE
:1007C800DEFF82C0DEFF83C0DDFFD906D90608D070
:1007D8007CC0D9FF7DC0DAFFDF5002E07F51DCE149
:1007E80085C07DF084C07CF0120000016B6BABA269
:1007F8000AD0AB98AB88000E626FF20E616F050EDF
:10080800606FCAEC0FF09EAA32D07DEC0FF06B6FD0
:100818000F0E636F646B656B666B02012E510101ED
:10082800225D0001676F02012F5101012359000168
:10083800686F02013051010124590001696F0201FA
:1008480031510101255900016A6F6351675D645197
:1008580068596551695966516A59D8A06B6B22C1AC
:100868002EF223C12FF224C130F225C131F26B518F
:100878001200776B7351800AF36E800EF35C000EE2
:10088800D8B4725D06E2726D731FD8B0732B010E77
:10089800776F7551800AF36E800EF35C000ED8B442
:1008A800745D04E2746D751FD8B0752B75517411A1
:1008B80017E0010E766F04D0D89074377537762B11
:1008C80075AFFAD77451725D7551735904E3745159
:1008D800725F7551735BD89075337433762FF2D786
:1008E800775104E0726D731FD8B0732B72C072F029
:1008F80073C073F012006A6F6D6B6AC060F0616B51
:10090800010E636FF40E626F37EC0EF06D510A0D35
:10091800B40E686FC30E696FF3506827F4506923EB
:10092800605168256B6F615169216C6F090E6B25E9
:10093800686F000E6C21696F68C0F6FF69C0F7FF29
:10094800000EF86E0800F55067190AE16BC0F6FF53
:100958006CC0F7FF000EF86E0800F550661905E048
:100968006D2B6D51800A4E0FC8E36D51800A4E0FF2
:10097800010ED8B0000E120001016C51340AD8B42F
:1009880021AC05D0000E0001656F020E30D0725107
:1009980013E129D0646B656B1ED0656B030E646F21
:1009A8001A8A19D0656B040E646F1A8C14D0656BA3
:1009B800050E646F1A8AF9D772510C0B0001626F29
:1009C800636B635108E16251E5E0040AE6E00C0A52
:1009D800E9E0040AECE0655164110AE0F26708D026
:1009E800010EF26F05D0000E0001656F010E646FF5
:1009F80064C060F065C061F0120001018E6706D026
:100A08000001616B010E606F35EC0FF03EC260F0C3
:100A18003FC261F040C262F041C263F06D0E000156
:100A2800646F4E0E656FC60E666F410E676FA5EC5C
:100A380008F060C06EF061C06FF062C070F063C013
:100A480071F0390E6E2502013E6F300E00016F21E4
:100A580002013F6F000E000170210201406F000E7D
:100A6800000171210201416F405100016C6F7F0E3E
:100A78000201411500016D6F12002FD0F29EEEC0E9
:100A880036F20201EFC037F2386B396BEEC03AF23A
:100A9800EFC03BF23C6B3D6BF28E2BD046C260F050
:100AA80047C261F0C7EC0FF03AC260F03BC261F098
:100AB8003CC262F03DC263F0C9EC0FF036C260F090
:100AC80037C261F038C262F039C263F0C9EC0FF086
:100AD80010D0010E0101666F0CD076C07AF077C095
:100AE8007BF07B5106E17A51C9E0010AD7E0030A9D
:100AF800F0E01200DAF400EBF40074F40085F4007E
:100B0800FCF40000000000000000000000000000ED
:100B180000000000000000000000000000000000CD
:100B280000000000DCFEE3FEEAFEF1FEF8FEFFFE38
:100B38007DFF1BFF89FF83FFC7FE22FF30FF54FCA8
:100B480038FC1CFC00FC0EFC2AFC46FC06FF1BFFC4
:100B580014FF0DFF881F005ACD0140DE0148BD017A
:100B68001483018441018C0F00DCA401686B696B5C
:100B78006A6B6B6B675164116511661129E0010E90
:100B88006C6F06D0D89064376537663767376C2B3B
:100B980067AFF8D7D890683769376A376B376451C9
:100BA800605D65516159665162596751635909E33E
:100BB8006451605F6551615B6651625B6751635B5D
:100BC8006881D89067336633653364336C2FE2D716
:100BD80068C060F069C061F06AC062F06BC063F021
:100BE80012001D901EB620D0010146510001686F09
:100BF80025D868C001F069C002F06AC003F06BC074
:100C080004F0010146510001686F18D868C005F06A
:100C180069C006F06AC007F06BC008F007C060F052
:100C280008C061F01CEC0CF06751661104E01EA6C8
:100C38001E841E9202D01E821E941200010147518A
:100C48000001696F6A6B6B6B69C06BF068C06AF012
:100C5800696B686B120000017FC091F080C092F050
:100C6800000E92BFFF0E936F946F81C085F082C013
:100C780086F0000E86BFFF0E876F886F8551896FDB
:100C880086518A6F8B6B8C6B83518D6F84518E6FFD
:100C98008F6B906B8EC090F08DC08FF08E6B8D6BCC
:100CA80089518D11956F8A518E11966F8B518F11C5
:100CB800976F8C519011986F776B4B0E766F796B9D
:100CC800910E786F56EFF4F000017FC091F080C06C
:100CD80092F0000E92BFFF0E936F946F81C085F063
:100CE80082C086F0000E86BFFF0E876F886F855121
:100CF800896F86518A6F8B6B8C6B83518D6F845192
:100D08008E6F8F6B906B8EC090F08DC08FF08E6B56
:100D18008D6B89518D11956F8A518E11966F8B51FC
:100D28008F11976F8C519011986F776B6B0E766F50
:100D3800796B910E786F56EFF4F01E921D901EB6E7
:100D480021D0010146510001666F1DD866C001F02F
:100D580067C002F068C003F069C004F01E84010196
:100D680046510001666F0FD866C005F067C006F0EF
:100D780068C007F069C008F007C060F008C061F0FB
:100D88001CEC0CF01200010147510001676F686B01
:100D9800696B67C069F066C068F0676B666B1200C4
:100DA800656F6C6A6B6A65B16C8865A302D06C8CE0
:100DB8006B8C65B56C8E65A702D06B8801D06B8A89
:100DC80065A902D06C8401D06C9465BB6B8665AD57
:100DD80002D0A38A01D0A39A65AF02D0A38801D01C
:100DE800A39860C06FFF61C062F062C063F0646B7B
:100DF80063517D6E6C8A6B8E989298846CB86CBEC9
:100E080001D0988212001BD090EC0EF00009FCE192
:100E1800000161C0F6FF62C0F7FF000EF86E0F0E0A
:100E2800F76403D00800F55005D0F6CFE9FFF7CFF7
:100E3800EAFFEF50C3EC0EF00001614B622B61C07A
:100E4800F6FF62C0F7FF000EF86E0F0EF76403D0CE
:100E58000800F55005D0F6CFE9FFF7CFEAFFEF50CD
:100E68000009D8B41200D0D767C06DF066C06CF026
:100E780016D06A07D8A06B0768C0F6FF69C0F7FFED
:100E8800684B692B000EF86E6CC0D9FF6DC0DAFF95
:100E98006C4B6D2B0800F5CFDFFFDF500BE06B517B
:100EA8006A1108E0E6D76CC0D9FF6DC0DAFFDF6AC7
:100EB8006C4B6D2B6A07D8A06B0700016A29D8B460
:100EC8006B29D8B41200EFD7656FAC6AAB6A65B10D
:100ED800AC8865A302D0AC8CAB8C65B5AC8E65A72D
:100EE80002D0AB8801D0AB8A65B9AC8465BBAB8650
:100EF80065AD02D09D8A01D09D9A65AF02D09D88CC
:100F080001D09D9860C0AFFF61C062F062C063F01D
:100F1800646B63517F6EAC8AAB8E949C948EACB834
:100F2800ACBE01D0948C1200E8F70AF80DF50CF667
:100F3800F0FD26FECCFDD5FD76FADEFD3FF671F715
:100F4800B7F583F6A6F572F640F561F6FBF52DF7D1
:100F580062F5B6F650F660F7D9F50BF784F5D8F6D2
:100F68001DF63EF72EF64FF795F5E9F6EAF51CF76C
:100F780073F5C7F6C8F5FAF62FF5A5F61EF594F63B
:100F880051F551F500017F6F7FAF29D07CEC0DF052
:100F9800020E0101856F7FC078F115C079F1835188
:100FA800020A03E08351050A07E1000E0001676B9E
:100FB800666BC0ECFEF013D08351040A03E0835142
:100FC800030A07E1000E0001676B666B59ECFEF03F
:100FD80006D0000E0001676B666B27ECFFF012006D
:100FE800F2512BE1000E626FFC0E616FF70E606F1D
:100FF800CAEC0FF0045001100210031016E063C091
:1010080067F064C068F065C069F066C06AF068C0DF
:101018006AF067C069F0686B676B67C001F068C009
:1010280002F069C003F06AC004F063C016F164C03E
:1010380017F165C018F166C019F1120061C065F0BA
:1010480060C064F002D0644B652B64C0D9FF65C0F2
:10105800DAFFDF5006E0F7D70001644B652B624BDF
:10106800632B62C0F6FF63C0F7FF000EF86E64C022
:10107800D9FF65C0DAFF0F0EF76403D00800F550FA
:1010880005D0F6CFE9FFF7CFEAFFEF50DF6EDF506C
:10109800D8B41200E1D7000E81B0010E0101B86F7B
:1010A800B75121EEB8F0DF6208D01D0EB6651BD02F
:1010B800BAC1B9F1B8C1BAF116D0000E02016E5D1D
:1010C800800E6F5902E26E4B6F2B010187670AD0C1
:1010D800B80508E1050EB66505D07A5103E0010EA2
:1010E800646F806FB66BB8C1B7F1120000017A5116
:1010F8000201565D00017B51020157591FE30101AE
:10110800602B605100017C6F7D6B0201585100011A
:101118007C5D0201595100017D5912E3000E776B85
:10112800766B796B786BADEC0CF058C260F1198076
:101138000001F26705D0010EF26F02D00101606B69
:101148001200686B696B6A6B6B6B60A108D06451A5
:1011580068276551692366516A2367516B23D890C4
:101168006437653766376737D890633362336133DE
:1011780060336351601161116211E7E168C060F08A
:1011880069C061F06AC062F06BC063F0120073C09E
:1011980066F072C065F0340E676F97ECFAF0776FFF
:1011A800320E775D15E273C066F072C065F074C0E8
:1011B80060F075C061F077C062F0636BA3EC0BF070
:1011C8006051676F97ECFAF0766F76C077F002D0CF
:1011D800320E776F7751120067C06CF066C06BF003
:1011E80007D000016B4B6C2B682B000E69236A2318
:1011F80068C0F6FF69C0F7FF6AC0F8FFF8BA03D005
:101208000800F55005D0F6CFE9FFF7CFEAFFEF5019
:101218006BC0D9FF6CC0DAFFDF6EDF50D8B41200A4
:10122800E0D7616B020E606F63EC0BF0400EF2ECDE
:101238000EF000016651F2EC0EF00001616B020E37
:10124800606F19EC0DF00001616B020E606F63ECCA
:101258000BF0410EF2EC0EF000016451F2EC0EF0CE
:101268000001616B020E606F22EF0DF00001636BED
:101278006BA20AD06B986B88000E626FF10E616FDB
:101288005B0E606FCAEC0FF0A4AA12D06EEC0EF0E1
:10129800636F63515A0A06E1010E01018F6F000165
:1012A800636B06D001018F05FAE18F6B010E6F6F3A
:1012B8000001635112000D500201F85D0E50F959FA
:1012C8001BE3FA510D5CFB510E5816E30001EE5179
:1012D8000201F05D0001EF510201F1590DE3F251F5
:1012E8000001EE5D0201F3510001EF5905E3000E24
:1012F800616F010E606F03D00001606B616B1200BB
:10130800656B666B635162111BE0010E646F04D05C
:10131800D89062376337642B63AFFAD7D8906537B4
:1013280066376251605D6351615905E36251605FE0
:101338006351615B6581D89063336233642FEED764
:1013480065C060F066C061F0120000016D6F6F6BE0
:10135800010E6E6F6E516D1511E06F51110DAF0ECC
:10136800F3240001666F030EF420676F000E6A6FA6
:10137800FA0E696F6E0E686FF0EC08F000016F2BC3
:10138800D8906E37030E6F65E5D7010E0101806FA7
:10139800010C616B010E606F85EC0FF0838C839CF0
:1013A800030EF2EC0EF0000165C066F066C067F04F
:1013B800686B6751F2EC0EF000016451F2EC0EF02C
:1013C8009BEC0FF00001696F838C616B010E606FFD
:1013D80019EC0DF000016951120060C016F161C0EE
:1013E80017F162C018F163C019F10450011002101E
:1013F800031016E060C064F061C065F062C066F07A
:1014080063C067F065C067F064C066F0656B646BC5
:1014180064C001F065C002F066C003F067C004F064
:101428001200626F3F0EC716C66A6251C61261513A
:10143800C71205D0C78C0FD0C78CC6880CD0605196
:10144800F9E0020AF9E0010AF8E005D0978E9486DF
:1014580008D0949606D06251040AF8E0010AF7E031
:10146800F8D79488949AC68A1200706F6EC066F096
:101478006FC067F070517FEC04F0716F130416E1D0
:10148800716709D06EC066F06FC067F07051060FC3
:101498007FEC04F0716F716709D06EC066F06FC0A1
:1014A80067F070510C0F7FEC04F0716F71511200EE
:1014B8007351800AF36E800EF35C000ED8B4725D2F
:1014C8000CE270C0D9FF71C0DAFF2D0EDF6E704BD1
:1014D800712B726D731FD8B0732B71C068F070C018
:1014E80067F072C069F073C06AF074C06BF075C0C1
:1014F8006CF068EF01F061C063F060C062F003D087
:101508000001624B632B62C0F6FF63C0F7FF000E59
:10151800F86E0F0EF76403D00800F55005D0F6CF2B
:10152800E9FFF7CFEAFFEF500009EAE10001605157
:10153800625D606F61516359616F1200626F625141
:101548000F0BBA6E050EF66EF76A300EF86E0800CD
:10155800F5CF60F060A102D0616901D0616B040E23
:10156800F66E000EF76E300EF86E62AF02D0A190E4
:10157800A080615102E0948201D0968E120014D0AE
:1015880078C0D9FF79C0DAFF0201DECF02F2DDCFE1
:1015980003F214D078C0D9FF79C0DAFF0201DECF98
:1015A80008F2DDCF09F20AD076C07AF077C07BF076
:1015B8007B5104E17A51E4E0010AECE0120014D016
:1015C80078C0D9FF79C0DAFF0201DECF00F2DDCFA3
:1015D80001F214D078C0D9FF79C0DAFF0201DECF5A
:1015E80006F2DDCF07F20AD076C07AF077C07BF03A
:1015F8007B5104E17A51E4E0010AECE012001F0E8D
:101608000001686FE86BE96BEA6BEB6B0B6A0C6ABD
:10161800E8C066F0E9C067F0D89066376737D890B9
:101628006637673766C060F067C061F0FFEC0BF0A3
:101638006851D96EDA6A000EDE6EDD6E000C1D0E82
:101648000001686F6851D96EDA6ADE6ADD6A016A7C
:10165800026A036A046A056A066A076A086A05C0B4
:1016680066F006C067F0D89066376737D890663757
:10167800673766C060F067C061F01CEF0CF00001CE
:10168800F80E686FE46BE56BE66BE76BEC6BED6B84
:10169800E4C066F0E5C067F0D89066376737D89041
:1016A8006637673766C060F067C061F039EC0CF0E8
:1016B8006851D96EDA6A000EDE6EDD6E000C010E1E
:1016C8000101746F81888280838C838E08D0829018
:1016D80015D0839C13D0839E11D081980FD0000120
:1016E80060C062F061C063F0635108E16251EFE0ED
:1016F800010AEFE0030AEFE0010AEFE01200236AB3
:10170800020E226EE1EC0BF0400E40EC0FF0285078
:1017180040EC0FF0236A020E226E33EC0DF0236AC0
:10172800020E226EE1EC0BF0410E40EC0FF0265059
:1017380040EC0FF0236A020E226E3CEF0DF063516D
:10174800621117E0010E646F04D0D89062376337D6
:10175800642B63AFFAD76251605D6351615904E34A
:101768006251605F6351615BD89063336233642F69
:10177800F2D760C060F061C061F01200F29E010112
:101788003951381107E10001ED51EF1902E1EC512F
:10179800EE1911E138C162F239C163F209C03CF1B6
:1017A8000AC03DF10101386B396B62C209F063C2AE
:1017B8000AF00001F981F28E1200010E746F81881F
:1017C8008280838C838E08D0829014D0839C12D020
:1017D800839E10D081980ED022C024F023C025F01B
:1017E800255008E12450F0E0010AF0E0030AF0E097
:1017F800010AF0E0120060C062F061C063F0060EFA
:10180800D89062376337E82EFBD762C064F063C0B4
:1018180065F065C074FF64C062F0D8906233D890F8
:101828006233300E62177350CF0B6211736E120061
:1018380060C062F061C063F0060ED890623763370B
:10184800E82EFBD762C064F063C065F065C0B8FFDE
:1018580064C062F0D8906233D8906233300E621759
:10186800B750CF0B6211B76E120060C062F061C052
:1018780063F0060ED89062376337E82EFBD762C054
:1018880064F063C065F065C071FF64C062F0D89011
:101898006233D8906233300E62177050CF0B6211EA
:1018A800706E120022C024F023C025F0060ED890D6
:1018B80024362536E82EFBD724C026F025C027F08D
:1018C80027C074FF26C024F0D8902432D890243240
:1018D800300E24167350CF0B2410736E120022C0E2
:1018E80024F023C025F0060ED89024362536E82E9D
:1018F800FBD724C026F025C027F027C0B8FF26C094
:1019080024F0D8902432D8902432300E2416B750C0
:10191800CF0B2410B76E120022C024F023C025F08C
:10192800060ED89024362536E82EFBD724C026F09C
:1019380025C027F027C071FF26C024F0D890243294
:10194800D8902432300E24167050CF0B2410706EAD
:101958001200010166510DE00201466B476B486BAE
:10196800496B3A6B3B6B3C6B3D6B366B376B386B3B
:10197800396B03EC0BF023EC0BF043EC0BF094EC1D
:101988000FF001012C6B2D6B12000001676F696B62
:10199800665114E0010E686F03D0D8906637682B43
:1019A80066AFFBD7D89069376651675D03E3665128
:1019B800675F6981D8906633682FF4D76951120040
:1019C80020EE60F011D820EE62F00ED820EE64F020
:1019D8000BD820EE66F06051D9266151DA2262C038
:1019E800DEFF63C0DDFF12006051D9266151DA22A3
:1019F800DE6ADD6A12000001656B360E646F000E48
:101A0800676B666B696B686B43ECF2F0050E5FEC15
:101A18000FF0000E616B606B63EC0BF09BEC0FF04A
:101A28000001616B606B22EF0DF008D0828014D04A
:101A3800838C12D0838E10D081880ED060C062F063
:101A480061C063F0635108E16251F0E0010AF0E01F
:101A5800030AF0E0010AF0E00101746B120008D0FB
:101A6800828014D0838C12D0838E10D081880ED0BF
:101A780022C024F023C025F0255008E12450F0E0CE
:101A8800010AF0E0030AF0E0010AF0E00101746BDA
:101A98001200CEFEFCFF29FFFCFFFCFFD5FEA7FFCE
:101AA8001BFF8FFFDEFFC7FE22FF30FF54FC38FC10
:101AB8001CFC00FC0EFC2AFC46FC06FF1BFF14FF66
:101AC8000DFF0ED090EC0EF00009FCE166C0D9FFC6
:101AD80067C0DAFFDF50C3EC0EF00001664B672BDE
:101AE80066C0D9FF67C0DAFFDF50D8B41200EAD762
:101AF8001F6A206A0001F86BF96B1D6A1E6A0101F2
:101B08002C6B2D6B23EC0BF094EC0FF0000E000106
:101B1800626FFD0E616F040E606FCAEF0FF06251C5
:101B280060C0D9FF61C0DAFFDF6205D061C061F033
:101B380060C060F00AD060C0D9FF61C0DAFF604BB6
:101B4800612BDF50ECE1606B616B120061C067F0E4
:101B580060C066F008D066C0D9FF67C0DAFF62C00F
:101B6800DFFF664B672B6407D8A06507000164296F
:101B7800D8B46529D8B41200EED778C0D9FF79C097
:101B8800DAFFDECF7AF0DDCF7BF020EE04F078517B
:101B9800D9267951DA227AC0E1FF7BC0E2FFDFCF94
:101BA800E7FF1200E8F70AF8F0FD26FEE7FD1DFE44
:101BB800FCFFFCFFFCFFFCFF3DF84EF8F9FD02FEC0
:101BC8001BF8C6F70BFE2FFEB5F7F9F76CA2FED788
:101BD80061C0D9FF62C0DAFFDF50F4ECFFF000010A
:101BE80061C0D9FF62C0DAFF614B622BDF50D8B405
:101BF8001200ECD7616F080E626F636BD890613585
:101C08006335636FD89061376051635D02E360515B
:101C1800635F622FF3D763511200606F6051360B18
:101C2800B16EB36AB26AA19260AF02D0A08201D04D
:101C3800A09260A102D0B18E01D0B19EB1801200F5
:101C4800606F60517E0BCD6E60AD02D0CD8E01D03D
:101C5800CD9ECF6ACE6A9E9060AF02D09D8001D0A3
:101C68009D90CD80120060516203F3CF64F0F4CFF1
:101C780065F060516303F350652761516203F350C7
:101C8800652764C060F065C061F012000001616BF7
:101C9800030E606F63EC0BF0110EF2EC0EF0E40E25
:101CA800F2EC0EF00001616B030E606F22EF0DF095
:101CB8000001606F976A60518009856E89948992E6
:101CC8000EEC0FF089860EEC0FF089960EEC0FF0F3
:101CD80097681200F20E010176176BAC03D076916B
:101CE8006BB076816BB476856BB276876ECF60F019
:101CF8000001605112000001606F976A60C085FFA3
:101D0800899489920EEC0FF089860EEC0FF0899673
:101D18000EEC0FF097681200898489920EEC0FF090
:101D280089860EEC0FF085AE04D089968994010E51
:101D380003D089968994000E1200606F0C0E706EA5
:101D4800B1ACB1B605D0CA9460C0CBFFCA8404D088
:101D5800769460C077FF768498981200606F0C0EB6
:101D6800736E9896B1ACB1B605D0CA9460C0CBFF7B
:101D7800CA8404D0769460C077FF7684120000018C
:101D8800606F976A60C085FF898289940EEC0FF0B6
:101D980089860EEC0FF08996899297681200606F19
:101DA8000C0EB76EB1ACB1B605D0CA9460C0CBFF0B
:101DB800CA8404D0769460C077FF7684120000014C
:101DC800606F60517F0BD56ED76AD66AF29460AFA8
:101DD80002D0F28A01D0F29AD58E12000001606F0B
:101DE800C9509E96C69E60C0C9FFC6AE02D0FF0EFF
:101DF80003D09EA6FED7000E12000001616F0D0EE3
:101E0800606FFC0EE82EFED7602FFCD70001612F13
:101E1800F6D7120000F000F000F000F000F000F03B
:101E280000F000F000F000F000F000F01200606F29
:101E38006051FB0B766E786AA49660AF02D0A386D9
:101E480001D0A3967684120000F000F000F000F0B4
:101E580000F000F000F000F000F000F000F000F0FA
:101E6800120060C03EF2020161C03FF2406B416B5C
:101E7800010E01018E6F010C226EC9509E96C69EFE
:101E880022C0C9FFC6BE02D09EA6FED7120078C0E7
:101E9800D9FF79C0DAFFDECF60F0DDCF61F063EF04
:101EA8000BF0606F60510F0BBD6E60AF02D09E9457
:101EB8009D84948412000001606FFA0E00F0E82EF1
:101EC800FDD70001602FF9D71200A150BBCF24F035
:101ED800BCCF25F024C022F025C023F012009E506C
:101EE800BECF24F0BFCF25F024C022F025C023F0B8
:101EF8001200ABBCAB50AB50AB50AECF60F06051F2
:101F08001200010E0101746F81888280838C838E98
:101F1800010C21BC04D001017251C8EC0FF0120071
:101F2800776B320E766F796B786B56EFF4F0C95099
:101F38009E96C96A9EA6FED7C9501200010E0101DD
:101F48006A6F010C7694A3961200B190A0921200C9
:101F5800CD909D901200D59EF29A1200A090BA6A78
:101F680012009D94BD6A1200736B219C12004B0EE7
:101F78005FEF0FF0706A1200736A1200B76A1200FE
:0E1F88001200120012001200120012001200CD
:10BEB200004D4400DA06004D5300821B0057530028
:10BEC2001C00005253011C000031510054E70132A2
:10BED200510154E70133510254E7014C510354E735
:10BEE20001324C0354E70141510454E70143510527
:10BEF20054E70154510654E70153510754E7013402
:10BF0200510854E7014E510954E70131560098D3C4
:10BF12000132560198D30133560298D3014C56038D
:10BF220098D301334C0398D30134560498D301417A
:10BF3200560598D301315700820100325701820120
:10BF4200003357028201004C5703820100344C0334
:10BF520082010034570482010041570582010054D6
:10BF620053005A1900534300961E0052450066C3FF
:10BF72000157450166C30154450266C3015045039A
:10BF820066C30153450466C301534900820A004354
:10BF92004401820A00445302820A0044410012CB47
:10BFA2000145410112CB0153410212CB014142032F
:10BFB20012CB0146410412CB0144480698D30143F7
:10BFC2005800C61500545801C6150043590086157D
:10BFD2000054590186150058430080D50159430188
:10BFE20080D50154430280D50142430380D50146E6
:10BFF200430480D5014E430580D50149430680D5CF
:10C002000148430780D50156430880D501314309D1
:10C0120080D501584E00D20000594E01D200005482
:10C022004E02D20000424E03D20000534E04D20010
:10C0320000524D001A1F00534600441F0031584160
:10C04200ACE801325842ACE801335843ACE8014154
:10C052005844ACE801485845ACE8014C5846ACE8B5
:10C0620001505847ACE801535848ACE801565849CA
:10C07200ACE8014F584AACE80152584BACE80131E8
:10C082005961ACE801325962ACE801335963ACE85A
:10C0920001415964ACE801485965ACE8014C596664
:10C0A200ACE801505967ACE801535968ACE8015655
:10C0B2005969ACE8014F596AACE80152596BACE8D6
:10C0C20001534430ACE801535331ACE801434F35DE
:10C0D200ACE801534F36ACE801424B002CF8014367
:10C0E2004B012CF8014F50004E0600544C33ACE883
:10C0F20001534D34ACE8010000008A1F000000002B
:10C102000000000006000000000005000000000022
:10C112000400000000000300000000000200000014
:10C12200000001000000000000000000000000000C
:10C132000000000006120C00000005110B000000B8
:10C1420004100A000000030F09000000020E08009C
:10C152000000010D070000000000000000000000C8
:10C1620000000000000000000000000000000000CD
:10C1720000000000000000000000000000000000BD
:10C1820000000000000000000000000000000000AD
:10C192000000000006120C00000005110B00000058
:10C1A20004100A000000030F09000000020E08003C
:10C1B2000000010D07000000000000000000000068
:10C1C2000000000006120C00000005110B00000028
:10C1D20004100A000000030F09000000020E08000C
:10C1E2000000010D07000000000000000000000038
:10C1F200000000000000000000000000000000003D
:10C20200000000000000000000000000000000002C
:10C212000000000000000000000000000006000016
:10C22200050C05000506000C110600060B000000B7
:10C232000000000000000000000C06000C0C0601CB
:10C242000D0C06020E0C06030F0C0604100C06055C
:10C25200110205000502030104020102030C05009C
:10C26200050D0301040E01020302050C1102030D68
:10C272001002010E0F0205060B0203070A02010853
:10C28200091201001168006E00820069009D0064BD
:10C2920000B7005F00D1005A00EB005500050150C5
:10C2A2000020014B003A014600540141006E013C5E
:10C2B2000088013700A3013200BD012D00D70128FB
:10C2C20000F101230001021E0025021900400214A0
:10C2D200005A020F0074020A008E02050074030065
:10C2E20000650000A50000350100200200200400C6
:10C2F2002008002010002020002040002080002084
:10C30200000120000220000420000820001020006C
:10C3120020FF03E0025002E0019801600136012093
:10C32200011001F800F000D800D800D80000000089
:10C332000085038002E00198016001500130012074
:10C34200010801F800EC00D800D800D80000000075
:10C35200000D06000A1717171717171714171717C4
:10C3620017171700000F14191E23282D32373C41CE
:10C37200464B505AC0FE40FFC4FF00003C00C000C4
:10C3820040012800320032C8000000000006060604
:10C39200060400BC01BE01DCE608BC01BE015CE88B
:10C3A20008BC01BE01DCE9083E3B3D372F1F0040BF
:10C3B200105028006000255C03C0FEFD2D006000C7
:10C3C200214402C0FEFD320060001A9A01C0FEFD47
:10C3D2002D00320025CC01C0FEFE320029002218B9
:10C3E20001C0FEFE3700270021F000C0FEFE3C0027
:10C3F20025001AAA00C0FEFE28003600293403C018
:10C40200FEFF2D003200274402C0FEFF3200290049
:10C41200256801C0FEFF37002700222C01C0FEFF65
:10C422003C002500210401C0FEFF410022001AA0A9
:10C4320000C0FEFF28003200322404C0FE002D009E
:10C44200290029E001C0FE0032002700276801C050
:10C45200FE0037002500252C01C0FE003C00220012
:10C4620022C800C0FE004100210021A000C0FE0041
:10C4720046001A001A6E00C0FE002800290036D4B9
:10C4820003C0FE012D00270032D002C0FE0132009F
:10C492002500297C01C0FE0137002200272C01C0A3
:10C4A200FE013C00210025C800C0FE0141001A0027
:10C4B200227800C0FE012D002500329402C0FE0247
:10C4C20032002200294001C0FE023700210027F07D
:10C4D20000C0FE023C001A0025A000C0FE0232008D
:10C4E2001A00608002C0FE0300000000000000008D
:10C4F200000000000000000000000000000000003A
:10C502000000000000000000000000000000000029
:10C512000000000000000000000000000000000019
:10C522000000000000000000000000000000000009
:10C5320000000000000000000000000000000000F9
:10C5420000000000000000000000000000000000E9
:10C5520000000000000000000000000000000000D9
:10C5620000000000000000000000000000000000C9
:10C5720000000000000000000000000000000000B9
:10C5820000000000000000000000000000000000A9
:10C592000000000000000000000000000000000099
:10C5A2000000000000002800600025520340FFFD4B
:10C5B2002D006000213A0240FFFD320060001A9017
:10C5C2000140FFFD2D00320025C20140FFFE320076
:10C5D2002900220E0140FFFE3700270021E600401D
:10C5E200FFFE3C0025001AA00040FFFE2800360096
:10C5F200292A0340FFFF2D003200273A0240FFFFA5
:10C6020032002900255E0140FFFF37002700222269
:10C612000140FFFF3C00250021FA0040FFFF4100DE
:10C6220022001A960040FFFF28003200321A04400E
:10C63200FF002D00290029D60140FF00320027000B
:10C64200275E0140FF003700250025220140FF0040
:10C652003C00220022BE0040FF0041002100219642
:10C662000040FF0046001A001A690040FF0028003F
:10C67200290036CA0340FF012D00270032C60240BE
:10C68200FF013200250029720140FF01370022001C
:10C6920027220140FF013C00210025BE0040FF018E
:10C6A20041001A00226E0040FF012D002500328A4F
:10C6B2000240FF023200220029360140FF02370009
:10C6C200210027E60040FF023C001A0025960040A8
:10C6D200FF0232001A0060760240FF0300000000F1
:10C6E2000000000000000000000000000000000048
:10C6F2000000000000000000000000000000000038
:10C702000000000000000000000000000000000027
:10C712000000000000000000000000000000000017
:10C722000000000000000000000000000000000007
:10C7320000000000000000000000000000000000F7
:10C7420000000000000000000000000000000000E7
:10C7520000000000000000000000000000000000D7
:10C7620000000000000000000000000000000000C7
:10C7720000000000000000000000000000000000B7
:10C7820000000000000000000000000000000000A7
:10C7920000000000000000000000280060002548A2
:10C7A20003C4FFFD2D006000213002C4FFFD3200F2
:10C7B20060001A8601C4FFFD2D00320025B801C4B5
:10C7C200FFFE32002900220401C4FFFE37002700C9
:10C7D20021DC00C4FFFE3C0025001A9600C4FFFEC7
:10C7E20028003600292003C4FFFF2D003200273025
:10C7F20002C4FFFF32002900255401C4FFFF3700A5
:10C802002700221801C4FFFF3C00250021F000C4CC
:10C81200FFFF410022001A8C00C4FFFF28003200F3
:10C82200321004C4FF002D00290029CC01C4FF00EE
:10C8320032002700275401C4FF00370025002518C5
:10C8420001C4FF003C00220022B400C4FF004100EA
:10C852002100218C00C4FF0046001A001A6400C4A3
:10C86200FF002800290036C003C4FF012D00270065
:10C8720032BC02C4FF0132002500296801C4FF0155
:10C8820037002200271801C4FF013C00210025B413
:10C8920000C4FF0141001A00226400C4FF012D0000
:10C8A2002500328002C4FF0232002200292C01C47A
:10C8B200FF023700210027DC00C4FF023C001A00FF
:10C8C200258C00C4FF0232001A00606C02C4FF0310
:10C8D2000000000000000000000000000000000056
:10C8E2000000000000000000000000000000000046
:10C8F2000000000000000000000000000000000036
:10C902000000000000000000000000000000000025
:10C912000000000000000000000000000000000015
:10C922000000000000000000000000000000000005
:10C9320000000000000000000000000000000000F5
:10C9420000000000000000000000000000000000E5
:10C9520000000000000000000000000000000000D5
:10C9620000000000000000000000000000000000C5
:10C9720000000000000000000000000000000000B5
:10C98200000000000000000000000000000028007D
:10C9920060002548037E00FD2D0060002130027EEC
:10C9A20000FD320060001A86017E00FD2D0032007B
:10C9B20025B8017E00FE320029002204017E00FE1D
:10C9C2003700270021DC007E00FE3C0025001A967D
:10C9D200007E00FE280036002920037E00FF2D0085
:10C9E20032002730027E00FF320029002554017EEA
:10C9F20000FF370027002218017E00FF3C002500BF
:10CA020021F0007E00FF410022001A8C007E00FF10
:10CA1200280032003210047E00002D00290029CCAB
:10CA2200017E0000320027002754017E00003700FB
:10CA320025002518017E00003C00220022B4007E61
:10CA4200000041002100218C007E000046001A00F7
:10CA52001A64007E00002800290036C0037E00010F
:10CA62002D00270032BC027E000132002500296819
:10CA7200017E0001370022002718017E00013C00E0
:10CA8200210025B4007E000141001A002264007ECC
:10CA920000012D0025003280027E000232002200B9
:10CAA200292C017E00023700210027DC007E0002D3
:10CAB2003C001A00258C007E000232001A00606CD5
:10CAC200027E0003000000000000000000000000E1
:10CAD2000000000000000000000000000000000054
:10CAE2000000000000000000000000000000000044
:10CAF2000000000000000000000000000000000034
:10CB02000000000000000000000000000000000023
:10CB12000000000000000000000000000000000013
:10CB22000000000000000000000000000000000003
:10CB320000000000000000000000000000000000F3
:10CB420000000000000000000000000000000000E3
:10CB520000000000000000000000000000000000D3
:10CB620000000000000000000000000000000000C3
:10CB720000000000000000000000000000000000B3
:10CB82000000280060002552030001FD2D00600016
:10CB9200213A020001FD320060001A90010001FDFD
:10CBA2002D00320025C2010001FE32002900220EB2
:10CBB200010001FE3700270021E6000001FE3C00D3
:10CBC20025001AA0000001FE28003600292A0300D1
:10CBD20001FF2D003200273A020001FF3200290036
:10CBE200255E010001FF370027002222010001FF1C
:10CBF2003C00250021FA000001FF410022001A96A4
:10CC0200000001FF28003200321A040001002D004A
:10CC1200290029D60100010032002700275E010009
:10CC22000100370025002522010001003C002200FE
:10CC320022BE0000010041002100219600000100F7
:10CC420046001A001A69000001002800290036CAAD
:10CC5200030001012D00270032C60200010132004B
:10CC6200250029720100010137002200272201005C
:10CC720001013C00210025BE0000010141001A0013
:10CC8200226E000001012D002500328A02000102FD
:10CC9200320022002936010001023700210027E676
:10CCA200000001023C001A00259600000102320039
:10CCB2001A0060760200010300000000000000007C
:10CCC2000000000000000000000000000000000062
:10CCD2000000000000000000000000000000000052
:10CCE2000000000000000000000000000000000042
:10CCF2000000000000000000000000000000000032
:10CD02000000000000000000000000000000000021
:10CD12000000000000000000000000000000000011
:10CD22000000000000000000000000000000000001
:10CD320000000000000000000000000000000000F1
:10CD420000000000000000000000000000000000E1
:10CD520000000000000000000000000000000000D1
:10CD620000000000000000000000000000000000C1
:10CD720000000000000028006000255C038001FD27
:10CD82002D0060002144028001FD320060001A9AE9
:10CD9200018001FD2D00320025CC018001FE320010
:10CDA20029002218018001FE3700270021F00080AF
:10CDB20001FE3C0025001AAA008001FE2800360070
:10CDC2002934038001FF2D0032002744028001FF35
:10CDD200320029002568018001FF37002700222C3C
:10CDE200018001FF3C0025002104018001FF410078
:10CDF20022001AA0008001FF2800320032240480A1
:10CE020001002D00290029E00180010032002700E5
:10CE120027680180010037002500252C01800100D0
:10CE22003C00220022C8008001004100210021A014
:10CE32000080010046001A001A6E008001002800DE
:10CE4200290036D4038001012D00270032D0028050
:10CE5200010132002500297C0180010137002200F6
:10CE6200272C018001013C00210025C8008001011E
:10CE720041001A002278008001012D002500329421
:10CE820002800102320022002940018001023700A3
:10CE9200210027F0008001023C001A0025A000803A
:10CEA200010232001A0060800280010300000000CB
:10CEB2000000000000000000000000000000000070
:10CEC2000000000000000000000000000000000060
:10CED2000000000000000000000000000000000050
:10CEE2000000000000000000000000000000000040
:10CEF2000000000000000000000000000000000030
:10CF0200000000000000000000000000000000001F
:10CF1200000000000000000000000000000000000F
:10CF220000000000000000000000000000000000FF
:10CF320000000000000000000000000000000000EF
:10CF420000000000000000000000000000000000DF
:10CF520000000000000000000000000000000000CF
:10CF62000000000000000000000028006000259E74
:10CF720002A4FEFD2D00600021E001A4FEFD3200AE
:10CF820060001A8601A4FEFD2800360027EA01A4EB
:10CF9200FEFE2D003200257C01A4FEFE3200290097
:10CFA20022F000A4FEFE3700270021D200A4FEFEDC
:10CFB2003C0025001AA000A4FEFE280036002980AD
:10CFC20002A4FEFF2D00320027D601A4FEFF32008C
:10CFD2002900254001A4FEFF37002700220401A4F6
:10CFE200FEFF3C00250021B400A4FEFF4100220008
:10CFF2001A8C00A4FEFF28003200329803A4FE001F
:10D002002D00290029A401A4FE00320027002736A2
:10D0120001A4FE003700250025F000A4FE003C001C
:10D02200220022A000A4FE0041002100218C00A4C5
:10D03200FE0028002900364803A4FE012D00270027
:10D04200328002A4FE0132002500294001A4FE0123
:10D052003700220027DC00A4FE013C00210025A0AD
:10D0620000A4FE0141001A00228C00A4FE01280047
:10D072002700360C03A4FE022D002500324402A430
:10D08200FE0232002200290401A4FE023700210020
:10D0920027B400A4FE023C001A00258C00A4FE0264
:10D0A2002D002100609803A4FE0332001A006008DC
:10D0B20002A4FE03000000000000000000000000C7
:10D0C200000000000000000000000000000000005E
:10D0D200000000000000000000000000000000004E
:10D0E200000000000000000000000000000000003E
:10D0F200000000000000000000000000000000002E
:10D10200000000000000000000000000000000001D
:10D11200000000000000000000000000000000000D
:10D1220000000000000000000000000000000000FD
:10D1320000000000000000000000000000000000ED
:10D1420000000000000000000000000000000000DD
:10D1520000000000000000000000000000002D00A0
:10D16200600021D60130FFFD320060001A7C0130E0
:10D17200FFFD2800360027E00130FFFE2D003200BF
:10D1820025720130FFFE3200290022E60030FFFE48
:10D192003700270021C80030FFFE3C0025001A9608
:10D1A2000030FFFE2800360029760230FFFF2D00F6
:10D1B200320027CC0130FFFF320029002536013032
:10D1C200FFFF3700270022FA0030FFFF3C00250056
:10D1D20021AA0030FFFF28003200328E0330FF0008
:10D1E2002D002900299A0130FF0032002700272C48
:10D1F2000130FF003700250025E60030FF003C002B
:10D20200220022960030FF004100210021820030DE
:10D21200FF0028002900363E0330FF012D002700C1
:10D2220032760230FF013200250029360130FF013B
:10D232003700220027D20030FF013C002100259652
:10D242000030FF0141001A0022820030FF01280055
:10D25200270036020330FF022D002500323A023049
:10D26200FF023200220029FA0030FF0237002100BB
:10D2720027AA0030FF023C001A0025820030FF027C
:10D282002D002100608E0330FF0332001A0060FE81
:10D292000130FF0300000000000000000000000059
:10D2A200000000000000000000000000000000007C
:10D2B200000000000000000000000000000000006C
:10D2C200000000000000000000000000000000005C
:10D2D200000000000000000000000000000000004C
:10D2E200000000000000000000000000000000003C
:10D2F200000000000000000000000000000000002C
:10D30200000000000000000000000000000000001B
:10D31200000000000000000000000000000000000B
:10D3220000000000000000000000000000000000FB
:10D3320000000000000000000000000000000000EB
:10D3420000000000000000000000000000000000DB
:10D3520000002D00600021CC01BCFFFD3200600006
:10D362001A7201BCFFFD2800360027D601BCFFFE61
:10D372002D003200256801BCFFFE3200290022DCAC
:10D3820000BCFFFE3700270021BE00BCFFFE3C00B0
:10D3920025001A8C00BCFFFE28003600296C02BC56
:10D3A200FFFF2D00320027C201BCFFFF320029001F
:10D3B200252C01BCFFFF3700270022F000BCFFFF35
:10D3C2003C00250021A000BCFFFF2800320032846F
:10D3D20003BCFF002D002900299001BCFF00320090
:10D3E2002700272201BCFF003700250025DC00BCF6
:10D3F200FF003C002200228C00BCFF004100210003
:10D40200217800BCFF0028002900363403BCFF014C
:10D412002D002700326C02BCFF0132002500292CAE
:10D4220001BCFF013700220027C800BCFF013C00FD
:10D432002100258C00BCFF0141001A00227800BCAB
:10D44200FF012800270036F802BCFF022D0025004C
:10D45200323002BCFF023200220029F000BCFF027F
:10D462003700210027A000BCFF023C001A002578EB
:10D4720000BCFF022D002100608403BCFF033200C8
:10D482001A0060F401BCFF0300000000000000006D
:10D49200000000000000000000000000000000008A
:10D4A200000000000000000000000000000000007A
:10D4B200000000000000000000000000000000006A
:10D4C200000000000000000000000000000000005A
:10D4D200000000000000000000000000000000004A
:10D4E200000000000000000000000000000000003A
:10D4F200000000000000000000000000000000002A
:10D502000000000000000000000000000000000019
:10D512000000000000000000000000000000000009
:10D5220000000000000000000000000000000000F9
:10D5320000000000000000000000000000000000E9
:10D542000000000000002D00600021CC018A00FDD7
:10D55200320060001A72018A00FD2800360027D6C8
:10D56200018A00FE2D0032002568018A00FE320089
:10D57200290022DC008A00FE3700270021BE008A33
:10D5820000FE3C0025001A8C008A00FE28003600AE
:10D59200296C028A00FF2D00320027C2018A00FF97
:10D5A20032002900252C018A00FF3700270022F0D3
:10D5B200008A00FF3C00250021A0008A00FF28000D
:10D5C20032003284038A00002D0029002990018A4A
:10D5D2000000320027002722018A000037002500C0
:10D5E20025DC008A00003C002200228C008A000018
:10D5F200410021002178008A0000280029003634E9
:10D60200038A00012D002700326C028A00013200D9
:10D612002500292C018A00013700220027C8008A30
:10D6220000013C002100258C008A000141001A0003
:10D632002278008A00012800270036F8028A0002B8
:10D642002D0025003230028A00023200220029F029
:10D65200008A00023700210027A0008A00023C0055
:10D662001A002578008A00022D0021006084038AB6
:10D67200000332001A0060F4018A00030000000077
:10D682000000000000000000000000000000000098
:10D692000000000000000000000000000000000088
:10D6A2000000000000000000000000000000000078
:10D6B2000000000000000000000000000000000068
:10D6C2000000000000000000000000000000000058
:10D6D2000000000000000000000000000000000048
:10D6E2000000000000000000000000000000000038
:10D6F2000000000000000000000000000000000028
:10D702000000000000000000000000000000000017
:10D712000000000000000000000000000000000007
:10D7220000000000000000000000000000000000F7
:10D73200000000000000000000002D00600021D663
:10D74200011601FD320060001A7C011601FD28005D
:10D75200360027E0011601FE2D0032002572011667
:10D7620001FE3200290022E6001601FE37002700E2
:10D7720021C8001601FE3C0025001A96001601FE83
:10D78200280036002976021601FF2D00320027CC30
:10D79200011601FF320029002536011601FF37006C
:10D7A200270022FA001601FF3C00250021AA0016DC
:10D7B20001FF28003200328E031601002D002900DD
:10D7C200299A0116010032002700272C01160100B8
:10D7D2003700250025E6001601003C0022002296B3
:10D7E20000160100410021002182001601002800DC
:10D7F2002900363E031601012D002700327602165B
:10D8020001013200250029360116010137002200EC
:10D8120027D2001601013C002100259600160101C5
:10D8220041001A0022820016010128002700360258
:10D83200031601022D002500323A021601023200BF
:10D84200220029FA001601023700210027AA001639
:10D8520001023C001A002582001601022D0021005F
:10D86200608E0316010332001A0060FE01160103E6
:10D8720000000000000000000000000000000000A6
:10D882000000000000000000000000000000000096
:10D892000000000000000000000000000000000086
:10D8A2000000000000000000000000000000000076
:10D8B2000000000000000000000000000000000066
:10D8C2000000000000000000000000000000000056
:10D8D2000000000000000000000000000000000046
:10D8E2000000000000000000000000000000000036
:10D8F2000000000000000000000000000000000026
:10D902000000000000000000000000000000000015
:10D912000000000000000000000000000000000005
:10D9220000000000000000000000000000002800CD
:10D932006000259E02A201FD2D00600021E001A2EF
:10D9420001FD320060001A8601A201FD28003600A6
:10D9520027EA01A201FE2D003200257C01A201FE70
:10D962003200290022F000A201FE3700270021D256
:10D9720000A201FE3C0025001AA000A201FE280020
:10D982003600298002A201FF2D00320027D601A213
:10D9920001FF32002900254001A201FF37002700C4
:10D9A200220401A201FF3C00250021B400A201FFD4
:10D9B200410022001A8C00A201FF28003200329896
:10D9C20003A201002D00290029A401A201003200B6
:10D9D2002700273601A201003700250025F000A20A
:10D9E20001003C00220022A000A20100410021000F
:10D9F200218C00A2010028002900364803A201015F
:10DA02002D002700328002A20101320025002940A8
:10DA120001A201013700220027DC00A201013C0023
:10DA2200210025A000A2010141001A00228C00A2BF
:10DA3200010128002700360C03A201022D00250057
:10DA4200324402A2010232002200290401A2010290
:10DA52003700210027B400A201023C001A00258CE5
:10DA620000A201022D002100609803A201033200EE
:10DA72001A00600802A2010300000000000000007A
:10DA82000000000000000000000000000000000094
:10DA92000000000000000000000000000000000084
:10DAA2000000000000000000000000000000000074
:10DAB2000000000000000000000000000000000064
:10DAC2000000000000000000000000000000000054
:10DAD2000000000000000000000000000000000044
:10DAE2000000000000000000000000000000000034
:10DAF2000000000000000000000000000000000024
:10DB02000000000000000000000000000000000013
:10DB12000000000000000000000000000000000003
:10DB220000002300600028200384FEFD280060001E
:10DB320025E00184FEFD2D006000217C0184FEFDB4
:10DB4200320060001A7C0184FEFD23004000290897
:10DB52000284FEFE2800360027900184FEFE2D007E
:10DB62003200252C0184FEFE23004000327404841E
:10DB7200FEFF2800360029CC0184FEFF2D00320072
:10DB820027680184FEFF3200290025180184FEFF68
:10DB92003700270022DC0084FEFF230036003624F3
:10DBA2000484FE0028003200320C0384FE002D00A3
:10DBB200290029680184FE0032002700270401841D
:10DBC200FE003700250025B40084FE002300320049
:10DBD20040740484FE012800290036BC0284FE0140
:10DBE2002D00270032300284FE0132002500290474
:10DBF2000184FE013700220027A00084FE012300D9
:10DC0200290040980384FE022800270036940284EB
:10DC1200FE022D00250032F40184FE0232002200B1
:10DC220029C80084FE022800250060380484FE030F
:10DC32002D00210060E40284FE0332001A0060908D
:10DC42000184FE030000000000000000000000004C
:10DC520000000000000000000000000000000000C2
:10DC620000000000000000000000000000000000B2
:10DC720000000000000000000000000000000000A2
:10DC82000000000000000000000000000000000092
:10DC92000000000000000000000000000000000082
:10DCA2000000000000000000000000000000000072
:10DCB2000000000000000000000000000000000062
:10DCC2000000000000000000000000000000000052
:10DCD2000000000000000000000000000000000042
:10DCE2000000000000000000000000000000000032
:10DCF2000000000000000000000000000000000022
:10DD02000000000000000000000000000000000011
:10DD1200000000000000230060002816031CFFFD25
:10DD22002800600025D6011CFFFD2D006000217235
:10DD3200011CFFFD320060001A72011CFFFD23006E
:10DD4200400029FE011CFFFE280036002786011C28
:10DD5200FFFE2D0032002522011CFFFE32002900A9
:10DD620022D2001CFFFE23004000326A041CFFFF87
:10DD72002800360029C2011CFFFF2D003200275E59
:10DD8200011CFFFF32002900250E011CFFFF2300AA
:10DD92003600361A041CFF00280032003202031C2F
:10DDA200FF002D002900295E011CFF003200270020
:10DDB20027FA001CFF003700250025AA001CFF00DF
:10DDC2002800290036B2021CFF012D00270032264E
:10DDD200021CFF013200250029FA001CFF0123006A
:10DDE2002900408E031CFF0228002700368A021CED
:10DDF200FF022D00250032EA011CFF022300280049
:10DE0200607E041CFF0328002500602E041CFF0313
:10DE12002D00210060DA021CFF0332001A00608626
:10DE2200011CFF03000000000000000000000000D1
:10DE320000000000000000000000000000000000E0
:10DE420000000000000000000000000000000000D0
:10DE520000000000000000000000000000000000C0
:10DE620000000000000000000000000000000000B0
:10DE720000000000000000000000000000000000A0
:10DE82000000000000000000000000000000000090
:10DE92000000000000000000000000000000000080
:10DEA2000000000000000000000000000000000070
:10DEB2000000000000000000000000000000000060
:10DEC2000000000000000000000000000000000050
:10DED2000000000000000000000000000000000040
:10DEE2000000000000000000000000000000000030
:10DEF2000000000000000000000000000000000020
:10DF0200000000000000000000002800600025CC96
:10DF120001B8FFFD2D006000216801B8FFFD32004D
:10DF220060001A6801B8FFFD28004500297C01B88D
:10DF3200FFFE2D004000271801B8FFFE3200360018
:10DF420025C800B8FFFE3700320022B400B8FFFE39
:10DF520023004500326004B8FFFF2800400029B8C2
:10DF620001B8FFFF2D003600275401B8FFFF320031
:10DF72003200250401B8FFFF3700290022C800B88B
:10DF8200FFFF23003600361004B8FF0028003200DD
:10DF920032F802B8FF002D002900295401B8FF0011
:10DFA2003200270027F000B8FF003700250025A027
:10DFB20000B8FF002800290040A802B8FF012D0088
:10DFC2002700361C02B8FF013200250032F000B8EB
:10DFD200FF0137002200298C00B8FF01280027002A
:10DFE200368002B8FF022D00270040E001B8FF0290
:10DFF2003200250036B400B8FF0237002200327822
:10E0020000B8FF0232001A00607C01B8FF03000072
:10E0120000000000000000000000000000000000FE
:10E0220000000000000000000000000000000000EE
:10E0320000000000000000000000000000000000DE
:10E0420000000000000000000000000000000000CE
:10E0520000000000000000000000000000000000BE
:10E0620000000000000000000000000000000000AE
:10E07200000000000000000000000000000000009E
:10E08200000000000000000000000000000000008E
:10E09200000000000000000000000000000000007E
:10E0A200000000000000000000000000000000006E
:10E0B200000000000000000000000000000000005E
:10E0C200000000000000000000000000000000004E
:10E0D200000000000000000000000000000000003E
:10E0E200000000000000000000000000000000002E
:10E0F20000000000000000000000000000002300FB
:10E102006000280C039600FD2800600025CC0196D3
:10E1120000FD2D0060002168019600FD32006000C4
:10E122001A68019600FD2300400029F4019600FEC2
:10E1320028003600277C019600FE2D0032002518AB
:10E14200019600FE3200290022C8009600FE23003C
:10E1520040003260049600FF2800360029B801967C
:10E1620000FF2D0032002754019600FF32002900E3
:10E172002504019600FF23003600361004960000A5
:10E182002800320032F8029600002D00290029549E
:10E19200019600003200270027F0009600003700A9
:10E1A200250025A0009600002800290036A8029626
:10E1B20000012D002700321C0296000132002500CA
:10E1C20029F00096000137002200278C00960001FA
:10E1D200280027003680029600022D00250032E03A
:10E1E200019600023200220029B4009600022D009E
:10E1F200210060D00296000332001A00607C019672
:10E202000003000000000000000000000000000009
:10E2120000000000000000000000000000000000FC
:10E2220000000000000000000000000000000000EC
:10E2320000000000000000000000000000000000DC
:10E2420000000000000000000000000000000000CC
:10E2520000000000000000000000000000000000BC
:10E2620000000000000000000000000000000000AC
:10E27200000000000000000000000000000000009C
:10E28200000000000000000000000000000000008C
:10E29200000000000000000000000000000000007C
:10E2A200000000000000000000000000000000006C
:10E2B200000000000000000000000000000000005C
:10E2C200000000000000000000000000000000004C
:10E2D200000000000000000000000000000000003C
:10E2E200000000000000000000000000000000002C
:10E2F2000000230060002816033001FD28006000A2
:10E3020025D6013001FD2D0060002172013001FD92
:10E31200320060001A72013001FD2300400029FE24
:10E32200013001FE280036002786013001FE2D0053
:10E3320032002522013001FE3200290022D20030B3
:10E3420001FE23004000326A043001FF280036003B
:10E3520029C2013001FF2D003200275E013001FF8A
:10E3620032002900250E013001FF23003600361A43
:10E3720004300100280032003202033001002D0077
:10E382002900295E013001003200270027FA0030FF
:10E3920001003700250025AA0030010028002900CD
:10E3A20036B2023001012D0027003226023001016F
:10E3B2003200250029FA0030010123002900408E95
:10E3C2000330010228002700368A023001022D00A4
:10E3D200250032EA0130010223002800607E043069
:10E3E200010328002500602E043001032D002100C6
:10E3F20060DA0230010332001A0060860130010344
:10E40200000000000000000000000000000000000A
:10E4120000000000000000000000000000000000FA
:10E4220000000000000000000000000000000000EA
:10E4320000000000000000000000000000000000DA
:10E4420000000000000000000000000000000000CA
:10E4520000000000000000000000000000000000BA
:10E4620000000000000000000000000000000000AA
:10E47200000000000000000000000000000000009A
:10E48200000000000000000000000000000000008A
:10E49200000000000000000000000000000000007A
:10E4A200000000000000000000000000000000006A
:10E4B200000000000000000000000000000000005A
:10E4C200000000000000000000000000000000004A
:10E4D200000000000000000000000000000000003A
:10E4E20000000000000023006000282003C801FD96
:10E4F2002800600025E001C801FD2D006000217C9C
:10E5020001C801FD320060001A7C01C801FD230030
:10E512004000290802C801FE28003600279001C8E1
:10E5220001FE2D003200252C01C801FE230040000F
:10E53200327404C801FF2800360029CC01C801FF4B
:10E542002D003200276801C801FF3200290025187A
:10E5520001C801FF3700270022DC00C801FF2300A9
:10E562003600362404C8010028003200320C03C8E9
:10E5720001002D002900296801C80100320027008E
:10E58200270401C801003700250025B400C8010096
:10E5920023003200407404C801012800290036BC5F
:10E5A20002C801012D002700323002C801013200E9
:10E5B2002500290401C801013700220027A000C854
:10E5C200010123002900409803C801022800270006
:10E5D200369402C801022D00250032F401C801025E
:10E5E2003200220029C800C8010228002500603834
:10E5F20004C801032D00210060E402C801033200B7
:10E602001A00609001C80103000000000000000031
:10E6120000000000000000000000000000000000F8
:10E6220000000000000000000000000000000000E8
:10E6320000000000000000000000000000000000D8
:10E6420000000000000000000000000000000000C8
:10E6520000000000000000000000000000000000B8
:10E6620000000000000000000000000000000000A8
:10E672000000000000000000000000000000000098
:10E682000000000000000000000000000000000088
:10E692000000000000000000000000000000000078
:10E6A2000000000000000000000000000000000068
:10E6B2000000000000000000000000000000000058
:10E6C2000000000000000000000000000000000048
:10E6D2000000000000000000000000010203040529
:10E6E20001070001020304050607000306030606EC
:10E6F20006060001050505060507000102030405DB
:10E7020006070004060604060606000202060606BE
:10E7120006060001020304050607000102030405C0
:10E7220006070001020304050607000102030405AF
:10E73200060700010203040506070001020304059F
:10E74200060700010203040506070001020304058F
:10E75200060700010203040506070001020304057F
:10E76200060700010203040506070001020304056F
:10E77200060700010203040506070001020304055F
:10E78200060700010203040506070001020304054F
:10E79200060700010203040506070001020304053F
:10E7A200060700010203040506070001020304052F
:10E7B200060700010203040506070001020304051F
:10E7C200060700010203040506070001020304050F
:10E7D20006070001020304050607000102030405FF
:10E7E20006070001020304050607000102030405EF
:10E7F20006070001020304050607000102030405DF
:10E8020006070001020304050607000102030405CE
:10E8120006070001020304050607000102030405BE
:10E8220006070001020304050607000102030405AE
:10E83200060700010203040506070001020304059E
:10E84200060700010203040506070007070707057C
:10E85200060700010203040506070001020304057E
:10E86200010700010203040506070003060306066A
:10E872000606000105050506050700010203040559
:10E88200060700040606040606060002020606063D
:10E89200060600030603060606060003060306062E
:10E8A2000606000306030606060600010203040527
:10E8B200060700010203040506070001020304051E
:10E8C200060700010203040506070001020304050E
:10E8D20006070001020304050607000102030405FE
:10E8E20006070001020304050607000102030405EE
:10E8F20006070003060306060606000306030606CD
:10E9020006060003060306060606000102030405C6
:10E9120006070001020304050607000102030405BD
:10E9220006070001020304050607000102030405AD
:10E93200060700010203040506070001020304059D
:10E94200060700010203040506070001020304058D
:10E95200060700030603060606060003060306066C
:10E962000606000306030606060600010203040566
:10E97200060700010203040506070001020304055D
:10E98200060700010203040506070001020304054D
:10E99200060700010203040506070001020304053D
:10E9A200060700010203040506070001020304052D
:10E9B200060700010203040506070001020304051D
:10E9C20006070001020304050607000707070705FB
:10E9D20006070001020304050607000102030405FD
:10E9E20001070001020304050607000306030606E9
:10E9F20006060001050505060507000102030405D8
:10EA020006070004060604060606000202060606BB
:10EA120006060001020304050607000102030405BD
:10EA220006070001020304050607000102030405AC
:10EA32000607000102030405060700030603060693
:10EA4200060600010203040506070001020304058D
:10EA5200060700010203040506070001020304057C
:10EA62000607000102030405060700030603060663
:10EA7200060600010203040506070001020304055D
:10EA8200060700010203040506070001020304054C
:10EA92000607000102030405060700030603060633
:10EAA200060600010203040506070001020304052D
:10EAB200060700010203040506070001020304051C
:10EAC2000607000102030405060700030603060603
:10EAD20006060001020304050607000102030405FD
:10EAE20006070001020304050607000102030405EC
:10EAF20006070001020304050607000306030606D3
:10EB020006060001020304050607000102030405CC
:10EB120006070001020304050607000102030405BB
:10EB220006070001020304050607000102030405AB
:10EB3200060700010203040506070001020304059B
:10EB42000607000102030405060700070707070579
:10EB52000607000102030405060700600000506773
:10EB62000000505200000045000050520000504288
:10EB72000000004000005042000000380000003653
:10EB820000000038000000340000003200000034B1
:10EB920000000030000000300000003200000029B8
:10EBA20000000029000000300000002800000028BA
:10EBB20000000029000000270000002700000028B4
:10EBC200000000260000002500000026000050235F
:10EBD200000000220000502300005021000000210C
:10EBE20000005021000000200000001A0000501D0B
:10EBF20000005019000000000000000000000000AA
:10EC020000000070007000700070007000700070F2
:10EC12000070006000600045004500400030003692
:10EC2200002800320025002900210027001A0025B3
:10EC3200001A0022001A0021001A001A001A001AF3
:10EC4200001A2D00250032940280010237002700AD
:10EC520022E6001601FF37002700220401C4FFFF4D
:10EC62003200250029220130FF013200290025222D
:10EC7200011601FF3200250029FA0084FE01280056
:10EC8200290036A80296000128002900363E031604
:10EC920001012800290036A8029600012800290057
:10ECA20036A802B8FF0128002900363403BCFF0150
:10ECB200280029003634038A000132002900220E7E
:10ECC20001C4FFFE3200290025F0001CFFFF3200C4
:10ECD20029002204017E00FE3200290025E60030D0
:10ECE20001FF3200290022DC0030FFFE3200290041
:10ECF20022F0001601FE32002200290E01800102DC
:10ED0200370022002796001601013700270022FE55
:10ED120000C4FFFF3700270022DC0030FFFF3C0069
:10ED220021002578001601012D00320027220184DE
:10ED3200FEFF2D00210060C00330FF0328002700E2
:10ED420036020316010228002900363E0330FF0175
:10ED52002D002500326C027E00022800290036CAEE
:10ED62000380010128002900362A038A00013200AB
:10ED72002900220E01C4FFFE3700270022DC0030EA
:10ED8200FFFF3C00250021D2007E00FF3C00250051
:10ED920021B4001601FF3200290025E6001CFFFF06
:10EDA2002D00320025FA00C801FE37002700221884
:10EDB200017E00FF3200220029FA00160102320011
:10EDC2002900255401C4FFFF2D0025003290014087
:10EDD200FF0223004000290802C801FE2300400070
:10EDE2003260049600FF3700270021E600A4FEFEF1
:10EDF2003C00250021C8001601FF32002700275ED3
:10EE02000140FF00320025002904011CFF013700E8
:10EE120025002522010001002D00250032E00130ED
:10EE220001023C00220022C800C0FE003C00250076
:10EE320021B40030FFFF3700270021D3001601FE66
:10EE42003C0025001AC80030FFFE370027002222AE
:10EE52000140FFFF32002700270401300100280093
:10EE6200270036020330FF0228002700360203166D
:10EE720001022800270036020330FF022D00250080
:10EE82003280027E00022D00270032D00280010172
:10EE92002300360036240484FE003700220027189F
:10EEA20001C4FF013700220027D20030FF013700E2
:10EEB20022002718017E00013200250029360116A2
:10EEC200010132002700275E0140FF0023003600C7
:10EED20036E402C801003C001A0025A000CEFE0262
:10EEE20032002500294A0140FF0132002700270491
:10EEF200011CFF003C002500210401C0FEFF370079
:10EF0200270021DC00A201FE320029002236010086
:10EF120001FE56312E302E333400680004091E5B88
:10EF22003212140606063000000006060606060621
:10EF320006060610008000800080000001800000AC
:10EF4200030001000800080014001000180020004F
:10EF520020005810001000800040000001800000D6
:10EF6200030001000800010014000100180008005D
:10EF72002000581000100080004000A00080008097
:10EF8200010001000200020003000400040010005E
:10EF92001000581000100080004000000180008026
:10EFA200010001000200020003000400040010003E
:10EFB2001000581000100080004000000180000086
:10EFC20003000100080004001000100014002000DB
:10EFD200180058100010008000400000018000005E
:10EFE20003000100080004001000040014000800DF
:10EFF200180058100010008000400000010001209D
:10F00200010004800100080003000C00040010004D
:10F012001000580A0D496E76616C696420436F6D69
:10F022006D616E643E0028003200329902000000D9
:10F032000A0D52454144593E000A0D0020000A0DB6
:10F042004E656172657374206C6F6320666F722007
:10F0520043757273686F742E7820616E64204375F5
:10F062007273686F742E79203D200055706772614B
:10F07200646520417661696C61626C6520436F6EE4
:10F08200746163740D4C6F62737465722053706F98
:10F09200727473000A0D4661727468657374206C31
:10F0A2006F6320666F722043757253686F742E7996
:10F0B2004C6F203D20000A0D4E656172657374200D
:10F0C2006C6F6320666F722043757253686F742E83
:10F0D200784C6566743D20000A0D52616E646F6D56
:10F0E20020486F72697A6F6E74616C20285377655D
:10F0F200657029204D6F6465000A0D6163745F704D
:10F10200726F6772616D2E666565645B707073689D
:10F112006F745F69785D3A20000A0D4C6172676511
:10F1220053706444726F705F546F702028756E66FE
:10F13200696C746572656429000A0D4C61726765B9
:10F1420053706444726F705F426F742028756E66EC
:10F15200696C746572656429000A0D5553415254F5
:10F1620032204F76657272756E206572726F7220F0
:10F17200636C65617265642E000A0D52616E646F84
:10F182006D20566572746963616C202844657074E1
:10F192006829204D6F6465000A0D4C6172676553E2
:10F1A200706444726F705F5A2028756E66696C7461
:10F1B2006572656429000A0D726E646D5F62617327
:10F1C200655F66656564735F696E646578203D207E
:10F1D200000A0D436F6D7061726520454550524FB4
:10F1E2004D20746F20464C415348000A0D506F77F2
:10F1F200657220426173656C696E65722044726942
:10F202006C6C004F76657272756E206572726F72E9
:10F2120020636C65617265642E0A000A0D57616B8A
:10F2220065557020656C65765F636F72722E732010
:10F232003D20004472696C6C2053617665642074D1
:10F242006F204D616368696E65000A0D43757253E4
:10F25200686F742E6665656472617465203D200076
:10F262000A0D52616E646F6D20456C65766174693A
:10F272006F6E203D20000A0D41747461636B2F4450
:10F282006566656E64204472696C6C000A0D466F97
:10F29200726568616E6420506C7573204472696C8B
:10F2A2006C000A0D4F7363696C6C61746520456C68
:10F2B20065766174696F6E000A0D436C65617269EF
:10F2C2006E672070726F6772616D0A0D000A0D61C0
:10F2D20063745F70726F6772616D2E73686F743AD8
:10F2E20020000A0D496E7465726D6564696174650A
:10F2F200204472696C6C000A0D4C61726765537030
:10F302006444726F705F41203D2030000A0D4C61F1
:10F3120072676553706444726F705F42203D2030A3
:10F32200000A0D4C6172676553706444726F705FBE
:10F3320043203D2030000A0D416C6C2D436F7572E5
:10F34200746572204472696C6C000A0D57524954FC
:10F352004520434F4C4C4953494F4E0A0D000A0D6C
:10F362000A0D0A0D57616B696E67205570202E2EAB
:10F372002E000A0D496E76616C6964204C6F6361E0
:10F3820074696F6E000A0D43757253686F742E783C
:10F392004C656674203D20000A0D4C61726765530E
:10F3A200706444726F70203D2030000A0D46756C07
:10F3B2006C2052616E646F6D204D6F6465000A0DA2
:10F3C2004D6F6F6E62616C6C6572204472696C6C19
:10F3D20000436C6561722050726F6772616D204DDF
:10F3E2006F6465000A0D576964652054776F204C7D
:10F3F200696E650A0D000A0D4275696C64436D649D
:10F402002853435F583129000A0D42616C6C5469DC
:10F412006D65724F6E203D2030000A0D42616C6CAA
:10F4220054696D65724F6E203D20310055736572CF
:10F432002050726F6772616D204D6F6465000A0D16
:10F442004F7363696C6C61746520537765657000F6
:10F45200202020204D616368696E652020202020D5
:10F462000020202020466565646261636B202020B5
:10F47200200020202046656564204D6F746F722045
:10F4820020200020205377656570204D6F746F72C5
:10F49200202020002020496E76616C69642044613E
:10F4A200746120200020204F7665722D43757272A0
:10F4B200656E742020002A2A2A2A204572726F72F1
:10F4C200202A2A2A2A2000506C656173652054750F
:10F4D200726E204F66662000546F702053657276FC
:10F4E20065204D6F746F722000426F7420536572F5
:10F4F2007665204D6F746F722000456C657661747D
:10F50200696F6E204D6F746F722000454C45563AFC
:10F512002020202020202020202020004C4546545E
:10F5220059202020202020202020202000534C4938
:10F532004345522020202020202020202000322D50
:10F542004C494E453A2020202020202020200049EE
:10F552004E56414C494420202020202020202000CB
:10F562004752494E4445522020202020202020206E
:10F5720000414456414E4345442020202020202073
:10F582002000415050524F4143482020202020204B
:10F59200202000424547494E4E455220202020203F
:10F5A20020202000524E442044455054483A202006
:10F5B2002020202000524E442053574545503A20E7
:10F5C2002020202020004D4F4F4E42414C4C4552AE
:10F5D20020202020202000414C4C2D434F555254D6
:10F5E2004552202020202000494E5445524D45448A
:10F5F20049415445202020200046554C4C59205268
:10F60200414E444F4D2020202000454C45563A2083
:10F61200203E202020203C20202000415454414301
:10F622004B2F444546454E4420202000464F52452C
:10F6320048414E4420504C55532020200046454519
:10F64200443A202020202020205345432000504FC0
:10F6520057455220424153454C494E4552200032B3
:10F662002D4C494E453A3E202020202020203C00AF
:10F67200524E442044455054483E20202020203CF5
:10F6820000524E442053574545503E202020202012
:10F692003C004C4546545920202020202020202088
:10F6A2003E3C00534C49434552202020202020203C
:10F6B200203E3C004752494E444552202020202003
:10F6C20020203E3C00414456414E434544202020E8
:10F6D2002020203E3C00415050524F4143482020C0
:10F6E200202020203E3C00424547494E4E455220B4
:10F6F20020202020203E3C004D4F4F4E42414C4C9A
:10F702004552202020203E3C00414C4C2D434F5579
:10F71200525445522020203E3C00494E5445524D01
:10F7220045444941544520203E3C0046554C4C59E5
:10F732002052414E444F4D20203E3C004154544102
:10F74200434B2F444546454E44203E3C00464F52D3
:10F752004548414E4420504C5553203E3C00504FAA
:10F7620057455220424153454C494E453E3C004686
:10F772004545443A20203E202020205345433C006A
:10F782004C4F4353202020202020202020202020C6
:10F79200004C6F636174696F6E733A2020202020E1
:10F7A200200050726F6772616D204472696C6C2325
:10F7B200202000204E657874202B204261636B204C
:10F7C2002D2020005023202053484F542320204C2A
:10F7D2004F432320002A2041505020434F4E545281
:10F7E2004F4C202A200053504545443A20202020E7
:10F7F20020204D504820003E4E455854202B204298
:10F8020041434B202D203C0053504545443A203E75
:10F81200202020204D50483C005023202053484FA8
:10F82200542320204C4F43203F0050232020536874
:10F832006F742320204C6F63203F00502320202030
:10F84200504C415920544F2052554E0050233E20D7
:10F852003C504C415920544F2052554E0050726535
:10F862007373202D20746F2065726173650050726E
:10F872006573732061206C6F636174696F6E0074CD
:10F882006F205072676D2073686F742C206F720046
:10F892000A0D56657269667920454550524F4D20D2
:10F8A200000A0D496E76616C6964204D6574686F5B
:10F8B2006400322E2043616C69627261746520209B
:10F8C200202000312E20507265737320544553540A
:10F8D20020202000342E20507265737320504C413A
:10F8E20059202020002020506C65617365207761CB
:10F8F20069742E202000535441434B204F564552E9
:10F90200464C4F57202000332E2053656C6563749C
:10F91200204D6F6465202000204261747465727905
:10F92200204C6576656C20200020536875747469DC
:10F932006E6720646F776E212000204261747465C7
:10F9420072793A20202020202520002043616C6912
:10F9520062726174696E672E2E2E20000A0D6C6F22
:10F9620063702D3E7370656564203D20000A0D436F
:10F97200757253686F742E794C6F203D20000A0D0A
:10F98200656C65765F636F72722E73203D20002076
:10F99200544553542043414C49425241544520005E
:10F9A20020202E202046542E204E454152455220E2
:10F9B20000282B29204E6F7420416C6C6F77656490
:10F9C2002000282D29204E6F7420416C6C6F7765C2
:10F9D2006420002D2D2D2D2D2D2D2D2D2D2D2D2D58
:10F9E2002D2D2D0020202E202046542E204641521F
:10F9F20054484552000A0D416476616E6365642085
