:040000000CEF00F011
:10000800D9CF3BF0DACF3CF0F3CF3DF08AEDF4F0F6
:100018002EEFF5F046D078C0D9FF79C0DAFF02019B
:10002800DECFD6F2DDCFD7F24CD078C0D9FF79C079
:10003800DAFF0201DECFD4F2DDCFD5F242D078C0AC
:10004800D9FF79C0DAFF0201DECFD0F2DDCFD1F2DD
:1000580038D078C0D9FF79C0DAFF0201DECFD2F2FA
:10006800DDCFD3F22ED0D6C2A2F1D7C2A3F1D4C22B
:10007800A0F1D5C2A1F1D0C29CF1D1C29DF1D2C2EA
:100088009EF1D3C29FF101012D6B010E2C6F02016D
:10009800D66BD76BD46BD56BD06BD16BD26BD36B64
:1000A80010D076C07AF077C07BF07B510AE17A51A4
:1000B800B2E0010ABAE0030AC2E0010ACAE0070A8C
:1000C800D2E0120042D0BAEC0AF051D078C0D9FF81
:1000D80079C0DAFFDECF7AF0DDCF7BF0A5ECD4F083
:1000E80046D039EC0BF0F5ECC4F0EEC060F0EFC090
:1000F80061F04AEC0FF00001ECC060F0EDC061F077
:10010800626B636B4CEC0FF0E4C060F0E5C061F02B
:10011800E6C062F0E7C063F04CEC0FF028D039EC91
:100128000BF0EEC060F0EFC061F04AEC0FF0ECD7D6
:1001380078C0D9FF79C0DAFFDECFDCF0DECFDDF0A2
:10014800DECFDEF0DECFDFF012D076C07AF077C0F7
:100158007BF07B510CE17A51B9E0010AB4E0030A63
:10016800C0E0010A04E0070ADAE0010AE1E012004F
:1001780020EE64F06051D9266151DA22DECF63F0B7
:10018800DDCF64F06451800AF36E800EF35C5F0E7D
:10019800D8B4635D2DE220EE62F06051D92661513A
:1001A800DA22DECF63F0DDCF64F063516025D96ECB
:1001B80064516121DA6E62C0DFFF20EE62F019D867
:1001C80020EE64F016D820EE62F06051D926615115
:1001D800DA225F0EDE16000EDD1613D8010ADD10D6
:1001E80002E19D8805D00DD8020ADD10D8B4A38895
:1001F80012006051D9266151DA22DE2A000EDD2272
:10020800000C20EE66F06051D9266151DA22DE50EA
:10021800120069C06DF06AC06EF06DC060F06EC00B
:1002280061F06BC062F06CC063F0D9EC08F060C09C
:100238006DF061C06EF0674B682B6E516D11EDE18A
:1002480067C0D9FF68C0DAFF000EDF6A6707D8A069
:10025800680769C060F06AC061F06BC062F06CC08A
:1002680063F01AEC0BF060516F6F69C060F06AC000
:1002780061F06BC062F06CC063F0D9EC08F060C04C
:1002880069F061C06AF0090E6F6502D0070E6F272A
:10029800300E6F2767C0D9FF68C0DAFF6FC0DFFF75
:1002A8006707D8A068076A516911D3E1674B682BC3
:1002B80012000001635160116111621105E1606B68
:1002C800616B626B636B42D06C6B6D6B6CC064F07E
:1002D8006DC065F0D89064376537410E6425F66EB9
:1002E800C30E652144ECAAF00900F5CF66F00900B9
:1002F800F5CF67F06651686F6751696F6A6B6B6B12
:100308006851605D695161596A5162596B5163590D
:100318000EE3020E6C25646F000E6D21656F64C0DC
:1003280060F065C061F0000E61BFFF0E0DD06C4B30
:100338006D2B6D51800A800F0E0ED8B46C5DC6E32C
:10034800060E606F000E616F626F636F1200776B4D
:100358007551800AF36E800EF35C000ED8B4745D9C
:1003680006E2746D751FD8B0752B010E776F735147
:10037800800AF36E800EF35C000ED8B4725D06E25C
:10038800726D731FD8B0732B010E771B786B796B66
:10039800755174111BE0010E766F04D0D890743734
:1003A8007537762B75AFFAD7D89078377937745177
:1003B800725D7551735905E37451725F7551735BC2
:1003C8007881D89075337433762FEED7775104E05F
:1003D800786D791FD8B0792B78C072F079C073F036
:1003E8001200626F856A976A9294929292968994A3
:1003F800899289963DEC0FF0300EF6EC0DF0050E63
:1004080078EC0EF0300EF6EC0DF0010E78EC0EF0F4
:10041800320EF6EC0DF007EC0EF00009FCE107ECEB
:100428000EF00009FCE100016251F6EC0DF007EC5A
:100438000EF00009FCE1080EF6EC0DF007EC0EF0EA
:100448000009FCE10F0EF6EC0DF007EC0EF00009C8
:10045800FCE1010EF6EC0DF007EC0EF00009FCE1F2
:10046800130EF6EC0DF007EC0EF00009FCE1800E1F
:10047800D3EF0DF06B6F6E6B6BC060F0616B010EAC
:10048800636FF40E626FAEEC0DF06E510A0DC20E82
:10049800696FC30E6A6FF3506927F4506A2360517D
:1004A80069256C6F61516A216D6F090E6C25696F42
:1004B800000E6D216A6F69C0F6FF6AC0F7FF000E73
:1004C800F86E0800F550671910E16CC0F6FF6DC0B2
:1004D800F7FF000EF86E0800F550661906E168513E
:1004E800D96EDA6A6EC0DFFF05D06E2B6E51800AB6
:1004F8004E0FC2E36E51800A4E0F010ED8B0000EA7
:100508001200150E0001776F3BD0656B350E646FD6
:10051800000E676B666B696B686BCFECF1F0050ECC
:10052800E1EC0EF0000E616B606BDAEC0AF01DEC8A
:100538000FF00001776F000E616B606B90EC0CF0B0
:10054800050EE1EC0EF0000E616B606BDAEC0AF060
:100558001DEC0FF00001766F000E616B606B90EC84
:100568000CF000017751150A03E07651150A08E1ED
:10057800000E626FFF0E616FD30E606F4DEC0FF0CF
:100588007751150AC2E07651150AD8A41200BDD7D2
:100598000101B66709D0030E0001796F540E786F18
:1005A8000101F5511AECFFF0806AC69A4F0EAB169E
:1005B800AC9ACF0E9D164F0E6B166C9ACF0EA316E3
:1005C80042EC0FF044EC0FF040EC0FF028EC0FF089
:1005D80037EC0FF02EEC0FF034EC0FF02BEC0FF0A3
:1005E800C26A2EEC0FF031EC0FF0806A816A826AE1
:1005F800836A846A856A866A926A010E936E946A2F
:10060800956A966A976A986AD190F29EF29CF292DD
:10061800F288030000F0F292F298120078C0D9FF35
:1006280079C0DAFFDECF7BF0DECF7CF0DECF7DF065
:10063800DECF7EF07F6B806B7FC07AF00F0E7A176B
:1006480007E17BC060F07CC061F04AEC0FF00ED08F
:100658007FC07AF0030E7A1709E1070E0001616F77
:10066800680E606F200E626FBCEC00F000017B51D9
:10067800D96EDA6ADF504BEC0FF000017B2B000ECD
:100688007C237D237E237F4B802B8051800A800F23
:10069800800ED8B47F5DD0E3000E626FF00E616FFC
:1006A800490E606F4DEF0FF07D517C113EE07DC02B
:1006B80061F07CC060F07EC062F0636B0AEC0DF004
:1006C80060C084F061C085F08551841126E084C043
:1006D800D9FF85C0DAFF000EDF6E844B852B7F5172
:1006E80024E07DC065F07CC064F0A4ECFAF064C03E
:1006F80080F065C081F066C082F067C083F07F51EA
:10070800D96EDA6A80C0DEFF81C0DEFF82C0DEFFFC
:1007180083C0DDFFD906D90608D07CC0D9FF7DC0CB
:10072800DAFFDF5002E07F51DCE185C07DF084C054
:100738007CF0120000016B6BABA20AD0AB98AB88BF
:10074800000E626FF20E616F130E606F4DEC0FF0CA
:100758009EAA32D0FFEC0EF06B6F0F0E636F646BC6
:10076800656B666B02012E510101225D0001676F06
:1007780002012F51010123590001686F0201305114
:10078800010124590001696F020131510101255904
:1007980000016A6F6351675D645168596551695911
:1007A80066516A59D8A06B6B22C12EF223C12FF271
:1007B80024C130F225C131F26B511200776B7351AD
:1007C800800AF36E800EF35C000ED8B4725D06E208
:1007D800726D731FD8B0732B010E776F7551800A35
:1007E800F36E800EF35C000ED8B4745D04E2746D91
:1007F800751FD8B0752B7551741117E0010E766FFF
:1008080004D0D89074377537762B75AFFAD77451F2
:10081800725D7551735904E37451725F7551735B5E
:10082800D89075337433762FF2D7775104E0726D10
:10083800731FD8B0732B72C072F073C073F01200BC
:100848006A6F6D6B6AC060F0616B010E636FF40EC6
:10085800626FAEEC0DF06D510A0DC20E686FC30EDB
:10086800696FF3506827F4506923605168256B6FEE
:10087800615169216C6F090E6B25686F000E6C2140
:10088800696F68C0F6FF69C0F7FF000EF86E0800D0
:10089800F55067190AE16BC0F6FF6CC0F7FF000E50
:1008A800F86E0800F550661905E06D2B6D51800A49
:1008B8004E0FC8E36D51800A4E0F010ED8B0000EDE
:1008C800120001016C51340AD8B421AC05D0000ED5
:1008D8000001656F020E30D0725113E129D0646BAC
:1008E800656B1ED0656B030E646F1A8A19D0656B31
:1008F800040E646F1A8C14D0656B050E646F1A8A27
:10090800F9D772510C0B0001626F636B635108E1F8
:100918006251E5E0040AE6E00C0AE9E0040AECE0CA
:10092800655164110AE0F26708D0010EF26F05D034
:10093800000E0001656F010E646F64C060F065C051
:1009480061F0120001018E6706D00001616B010E93
:10095800606FB7EC0EF03EC260F03FC261F040C27B
:1009680062F041C263F06D0E0001646F4E0E656F58
:10097800C60E666F410E676F1FEC08F060C06EF020
:1009880061C06FF062C070F063C071F0390E6E25FF
:1009980002013E6F300E00016F2102013F6F000E11
:1009A800000170210201406F000E00017121020157
:1009B800416F405100016C6F7F0E0201411500012B
:1009C8006D6F12002FD0F29EEEC036F20201EFC01A
:1009D80037F2386B396BEEC03AF2EFC03BF23C6B42
:1009E8003D6BF28E2BD046C260F047C261F04AECF4
:1009F8000FF03AC260F03BC261F03CC262F03DC207
:100A080063F04CEC0FF036C260F037C261F038C2C8
:100A180062F039C263F04CEC0FF010D0010E010106
:100A2800666F0CD076C07AF077C07BF07B5106E118
:100A38007A51C9E0010AD7E0030AF0E01200E8F4AD
:100A480000F9F40082F40093F4000AF500000000B5
:100A5800000000000000000000000000000000008E
:100A68000000000000000000000000000000EAFE96
:100A7800F1FEF8FEFFFE06FF0DFF8BFF29FF97FF33
:100A880091FFD5FE30FF3EFF62FC46FC2AFC0EFCBF
:100A98001CFC38FC54FC14FF29FF22FF1BFF8E1E90
:100AA8000072CC0158DD0160BC012C82019C400120
:100AB800D60E00F4A301686B696B6A6B6B6B6751A8
:100AC80064116511661129E0010E6C6F06D0D8908B
:100AD80064376537663767376C2B67AFF8D7D890B8
:100AE800683769376A376B376451605D655161599A
:100AF800665162596751635909E36451605F6551F2
:100B0800615B6651625B6751635B6881D89067334C
:100B18006633653364336C2FE2D768C060F069C010
:100B280061F06AC062F06BC063F012001D901EB6DF
:100B380020D0010146510001686F25D868C001F036
:100B480069C002F06AC003F06BC004F001014651AD
:100B58000001686F18D868C005F069C006F06AC05F
:100B680007F06BC008F007C060F008C061F093ECB4
:100B78000BF06751661104E01EA61E841E9202D077
:100B88001E821E941200010147510001696F6A6BB1
:100B98006B6B69C06BF068C06AF0696B686B1200B8
:100BA80000017FC091F080C092F0000E92BFFF0E4E
:100BB800936F946F81C085F082C086F0000E86BF67
:100BC800FF0E876F886F8551896F86518A6F8B6B8F
:100BD8008C6B83518D6F84518E6F8F6B906B8EC031
:100BE80090F08DC08FF08E6B8D6B89518D11956F44
:100BF8008A518E11966F8B518F11976F8C5190116E
:100C0800986F776B4B0E766F796B910E786FE2EF7A
:100C1800F3F000017FC091F080C092F0000E92BF07
:100C2800FF0E936F946F81C085F082C086F0000E2E
:100C380086BFFF0E876F886F8551896F86518A6FCF
:100C48008B6B8C6B83518D6F84518E6F8F6B906B18
:100C58008EC090F08DC08FF08E6B8D6B89518D1189
:100C6800956F8A518E11966F8B518F11976F8C519A
:100C78009011986F776B6B0E766F796B910E786F1A
:100C8800E2EFF3F01E921D901EB621D001014651ED
:100C98000001666F1DD866C001F067C002F068C029
:100CA80003F069C004F01E84010146510001666F1B
:100CB8000FD866C005F067C006F068C007F069C0C5
:100CC80008F007C060F008C061F093EC0BF0120068
:100CD800010147510001676F686B696B67C069F074
:100CE80066C068F0676B666B1200656F6C6A6B6A4A
:100CF80065B16C8865A302D06C8C6B8C65B56C8E05
:100D080065A702D06B8801D06B8A65A902D06C8474
:100D180001D06C9465BB6B8665AD02D0A38A01D007
:100D2800A39A65AF02D0A38801D0A39860C06FFFD3
:100D380061C062F062C063F0646B63517D6E6C8A5F
:100D48006B8E989298846CB86CBE01D09882120011
:100D58001BD007EC0EF00009FCE1000161C0F6FFB2
:100D680062C0F7FF000EF86E0F0EF76403D008009C
:100D7800F55005D0F6CFE9FFF7CFEAFFEF503AEC90
:100D88000EF00001614B622B61C0F6FF62C0F7FFF5
:100D9800000EF86E0F0EF76403D00800F55005D06A
:100DA800F6CFE9FFF7CFEAFFEF500009D8B41200F9
:100DB800D0D767C06DF066C06CF016D06A07D8A0AF
:100DC8006B0768C0F6FF69C0F7FF684B692B000E18
:100DD800F86E6CC0D9FF6DC0DAFF6C4B6D2B080044
:100DE800F5CFDFFFDF500BE06B516A1108E0E6D763
:100DF8006CC0D9FF6DC0DAFFDF6A6C4B6D2B6A07D8
:100E0800D8A06B0700016A29D8B46B29D8B412009E
:100E1800EFD7656FAC6AAB6A65B1AC8865A302D0E1
:100E2800AC8CAB8C65B5AC8E65A702D0AB8801D015
:100E3800AB8A65B9AC8465BBAB8665AD02D09D8ACB
:100E480001D09D9A65AF02D09D8801D09D9860C061
:100E5800AFFF61C062F062C063F0646B63517F6E84
:100E6800AC8AAB8E949C948EACB8ACBE01D0948CFA
:100E78001200F6F718F81BF51AF6FEFD34FEDAFD37
:100E8800E3FD84FAECFD4DF67FF7C5F591F6B4F570
:100E980080F64EF56FF609F63BF770F5C4F65EF688
:100EA8006EF7E7F519F792F5E6F62BF64CF73CF6F0
:100EB8005DF7A3F5F7F6F8F52AF781F5D5F6D6F537
:100EC80008F73DF5B3F62CF5A2F65FF55FF50001DE
:100ED8007F6F7FAF29D0F3EC0CF0020E0101856F14
:100EE8007FC078F115C079F18351020A03E083517C
:100EF800050A07E1000E0001676B666B4CECFEF01B
:100F080013D08351040A03E08351030A07E1000E5A
:100F18000001676B666BE5ECFDF006D0000E000182
:100F2800676B666BB3ECFEF01200F2512BE1000E1A
:100F3800626FFD0E616F050E606F4DEC0FF004508F
:100F480001100210031016E063C067F064C068F077
:100F580065C069F066C06AF068C06AF067C069F089
:100F6800686B676B67C001F068C002F069C003F086
:100F78006AC004F063C016F164C017F165C018F1C7
:100F880066C019F1120061C065F060C064F002D05B
:100F9800644B652B64C0D9FF65C0DAFFDF5006E0FB
:100FA800F7D70001644B652B624B632B62C0F6FFD9
:100FB80063C0F7FF000EF86E64C0D9FF65C0DAFFA2
:100FC8000F0EF76403D00800F55005D0F6CFE9FFFF
:100FD800F7CFEAFFEF50DF6EDF50D8B41200E1D749
:100FE80000017A510201565D00017B5102015759F7
:100FF8001FE30101602B605100017C6F7D6B0201D2
:10100800585100017C5D0201595100017D5912E3DC
:10101800000E776B766B796B786B24EC0CF058C20A
:1010280060F119800001F26705D0010EF26F02D05D
:101038000101606B1200686B696B6A6B6B6B60A176
:1010480008D0645168276551692366516A2367513E
:101058006B23D8906437653766376737D890633322
:101068006233613360336351601161116211E7E1EA
:1010780068C060F069C061F06AC062F06BC063F07C
:10108800120067C06CF066C06BF007D000016B4BB4
:101098006C2B682B000E69236A2368C0F6FF69C0B1
:1010A800F7FF6AC0F8FFF8BA03D00800F55005D07A
:1010B800F6CFE9FFF7CFEAFFEF506BC0D9FF6CC05E
:1010C800DAFFDF6EDF50D8B41200E0D7616B020E92
:1010D800606FDAEC0AF0400E69EC0EF00001665120
:1010E80069EC0EF00001616B020E606F90EC0CF081
:1010F8000001616B020E606FDAEC0AF0410E69ECD8
:101108000EF00001645169EC0EF00001616B020EF3
:10111800606F99EF0CF00001636B6BA20AD06B98BB
:101128006B88000E626FF10E616F690E606F4DEC97
:101138000FF0A4AA12D0E5EC0DF0636F63515A0AC0
:1011480006E1010E01018F6F0001636B06D00101FA
:101158008F05FAE18F6B010E6F6F0001635112006A
:101168000D500201F85D0E50F9591BE3FA510D5C60
:10117800FB510E5816E30001EE510201F05D00012B
:10118800EF510201F1590DE3F2510001EE5D020148
:10119800F3510001EF5905E3000E616F010E606F16
:1011A80003D00001606B616B1200656B666B635165
:1011B80062111BE0010E646F04D0D8906237633768
:1011C800642B63AFFAD7D890653766376251605D94
:1011D8006351615905E36251605F6351615B6581E9
:1011E800D89063336233642FEED765C060F066C071
:1011F80061F0120000016D6F6F6B010E6E6F6E5122
:101208006D1511E06F51110DAF0EF3240001666FDB
:10121800030EF420676F000E6A6FFA0E696F7C0E7A
:10122800686F45EC08F000016F2BD8906E37030EFD
:101238006F65E5D7010E0101806F010C616B010E2E
:10124800606F07EC0FF0838C839C030E69EC0EF043
:10125800000165C066F066C067F0686B675169ECAD
:101268000EF00001645169EC0EF01DEC0FF0000166
:10127800696F838C616B010E606F90EC0CF000015C
:101288006951120060C016F161C017F162C018F10F
:1012980063C019F1045001100210031016E060C079
:1012A80064F061C065F062C066F063C067F065C055
:1012B80067F064C066F0656B646B64C001F065C07C
:1012C80002F066C003F067C004F01200626F3F0EC0
:1012D800C716C66A6251C6126151C71205D0C78CBB
:1012E8000FD0C78CC6880CD06051F9E0020AF9E02B
:1012F800010AF8E005D0978E948608D0949606D017
:101308006251040AF8E0010AF7E0F8D79488949A41
:10131800C68A1200706F6EC066F06FC067F07051B9
:1013280024EC04F0716F130416E1716709D06EC0E4
:1013380066F06FC067F07051060F24EC04F0716F0F
:10134800716709D06EC066F06FC067F070510C0FFE
:1013580024EC04F0716F715112007351800AF36E1E
:10136800800EF35C000ED8B4725D0CE270C0D9FF39
:1013780071C0DAFF2D0EDF6E704B712B726D731F0B
:10138800D8B0732B71C068F070C067F072C069F094
:1013980073C06AF074C06BF075C06CF00DEF01F0AB
:1013A80061C063F060C062F003D00001624B632B40
:1013B80062C0F6FF63C0F7FF000EF86E0F0EF76409
:1013C80003D00800F55005D0F6CFE9FFF7CFEAFFC4
:1013D800EF500009EAE100016051625D606F615100
:1013E8006359616F1200000E81B0010E0101B86FE0
:1013F800B75121EEB8F0DF6208D01D0EB66512D0E5
:10140800BAC1B9F1B8C1BAF10DD0000E02016E5DD2
:10141800800E6F5902E26E4B6F2B0101876701D076
:10142800B851B66BB8C1B7F11200626F62510F0BB9
:10143800BA6E050EF66EF76A300EF86E0800F5CF34
:1014480060F060A102D0616901D0616B040EF66E94
:10145800000EF76E300EF86E62AF02D0A190A08039
:10146800615102E0948201D0968E120014D078C0A7
:10147800D9FF79C0DAFF0201DECF02F2DDCF03F235
:1014880014D078C0D9FF79C0DAFF0201DECF08F2A4
:10149800DDCF09F20AD076C07AF077C07BF07B51B5
:1014A80004E17A51E4E0010AECE0120014D078C0BB
:1014B800D9FF79C0DAFF0201DECF00F2DDCF01F2F9
:1014C80014D078C0D9FF79C0DAFF0201DECF06F266
:1014D800DDCF07F20AD076C07AF077C07BF07B5177
:1014E80004E17A51E4E0010AECE012001F0E000169
:1014F800686FE86BE96BEA6BEB6B0B6A0C6AE8C028
:1015080066F0E9C067F0D89066376737D8906637D5
:10151800673766C060F067C061F076EC0BF0685121
:10152800D96EDA6A000EDE6EDD6E000C1D0E00014B
:10153800686F6851D96EDA6ADE6ADD6A016A026A22
:10154800036A046A056A066A076A086A05C066F0DB
:1015580006C067F0D89066376737D8906637673720
:1015680066C060F067C061F093EF0BF00001F80E01
:10157800686FE46BE56BE66BE76BEC6BED6BE4C0F7
:1015880066F0E5C067F0D89066376737D890663759
:10159800673766C060F067C061F0B0EC0BF0685167
:1015A800D96EDA6A000EDE6EDD6E000C010E0101E6
:1015B800746F81888280838C838E08D0829015D046
:1015C800839C13D0839E11D081980FD0000160C0F6
:1015D80062F061C063F0635108E16251EFE0010A13
:1015E800EFE0030AEFE0010AEFE01200236A020EBF
:1015F800226E58EC0BF0400EC2EC0EF02850C2ECF4
:101608000EF0236A020E226EAAEC0CF0236A020E78
:10161800226E58EC0BF0410EC2EC0EF02650C2ECD4
:101628000EF0236A020E226EB3EF0CF063516211C2
:1016380017E0010E646F04D0D89062376337642BCB
:1016480063AFFAD76251605D6351615904E3625137
:10165800605F6351615BD89063336233642FF2D764
:1016680060C060F061C061F01200F29E0101395162
:10167800381107E10001ED51EF1902E1EC51EE19C3
:1016880011E138C162F239C163F209C03CF10AC004
:101698003DF10101386B396B62C209F063C20AF08F
:1016A8000001F981F28E1200010E746F8188828028
:1016B800838C838E08D0829014D0839C12D0839E12
:1016C80010D081980ED022C024F023C025F02550D8
:1016D80008E12450F0E0010AF0E0030AF0E0010A12
:1016E800F0E0120060C062F061C063F0060ED890AE
:1016F80062376337E82EFBD762C064F063C065F0D9
:1017080065C074FF64C062F0D8906233D8906233C9
:10171800300E62177350CF0B6211736E120060C0E7
:1017280062F061C063F0060ED89062376337E82E26
:10173800FBD762C064F063C065F065C0B8FF64C0E1
:1017480062F0D8906233D8906233300E6217B75087
:10175800CF0B6211B76E120060C062F061C063F017
:10176800060ED89062376337E82EFBD762C064F064
:1017780063C065F065C071FF64C062F0D8906233E1
:10178800D8906233300E62177050CF0B6211706EB2
:10179800120022C024F023C025F0060ED89024366B
:1017A8002536E82EFBD724C026F025C027F027C011
:1017B80074FF26C024F0D8902432D8902432300EFA
:1017C80024167350CF0B2410736E120022C024F01D
:1017D80023C025F0060ED89024362536E82EFBD7F0
:1017E80024C026F025C027F027C0B8FF26C024F063
:1017F800D8902432D8902432300E2416B750CF0B0C
:101808002410B76E120022C024F023C025F0060E63
:10181800D89024362536E82EFBD724C026F025C0DC
:1018280027F027C071FF26C024F0D8902432D89022
:101838002432300E24167050CF0B2410706E120014
:10184800010166510DE00201466B476B486B496B1D
:101858003A6B3B6B3C6B3D6B366B376B386B396B5C
:101868007AEC0AF09AEC0AF0BAEC0AF016EC0FF0EF
:1018780001012C6B2D6B12000001676F696B6651BB
:1018880014E0010E686F03D0D8906637682B66AFF6
:10189800FBD7D89069376651675D03E36651675F88
:1018A8006981D8906633682FF4D76951120020EE09
:1018B80060F011D820EE62F00ED820EE64F00BD85C
:1018C80020EE66F06051D9266151DA2262C0DEFF4F
:1018D80063C0DDFF12006051D9266151DA22DE6A49
:1018E800DD6A12000001656B360E646F000E676BCF
:1018F800666B696B686BCFECF1F0050EE1EC0EF0EE
:10190800000E616B606BDAEC0AF01DEC0FF0000161
:10191800616B606B99EF0CF008D0828014D0838CD7
:1019280012D0838E10D081880ED060C062F061C062
:1019380063F0635108E16251F0E0010AF0E0030A44
:10194800F0E0010AF0E00101746B120008D0828017
:1019580014D0838C12D0838E10D081880ED022C0F0
:1019680024F023C025F0255008E12450F0E0010AB6
:10197800F0E0030AF0E0010AF0E00101746B1200E4
:10198800DCFEFBFF37FFFBFFFBFFE3FEB5FF29FF94
:101998009DFFDDFFD5FE30FF3EFF62FC46FC2AFCC2
:1019A8000EFC1CFC38FC54FC14FF29FF22FF1BFF13
:1019B8000ED007EC0EF00009FCE166C0D9FF67C045
:1019C800DAFFDF503AEC0EF00001664B672B66C079
:1019D800D9FF67C0DAFFDF50D8B41200EAD71F6A10
:1019E800206A0001F86BF96B1D6A1E6A01012C6BF5
:1019F8002D6B9AEC0AF016EC0FF0000E0001626FE6
:101A0800FD0E616F120E606F4DEF0FF0625160C0F6
:101A1800D9FF61C0DAFFDF6205D061C061F060C044
:101A280060F00AD060C0D9FF61C0DAFF604B612B5B
:101A3800DF50ECE1606B616B120061C067F060C061
:101A480066F008D066C0D9FF67C0DAFF62C0DFFF62
:101A5800664B672B6407D8A0650700016429D8B4D2
:101A68006529D8B41200EED778C0D9FF79C0DAFF5B
:101A7800DECF7AF0DDCF7BF020EE04F07851D92666
:101A88007951DA227AC0E1FF7BC0E2FFDFCFE7FFBE
:101A98001200F6F718F8FEFD34FEF5FD2BFEFBFFED
:101AA800FBFFFBFFFBFF4BF85CF807FE10FE29F875
:101AB800D4F719FE3DFEC3F707F86CA2FED761C044
:101AC800D9FF62C0DAFFDF50ACEC0EF0000161C054
:101AD800D9FF62C0DAFF614B622BDF50D8B4120025
:101AE800ECD7616F080E626F636BD8906135633510
:101AF800636FD89061376051635D02E36051635F43
:101B0800622FF3D763511200606F6051360BB16ECC
:101B1800B36AB26AA19260AF02D0A08201D0A0924B
:101B280060A102D0B18E01D0B19EB1801200606F69
:101B380060517E0BCD6E60AD02D0CD8E01D0CD9EB2
:101B4800CF6ACE6A9E9060AF02D09D8001D09D90F2
:101B5800CD80120060516203F3CF64F0F4CF65F0DA
:101B680060516303F350652761516203F3506527A1
:101B780064C060F065C061F012000001616B030E83
:101B8800606FDAEC0AF0110E69EC0EF0E40E69EC05
:101B98000EF00001616B030E606F99EF0CF000010D
:101BA800606F976A60518009856E8994899285EC87
:101BB8000EF0898685EC0EF0899685EC0EF0976814
:101BC8001200F20E010176176BAC03D076916BB060
:101BD80076816BB476856BB276876ECF60F0000144
:101BE800605112000001606F976A60C085FF899498
:101BF800899285EC0EF0898685EC0EF0899685EC45
:101C08000EF0976812008984899285EC0EF0898617
:101C180085EC0EF085AE04D089968994010E03D028
:101C280089968994000E1200606F0C0E706EB1AC2C
:101C3800B1B605D0CA9460C0CBFFCA8404D07694EC
:101C480060C077FF768498981200606F0C0E736EF0
:101C58009896B1ACB1B605D0CA9460C0CBFFCA841F
:101C680004D0769460C077FF768412000001606F1C
:101C7800976A60C085FF8982899485EC0EF0898611
:101C880085EC0EF08996899297681200606F0C0EA9
:101C9800B76EB1ACB1B605D0CA9460C0CBFFCA84E8
:101CA80004D0769460C077FF768412000001606FDC
:101CB80060517F0BD56ED76AD66AF29460AF02D0B6
:101CC800F28A01D0F29AD58E12000001606FC950D5
:101CD8009E96C69E60C0C9FFC6AE02D0FF0E03D056
:101CE8009EA6FED7000E12000001616F0D0E606FF8
:101CF800FC0EE82EFED7602FFCD70001612FF6D727
:101D0800120000F000F000F000F000F000F000F029
:101D180000F000F000F000F000F01200606F605179
:101D2800FB0B766E786AA49660AF02D0A38601D0CA
:101D3800A3967684120000F000F000F000F000F0A6
:101D480000F000F000F000F000F000F000F01200E9
:101D58000001606F6CAC04D06C90010176B36C80AC
:101D680060C06DFF120060C03EF2020161C03FF228
:101D7800406B416B010E01018E6F010C226EC95040
:101D88009E96C69E22C0C9FFC6BE02D09EA6FED79A
:101D9800120078C0D9FF79C0DAFFDECF60F0DDCF5E
:101DA80061F0DAEF0AF0606F60510F0BBD6E60AF43
:101DB80002D09E949D84948412000001606FFA0EF4
:101DC80000F0E82EFDD70001602FF9D71200A150CE
:101DD800BBCF24F0BCCF25F024C022F025C023F0CF
:101DE80012009E50BECF24F0BFCF25F024C022F0B1
:101DF80025C023F01200ABBCAB50AB50AB50AECFFC
:101E080060F060511200010E0101746F81888280B8
:101E1800838C838E010C21BC04D0010172514BECE0
:101E28000FF01200776B320E766F796B786BE2EFFA
:101E3800F3F0C9509E96C96A9EA6FED7C9501200F3
:101E4800010E01016A6F010C7694A3961200B190FD
:101E5800A0921200CD909D901200D59EF29A120089
:101E6800A090BA6A12009D94BD6A1200736B219CFF
:101E780012004B0EE1EF0EF0706A1200736A120046
:101E8800B76A1200B40C12001200120012001200FD
:041E98001200120022
:10BEC000004D44002406004D5300701A00575300E3
:10BED00000FF0152530100FF013151006CE60132B5
:10BEE00051016CE6013351026CE6014C51036CE6E2
:10BEF00001324C036CE6014151046CE601435105EB
:10BF00006CE6015451066CE6015351076CE60134AE
:10BF100051086CE6014E51096CE601315600B0D271
:10BF200001325601B0D201335602B0D2014C560351
:10BF3000B0D201334C03B0D201345604B0D2014127
:10BF40005605B0D201315700CC0000325701CC0069
:10BF500000335702CC00004C5703CC0000344C0394
:10BF6000CC0000345704CC0000415705CC000054ED
:10BF700053004818005343009A1D005245007EC2EA
:10BF8000015745017EC2015445027EC2015045035E
:10BF90007EC2015345047EC201534900CC090043CF
:10BFA0004401CC0900445302CC09004441002ACA90
:10BFB000014541012ACA015341022ACA01414203F3
:10BFC0002ACA014641042ACA01444806B0D20143A4
:10BFD0005800B41400545801B414004359007414A8
:10BFE0000054590174140058430098D40159430176
:10BFF00098D40154430298D40142430398D4014693
:10C00000430498D4014E430598D40149430698D47B
:10C010000148430798D40156430898D40131430995
:10C0200098D401584E001C0000594E011C000054C9
:10C030004E021C0000424E031C0000534E041C0024
:10C0400000524D001E1E00534600481E003158414C
:10C05000C4E701325842C4E701335843C4E7014101
:10C060005844C4E701485845C4E7014C5846C4E762
:10C0700001505847C4E701535848C4E7015658498E
:10C08000C4E7014F584AC4E70152584BC4E7013195
:10C090005961C4E701325962C4E701335963C4E707
:10C0A00001415964C4E701485965C4E7014C596628
:10C0B000C4E701505967C4E701535968C4E7015602
:10C0C0005969C4E7014F596AC4E70152596BC4E783
:10C0D00001534430C4E701535331C4E701434F35A2
:10C0E000C4E701534F36C4E701424B0044F7014314
:10C0F0004B0144F7014F5000980500544C33C4E7FE
:10C1000001534D34C4E701000000901E0000000000
:10C110000000000006000000000005000000000014
:10C120000400000000000300000000000200000006
:10C1300000000100000000000000000000000000FE
:10C140000000000006120C00000005110B000000AA
:10C1500004100A000000030F09000000020E08008E
:10C160000000010D070000000000000000000000BA
:10C1700000000000000000000000000000000000BF
:10C1800000000000000000000000000000000000AF
:10C19000000000000000000000000000000000009F
:10C1A0000000000006120C00000005110B0000004A
:10C1B00004100A000000030F09000000020E08002E
:10C1C0000000010D0700000000000000000000005A
:10C1D0000000000006120C00000005110B0000001A
:10C1E00004100A000000030F09000000020E0800FE
:10C1F0000000010D0700000000000000000000002A
:10C20000000000000000000000000000000000002E
:10C21000000000000000000000000000000000001E
:10C220000000000000000000000000000006000008
:10C23000050C05000506000C110600060B000000A9
:10C240000000000000000000000C06000C0C0601BD
:10C250000D0C06020E0C06030F0C0604100C06054E
:10C26000110205000502030104020102030C05008E
:10C27000050D0301040E01020302050C1102030D5A
:10C280001002010E0F0205060B0203070A02010845
:10C29000091201001168006E00820069009D0064AF
:10C2A00000B7005F00D1005A00EB005500050150B7
:10C2B0000020014B003A014600540141006E013C50
:10C2C0000088013700A3013200BD012D00D70128ED
:10C2D00000F101230001021E002502190040021492
:10C2E000005A020F0074020A008E02050074030057
:10C2F00000650000A50000350100200200200400B8
:10C300002008002010002020002040002080002075
:10C31000000120000220000420000820001020005E
:10C3200020FF03E0025002E0019801600136012085
:10C33000011001F800F000D800D800D8000000007B
:10C340000085038002E00198016001500130012066
:10C35000010801F800EC00D800D800D80000000067
:10C36000000D06000A1717171717171714171717B6
:10C3700017171700000F14191E23282D32373C41C0
:10C38000464B505AC0FE40FFC4FF00003C00C000B6
:10C3900040012800320032C80000000000060606F6
:10C3A000060400BC01BE01EAE608BC01BE016AE861
:10C3B00008BC01BE01EAE9083E3B3D372F1F0040A3
:10C3C000105028006000258403BAFEFD2D00600097
:10C3D000213002BAFEFD320060001AB801BAFEFD3B
:10C3E0002300400029DA02BAFEFE2800360027FEAC
:10C3F00001BAFEFE2D00320025A401BAFEFE320075
:10C400002900225401BAFEFE37002700212C01BA70
:10C41000FEFE3C0025001AF000BAFEFE28003600A1
:10C4200029A802BAFEFF2D003200271202BAFEFF31
:10C4300032002900257C01BAFEFF370027002218B0
:10C4400001BAFEFF3C002500210401BAFEFF4100B5
:10C4500022001AC800BAFEFF2800320032B004BA27
:10C46000FE002D002900292602BAFE003200270016
:10C4700027A401BAFE0037002500255401BAFE00AA
:10C480003C00220022DC00BAFE004100210021C84D
:10C4900000BAFE0046001A001A9600BAFE002800F4
:10C4A000290036C003BAFE012D002700320C03BA62
:10C4B000FE013200250029C201BAFE013700220028
:10C4C000271801BAFE013C002100250E01BAFE0129
:10C4D00041001A0022A000BAFE012300290040EC0E
:10C4E00004BAFE0228002700364803BAFE022D00D7
:10C4F0002500328002BAFE0232002200294001BA31
:10C50000FE023700210027F000BAFE023C001A00AC
:10C5100025A000BAFE022D002100607404BAFE03BB
:10C5200032001A00609402BAFE030000000000000E
:10C5300000000000000000000000000000000000FB
:10C5400000000000000000000000000000000000EB
:10C5500000000000000000000000000000000000DB
:10C5600000000000000000000000000000000000CB
:10C5700000000000000000000000000000000000BB
:10C5800000000000000000000000000000000000AB
:10C59000000000000000000000000000000000009B
:10C5A000000000000000000000000000000000008B
:10C5B00000000000000028006000257A033AFFFD1B
:10C5C0002D0060002126023AFFFD320060001AAE05
:10C5D000013AFFFD2300400029D0023AFFFE280067
:10C5E000360027F4013AFFFE2D003200259A013A69
:10C5F000FFFE32002900224A013AFFFE37002700E1
:10C600002122013AFFFE3C0025001AE6003AFFFE17
:10C6100028003600299E023AFFFF2D00320027082D
:10C62000023AFFFF320029002572013AFFFF37006E
:10C630002700220E013AFFFF3C00250021FA003AB4
:10C64000FFFF410022001ABE003AFFFF280032001F
:10C6500032A6043AFF002D002900291C023AFF00EF
:10C6600032002700279A013AFF0037002500254AAB
:10C67000013AFF003C00220022D2003AFF004100B4
:10C68000210021BE003AFF0046001A001A8C003A31
:10C69000FF002800290036B6033AFF012D002700CD
:10C6A0003202033AFF013200250029B8013AFF01A6
:10C6B00037002200270E013AFF013C00210025042B
:10C6C000013AFF0141001A002296003AFF012300BF
:10C6D000290040E2043AFF0228002700363E033AD0
:10C6E000FF022D0025003276023AFF0232002200BE
:10C6F0002936013AFF023700210027E6003AFF02FF
:10C700003C001A002596003AFF022D002100606AC5
:10C71000043AFF0332001A00608A023AFF03000065
:10C720000000000000000000000000000000000009
:10C7300000000000000000000000000000000000F9
:10C7400000000000000000000000000000000000E9
:10C7500000000000000000000000000000000000D9
:10C7600000000000000000000000000000000000C9
:10C7700000000000000000000000000000000000B9
:10C7800000000000000000000000000000000000A9
:10C790000000000000000000000000000000000099
:10C7A000000000000000000000002800600025706C
:10C7B00003BDFFFD2D006000211C02BDFFFD320006
:10C7C00060001AA401BDFFFD2300400029C602BD80
:10C7D000FFFE2800360027EA01BDFFFE2D003200D3
:10C7E000259001BDFFFE32002900224001BDFFFE61
:10C7F00037002700211801BDFFFE3C0025001ADC90
:10C8000000BDFFFE28003600299402BDFFFF2D0069
:10C81000320027FE01BDFFFF32002900256801BD5F
:10C82000FFFF37002700220401BDFFFF3C00250069
:10C8300021F000BDFFFF410022001AB400BDFFFF40
:10C8400028003200329C04BDFF002D00290029126F
:10C8500002BDFF0032002700279001BDFF00370016
:10C860002500254001BDFF003C00220022C800BD7C
:10C87000FF004100210021B400BDFF0046001A0066
:10C880001A8200BDFF002800290036AC03BDFF015D
:10C890002D00270032F802BDFF013200250029AE2D
:10C8A00001BDFF0137002200270401BDFF013C004C
:10C8B000210025FA00BDFF0141001A00228C00BDB5
:10C8C000FF012300290040D804BDFF0228002700F3
:10C8D000363403BDFF022D002500326C02BDFF027D
:10C8E00032002200292C01BDFF023700210027DC85
:10C8F00000BDFF023C001A00258C00BDFF022D0088
:10C900002100606004BDFF0332001A00608002BD98
:10C91000FF03000000000000000000000000000015
:10C920000000000000000000000000000000000007
:10C9300000000000000000000000000000000000F7
:10C9400000000000000000000000000000000000E7
:10C9500000000000000000000000000000000000D7
:10C9600000000000000000000000000000000000C7
:10C9700000000000000000000000000000000000B7
:10C9800000000000000000000000000000000000A7
:10C99000000000000000000000000000000028006F
:10C9A00060002570037700FD2D006000211C0277D8
:10C9B00000FD320060001AA4017700FD2300400052
:10C9C00029C6027700FE2800360027EA017700FE1C
:10C9D0002D0032002590017700FE32002900224010
:10C9E000017700FE370027002118017700FE3C0088
:10C9F00025001ADC007700FE280036002994027713
:10CA000000FF2D00320027FE017700FF32002900D1
:10CA10002568017700FF370027002204017700FF17
:10CA20003C00250021F0007700FF410022001AB4ED
:10CA3000007700FF28003200329C047700002D00B0
:10CA40002900291202770000320027002790017781
:10CA50000000370025002540017700003C0022003F
:10CA600022C8007700004100210021B400770000B7
:10CA700046001A001A82007700002800290036AC10
:10CA8000037700012D00270032F802770001320001
:10CA9000250029AE01770001370022002704017725
:10CAA00000013C00210025FA0077000141001A0036
:10CAB000228C007700012300290040D8047700026F
:10CAC000280027003634037700022D002500326C41
:10CAD0000277000232002200292C01770002370081
:10CAE000210027DC007700023C001A00258C00772B
:10CAF00000022D00210060600477000332001A005C
:10CB000060800277000300000000000000000000C9
:10CB10000000000000000000000000000000000015
:10CB20000000000000000000000000000000000005
:10CB300000000000000000000000000000000000F5
:10CB400000000000000000000000000000000000E5
:10CB500000000000000000000000000000000000D5
:10CB600000000000000000000000000000000000C5
:10CB700000000000000000000000000000000000B5
:10CB800000000000000000000000000000000000A5
:10CB9000000028006000257A03FA00FD2D006000E7
:10CBA000212602FA00FD320060001AAE01FA00FDF3
:10CBB0002300400029D002FA00FE2800360027F4A6
:10CBC00001FA00FE2D003200259A01FA00FE320023
:10CBD0002900224A01FA00FE37002700212201FA2B
:10CBE00000FE3C0025001AE600FA00FE2800360090
:10CBF000299E02FA00FF2D003200270802FA00FFEA
:10CC000032002900257201FA00FF37002700220EAA
:10CC100001FA00FF3C00250021FA00FA00FF410064
:10CC200022001ABE00FA00FF2800320032A604FAE1
:10CC300000002D002900291C02FA00003200270004
:10CC4000279A01FA000037002500254A01FA000062
:10CC50003C00220022D200FA00004100210021BE47
:10CC600000FA000046001A001A8C00FA00002800A2
:10CC7000290036B603FA00012D002700320203FA1C
:10CC800000013200250029B801FA00013700220016
:10CC9000270E01FA00013C002100250401FA0001E1
:10CCA00041001A00229600FA00012300290040E208
:10CCB00004FA000228002700363E03FA00022D0085
:10CCC0002500327602FA000232002200293601FAEB
:10CCD00000023700210027E600FA00023C001A009B
:10CCE000259600FA00022D002100606A04FA000374
:10CCF00032001A00608A02FA0003000000000000FF
:10CD00000000000000000000000000000000000023
:10CD10000000000000000000000000000000000013
:10CD20000000000000000000000000000000000003
:10CD300000000000000000000000000000000000F3
:10CD400000000000000000000000000000000000E3
:10CD500000000000000000000000000000000000D3
:10CD600000000000000000000000000000000000C3
:10CD700000000000000000000000000000000000B3
:10CD8000000000000000280060002584037A01FDF7
:10CD90002D0060002130027A01FD320060001AB8D7
:10CDA000017A01FD2300400029DA027A01FE280001
:10CDB000360027FE017A01FE2D00320025A4017AFB
:10CDC00001FE320029002254017A01FE37002700BB
:10CDD000212C017A01FE3C0025001AF0007A01FEA8
:10CDE0002800360029A8027A01FF2D003200271200
:10CDF000027A01FF32002900257C017A01FF370009
:10CE000027002218017A01FF3C0025002104017A45
:10CE100001FF410022001AC8007A01FF28003200F9
:10CE200032B0047A01002D0029002926027A01007F
:10CE30003200270027A4017A01003700250025547D
:10CE4000017A01003C00220022DC007A010041004E
:10CE5000210021C8007A010046001A001A96007AC3
:10CE600001002800290036C0037A01012D002700A7
:10CE7000320C037A01013200250029C2017A010136
:10CE8000370022002718017A01013C002100250EFD
:10CE9000017A010141001A0022A0007A0101230059
:10CEA000290040EC047A0102280027003648037A62
:10CEB00001022D0025003280027A01023200220098
:10CEC0002940017A01023700210027F0007A01028F
:10CED0003C001A0025A0007A01022D002100607498
:10CEE000047A010332001A006094027A0103000000
:10CEF0000000000000000000000000000000000032
:10CF00000000000000000000000000000000000021
:10CF10000000000000000000000000000000000011
:10CF20000000000000000000000000000000000001
:10CF300000000000000000000000000000000000F1
:10CF400000000000000000000000000000000000E1
:10CF500000000000000000000000000000000000D1
:10CF600000000000000000000000000000000000C1
:10CF70000000000000000000000023006000287A8C
:10CF8000039DFEFD280060002558029DFEFD2D003A
:10CF9000600021AE019DFEFD320060001A7C019D03
:10CFA000FEFD230040002980029DFEFE2800360081
:10CFB00027A4019DFEFE2D003200252C019DFEFEC2
:10CFC000320029002204019DFEFE3700270021DCEB
:10CFD000009DFEFE3C0025001AB4009DFEFE2800C8
:10CFE0003600291C029DFEFF2D00320027A4019D62
:10CFF000FEFF320029002554019DFEFF3700270067
:10D00000220E019DFEFF3C00250021C8009DFEFF71
:10D01000410022001AA0009DFEFF23003600367456
:10D02000049DFE0028003200325C039DFE002D00AE
:10D03000290029CC019DFE00320027002768019DB0
:10D04000FE00370025002522019DFE003C00220045
:10D0500022C8009DFE004100210021A0009DFE008D
:10D06000280029003634039DFE012D002700328060
:10D07000029DFE01320025002972019DFE0137004C
:10D08000220027DC009DFE013C00210025D2009DEE
:10D09000FE0141001A002250009DFE0123002900DC
:10D0A0004024049DFE022800270036E4029DFE0273
:10D0B0002D0025003230029DFE023200220029049C
:10D0C000019DFE023700210027C8009DFE023C00A2
:10D0D0001A0025A0009DFE022D00210060E8039D9E
:10D0E000FE0332001A00601C029DFE0300000000D7
:10D0F0000000000000000000000000000000000030
:10D10000000000000000000000000000000000001F
:10D11000000000000000000000000000000000000F
:10D1200000000000000000000000000000000000FF
:10D1300000000000000000000000000000000000EF
:10D1400000000000000000000000000000000000DF
:10D1500000000000000000000000000000000000CF
:10D16000000000000000000000000000000023009C
:10D17000600028700329FFFD28006000254E022969
:10D18000FFFD2D00600021A40129FFFD3200600099
:10D190001A720129FFFD2300400029760229FFFEB3
:10D1A00028003600279A0129FFFE2D003200252293
:10D1B0000129FFFE3200290022FA0029FFFE370074
:10D1C000270021D20029FFFE3C0025001AAA0029D1
:10D1D000FFFE2800360029120229FFFF2D00320031
:10D1E000279A0129FFFF32002900254A0129FFFF64
:10D1F0003700270022040129FFFF3C00250021BE43
:10D200000029FFFF410022001A960029FFFF23009A
:10D210003600366A0429FF00280032003252032902
:10D22000FF002D00290029C20129FF00320027003C
:10D23000275E0129FF003700250025180129FF007E
:10D240003C00220022BE0029FF004100210021965F
:10D250000029FF0028002900362A0329FF012D009C
:10D26000270032760229FF013200250029680129B2
:10D27000FF013700220027D20029FF013C002100D6
:10D2800025C80029FF0141001A0022460029FF019C
:10D2900023002900401A0429FF022800270036DA5B
:10D2A0000229FF022D00250032260229FF0232004A
:10D2B000220029FA0029FF023700210027BE002999
:10D2C000FF023C001A0025960029FF022D002100D4
:10D2D00060DE0329FF0332001A0060120229FF03F7
:10D2E000000000000000000000000000000000003E
:10D2F000000000000000000000000000000000002E
:10D30000000000000000000000000000000000001D
:10D31000000000000000000000000000000000000D
:10D3200000000000000000000000000000000000FD
:10D3300000000000000000000000000000000000ED
:10D3400000000000000000000000000000000000DD
:10D3500000000000000000000000000000000000CD
:10D36000000023006000286603B5FFFD2800600070
:10D37000254402B5FFFD2D006000219A01B5FFFD97
:10D38000320060001A6801B5FFFD23004000296CDF
:10D3900002B5FFFE28003600279001B5FFFE2D00E4
:10D3A0003200251801B5FFFE3200290022F000B539
:10D3B000FFFE3700270021C800B5FFFE3C00250016
:10D3C0001AA000B5FFFE28003600290802B5FFFFAD
:10D3D0002D003200279001B5FFFF320029002540C3
:10D3E00001B5FFFF3700270022FA00B5FFFF3C0020
:10D3F000250021B400B5FFFF410022001A8C00B5C2
:10D40000FFFF23003600366004B5FF00280032001D
:10D41000324803B5FF002D00290029B801B5FF00EF
:10D4200032002700275401B5FF0037002500250EE4
:10D4300001B5FF003C00220022B400B5FF0041000E
:10D440002100218C00B5FF0028002900362003B5FB
:10D45000FF012D002700326C02B5FF0132002500CC
:10D46000295E01B5FF013700220027C800B5FF0182
:10D470003C00210025BE00B5FF0141001A00223CFE
:10D4800000B5FF0123002900401004B5FF02280069
:10D49000270036D002B5FF022D002500321C02B550
:10D4A000FF023200220029F000B5FF023700210000
:10D4B00027B400B5FF023C001A00258C00B5FF021E
:10D4C0002D00210060D403B5FF0332001A0060086C
:10D4D00002B5FF0300000000000000000000000093
:10D4E000000000000000000000000000000000003C
:10D4F000000000000000000000000000000000002C
:10D50000000000000000000000000000000000001B
:10D51000000000000000000000000000000000000B
:10D5200000000000000000000000000000000000FB
:10D5300000000000000000000000000000000000EB
:10D5400000000000000000000000000000000000DB
:10D55000000000000000230060002866038300FD37
:10D56000280060002544028300FD2D006000219A00
:10D57000018300FD320060001A68018300FD230072
:10D580004000296C028300FE2800360027900183AA
:10D5900000FE2D0032002518018300FE3200290014
:10D5A00022F0008300FE3700270021C8008300FE20
:10D5B0003C0025001AA0008300FE28003600290840
:10D5C000028300FF2D0032002790018300FF32000C
:10D5D00029002540018300FF3700270022FA00833D
:10D5E00000FF3C00250021B4008300FF4100220021
:10D5F0001A8C008300FF230036003660048300008D
:10D60000280032003248038300002D00290029B889
:10D6100001830000320027002754018300003700F7
:10D620002500250E018300003C00220022B4008367
:10D63000000041002100218C008300002800290007
:10D640003620038300012D002700326C0283000185
:10D6500032002500295E018300013700220027C81F
:10D66000008300013C00210025BE00830001410031
:10D670001A00223C0083000123002900401004838B
:10D6800000022800270036D0028300022D0025006A
:10D69000321C028300023200220029F000830002C3
:10D6A0003700210027B4008300023C001A00258CBB
:10D6B000008300022D00210060D4038300033200A8
:10D6C0001A00600802830003000000000000000050
:10D6D000000000000000000000000000000000004A
:10D6E000000000000000000000000000000000003A
:10D6F000000000000000000000000000000000002A
:10D700000000000000000000000000000000000019
:10D710000000000000000000000000000000000009
:10D7200000000000000000000000000000000000F9
:10D7300000000000000000000000000000000000E9
:10D7400000000000000000000000230060002870BE
:10D75000030F01FD28006000254E020F01FD2D0082
:10D76000600021A4010F01FD320060001A72010F58
:10D7700001FD230040002976020F01FE280036003B
:10D78000279A010F01FE2D0032002522010F01FE14
:10D790003200290022FA000F01FE3700270021D2B3
:10D7A000000F01FE3C0025001AAA000F01FE280010
:10D7B00036002912020F01FF2D003200279A010FB7
:10D7C00001FF32002900254A010F01FF3700270021
:10D7D0002204010F01FF3C00250021BE000F01FFC4
:10D7E000410022001A96000F01FF23003600366A1E
:10D7F000040F0100280032003252030F01002D00F7
:10D80000290029C2010F010032002700275E010F05
:10D810000100370025002518010F01003C002200FF
:10D8200022BE000F0100410021002196000F0100DF
:10D8300028002900362A030F01012D002700327627
:10D84000020F0101320025002968010F0101370094
:10D85000220027D2000F01013C00210025C8000F43
:10D86000010141001A002246000F01012300290096
:10D87000401A040F01022800270036DA020F0102C5
:10D880002D0025003226020F01023200220029FA63
:10D89000000F01023700210027BE000F01023C00EB
:10D8A0001A002596000F01022D00210060DE030FF3
:10D8B000010332001A006012020F01030000000091
:10D8C0000000000000000000000000000000000058
:10D8D0000000000000000000000000000000000048
:10D8E0000000000000000000000000000000000038
:10D8F0000000000000000000000000000000000028
:10D900000000000000000000000000000000000017
:10D910000000000000000000000000000000000007
:10D9200000000000000000000000000000000000F7
:10D9300000000000000000000000000000002300C4
:10D940006000287A039B01FD280060002558029B97
:10D9500001FD2D00600021AE019B01FD3200600041
:10D960001A7C019B01FD230040002980029B01FEDF
:10D970002800360027A4019B01FE2D003200252C33
:10D98000019B01FE320029002204019B01FE3700A9
:10D99000270021DC009B01FE3C0025001AB4009BFF
:10D9A00001FE28003600291C029B01FF2D003200D9
:10D9B00027A4019B01FF320029002554019B01FF90
:10D9C00037002700220E019B01FF3C00250021C8E3
:10D9D000009B01FF410022001AA0009B01FF2300D1
:10D9E00036003674049B010028003200325C039B31
:10D9F00001002D00290029CC019B010032002700E5
:10DA00002768019B0100370025002522019B0100AA
:10DA10003C00220022C8009B01004100210021A0FF
:10DA2000009B0100280029003634039B01012D00D2
:10DA300027003280029B0101320025002972019BE0
:10DA400001013700220027DC009B01013C0021007E
:10DA500025D2009B010141001A002250009B0101C8
:10DA6000230029004024049B01022800270036E4FB
:10DA7000029B01022D0025003230029B0102320080
:10DA800022002904019B01023700210027C8009BC6
:10DA900001023C001A0025A0009B01022D0021007C
:10DAA00060E8039B010332001A00601C029B010323
:10DAB0000000000000000000000000000000000066
:10DAC0000000000000000000000000000000000056
:10DAD0000000000000000000000000000000000046
:10DAE0000000000000000000000000000000000036
:10DAF0000000000000000000000000000000000026
:10DB00000000000000000000000000000000000015
:10DB10000000000000000000000000000000000005
:10DB200000000000000000000000000000000000F5
:10DB3000000023006000288A027DFEFD28006000AE
:10DB400025E0017DFEFD2D0060002140017DFEFDF0
:10DB5000320060001A40017DFEFD1E0045003210BB
:10DB6000047DFEFE2300400029F4017DFEFE280016
:10DB700036002754017DFEFE2D0032002518017D60
:10DB8000FEFE3200290022C8007DFEFE2300400078
:10DB9000321A047DFEFF2800360029A4017DFEFF15
:10DBA0002D003200274A017DFEFF3200290025F0BA
:10DBB000007DFEFF3700270022B4007DFEFF23001A
:10DBC000360036E8037DFE002800320032BC027DBC
:10DBD000FE002D0029002940017DFE0032002700B3
:10DBE0002718017DFE003700250025E6007DFE0098
:10DBF000230032004088047DFE012800290036BC45
:10DC0000027DFE012D002700321C027DFE01320044
:10DC100025002918017DFE013700220027B4007D70
:10DC2000FE01230029004070037DFE02280027002A
:10DC30003658027DFE022D002500321C027DFE02B8
:10DC40003200220029DC007DFE023700210027A0DF
:10DC5000007DFE02230028006054067DFE0328009C
:10DC60002500609C047DFE032D00210060F8027DEC
:10DC7000FE0332001A0060F4017DFE030000000084
:10DC80000000000000000000000000000000000094
:10DC90000000000000000000000000000000000084
:10DCA0000000000000000000000000000000000074
:10DCB0000000000000000000000000000000000064
:10DCC0000000000000000000000000000000000054
:10DCD0000000000000000000000000000000000044
:10DCE0000000000000000000000000000000000034
:10DCF0000000000000000000000000000000000024
:10DD00000000000000000000000000000000000013
:10DD10000000000000000000000000000000000003
:10DD20000000000000002300600028800215FFFDB5
:10DD30002800600025D60115FFFD2D00600021366A
:10DD40000115FFFD320060001A360115FFFD1E00AF
:10DD5000450032060415FFFE2300400029EA0115A4
:10DD6000FFFE28003600274A0115FFFE2D00320075
:10DD7000250E0115FFFE3200290022BE0015FFFE10
:10DD80002300400032100415FFFF28003600299AB6
:10DD90000115FFFF2D00320027400115FFFF320063
:10DDA000290025E60015FFFF3700270022AA0015ED
:10DDB000FFFF2300360036DE0315FF002800320087
:10DDC00032B20215FF002D00290029360115FF008F
:10DDD00032002700270E0115FF003700250025DC43
:10DDE0000015FF0023003200407E0415FF012800CB
:10DDF000290036B20215FF012D002700321202154C
:10DE0000FF0132002500290E0115FF013700220015
:10DE100027AA0015FF012300290040660315FF0211
:10DE200028002700364E0215FF022D002500321271
:10DE30000215FF023200220029D20015FF0237002E
:10DE4000210027960015FF0223002800604A0615CE
:10DE5000FF032800250060920415FF032D00210018
:10DE600060EE0215FF0332001A0060EA0115FF039D
:10DE700000000000000000000000000000000000A2
:10DE80000000000000000000000000000000000092
:10DE90000000000000000000000000000000000082
:10DEA0000000000000000000000000000000000072
:10DEB0000000000000000000000000000000000062
:10DEC0000000000000000000000000000000000052
:10DED0000000000000000000000000000000000042
:10DEE0000000000000000000000000000000000032
:10DEF0000000000000000000000000000000000022
:10DF00000000000000000000000000000000000011
:10DF100000000000000000000000230060002876E0
:10DF200002B0FFFD2800600025CC01B0FFFD2D00F0
:10DF30006000212C01B0FFFD320060001A2C01B0FE
:10DF4000FFFD1E00450032FC03B0FFFE2300400031
:10DF500029E001B0FFFE28003600274001B0FFFE97
:10DF60002D003200250401B0FFFE3200290022B44A
:10DF700000B0FFFE23004000320604B0FFFF28007F
:10DF80003600299001B0FFFF2D003200273601B086
:10DF9000FFFF3200290025DC00B0FFFF370027001B
:10DFA00022A000B0FFFF2300360036D403B0FF00EC
:10DFB0002800320032A802B0FF002D002900292CD1
:10DFC00001B0FF0032002700270401B0FF00370036
:10DFD000250025D200B0FF0023003200407404B0B9
:10DFE000FF012800290036A802B0FF012D002700FC
:10DFF000320802B0FF0132002500290401B0FF0100
:10E000003700220027A000B0FF0123002900405C58
:10E0100003B0FF0228002700364402B0FF022D00A3
:10E020002500320802B0FF023200220029C800B0E9
:10E03000FF0237002100278C00B0FF0223002800D8
:10E04000604006B0FF0328002500608804B0FF038D
:10E050002D00210060E402B0FF0332001A0060E0EE
:10E0600001B0FF03000000000000000000000000FD
:10E0700000000000000000000000000000000000A0
:10E080000000000000000000000000000000000090
:10E090000000000000000000000000000000000080
:10E0A0000000000000000000000000000000000070
:10E0B0000000000000000000000000000000000060
:10E0C0000000000000000000000000000000000050
:10E0D0000000000000000000000000000000000040
:10E0E0000000000000000000000000000000000030
:10E0F0000000000000000000000000000000000020
:10E1000000000000000000000000000000002300EC
:10E1100060002876028E00FD2800600025CC018E6C
:10E1200000FD2D006000212C018E00FD32006000FA
:10E130001A2C018E00FD1E00450032FC038E00FEED
:10E140002300400029E0018E00FE28003600274011
:10E15000018E00FE2D0032002504018E00FE3200EB
:10E16000290022B4008E00FE230040003206048EF7
:10E1700000FF280036002990018E00FF2D0032009C
:10E180002736018E00FF3200290025DC008E00FFBB
:10E190003700270022A0008E00FF2300360036D46F
:10E1A000038E00002800320032A8028E00002D00ED
:10E1B0002900292C018E0000320027002704018E3F
:10E1C00000003700250025D2008E00002300320019
:10E1D0004074048E00012800290036A8028E000138
:10E1E0002D0027003208028E00013200250029048C
:10E1F000018E00013700220027A0008E00012300BD
:10E200002900405C038E0002280027003644028E5D
:10E2100000022D0025003208028E0002320022008A
:10E2200029C8008E000237002100278C008E0002D2
:10E23000230028006040068E000328002500608827
:10E24000048E00032D00210060E4028E00033200E2
:10E250001A0060E0018E00030000000000000000D2
:10E2600000000000000000000000000000000000AE
:10E27000000000000000000000000000000000009E
:10E28000000000000000000000000000000000008E
:10E29000000000000000000000000000000000007E
:10E2A000000000000000000000000000000000006E
:10E2B000000000000000000000000000000000005E
:10E2C000000000000000000000000000000000004E
:10E2D000000000000000000000000000000000003E
:10E2E000000000000000000000000000000000002E
:10E2F000000000000000000000000000000000001E
:10E300000000230060002880022901FD2800600031
:10E3100025D6012901FD2D0060002136012901FDCE
:10E32000320060001A36012901FD1E004500320648
:10E33000042901FE2300400029EA012901FE2800EA
:10E340003600274A012901FE2D003200250E012941
:10E3500001FE3200290022BE002901FE23004000F8
:10E360003210042901FF28003600299A012901FFF3
:10E370002D0032002740012901FF3200290025E647
:10E38000002901FF3700270022AA002901FF2300EE
:10E39000360036DE032901002800320032B202299D
:10E3A00001002D0029002936012901003200270033
:10E3B000270E012901003700250025DC0029010076
:10E3C00023003200407E042901012800290036B2D2
:10E3D000022901012D002700321202290101320019
:10E3E0002500290E012901013700220027AA002952
:10E3F00001012300290040660329010228002700AB
:10E40000364E022901022D00250032120229010296
:10E410003200220029D2002901023700210027966C
:10E420000029010223002800604A06290103280070
:10E4300025006092042901032D00210060EE0229CD
:10E44000010332001A0060EA012901030000000004
:10E4500000000000000000000000000000000000BC
:10E4600000000000000000000000000000000000AC
:10E47000000000000000000000000000000000009C
:10E48000000000000000000000000000000000008C
:10E49000000000000000000000000000000000007C
:10E4A000000000000000000000000000000000006C
:10E4B000000000000000000000000000000000005C
:10E4C000000000000000000000000000000000004C
:10E4D000000000000000000000000000000000003C
:10E4E000000000000000000000000000000000002C
:10E4F00000000000000023006000288A02C101FD26
:10E500002800600025E001C101FD2D0060002140D0
:10E5100001C101FD320060001A4001C101FD1E0071
:10E520004500321004C101FE2300400029F401C15E
:10E5300001FE28003600275401C101FE2D003200E3
:10E54000251801C101FE3200290022C800C101FEC8
:10E5500023004000321A04C101FF2800360029A41C
:10E5600001C101FF2D003200274A01C101FF320025
:10E57000290025F000C101FF3700270022B400C1A7
:10E5800001FF2300360036E803C1010028003200F5
:10E5900032BC02C101002D002900294001C1010047
:10E5A00032002700271801C101003700250025E6A9
:10E5B00000C1010023003200408804C1010128008D
:10E5C000290036BC02C101012D002700321C02C106
:10E5D000010132002500291801C101013700220084
:10E5E00027B400C1010123002900407003C10102CA
:10E5F00028002700365802C101022D002500321CD8
:10E6000002C101023200220029DC00C101023700F0
:10E61000210027A000C1010223002800605406C188
:10E62000010328002500609C04C101032D00210086
:10E6300060F802C1010332001A0060F401C1010355
:10E6400000000000000000000000000000000000CA
:10E6500000000000000000000000000000000000BA
:10E6600000000000000000000000000000000000AA
:10E67000000000000000000000000000000000009A
:10E68000000000000000000000000000000000008A
:10E69000000000000000000000000000000000007A
:10E6A000000000000000000000000000000000006A
:10E6B000000000000000000000000000000000005A
:10E6C000000000000000000000000000000000004A
:10E6D000000000000000000000000000000000003A
:10E6E000000000000000000000000001020304051B
:10E6F00001070001020304050607000306030606DE
:10E7000006060001050505060507000102030405CC
:10E7100006070004060604060606000202060606B0
:10E7200006060001020304050607000102030405B2
:10E7300006070001020304050607000102030405A1
:10E740000607000102030405060700010203040591
:10E750000607000102030405060700010203040581
:10E760000607000102030405060700010203040571
:10E770000607000102030405060700010203040561
:10E780000607000102030405060700010203040551
:10E790000607000102030405060700010203040541
:10E7A0000607000102030405060700010203040531
:10E7B0000607000102030405060700010203040521
:10E7C0000607000102030405060700010203040511
:10E7D0000607000102030405060700010203040501
:10E7E00006070001020304050607000102030405F1
:10E7F00006070001020304050607000102030405E1
:10E8000006070001020304050607000102030405D0
:10E8100006070001020304050607000102030405C0
:10E8200006070001020304050607000102030405B0
:10E8300006070001020304050607000102030405A0
:10E840000607000102030405060700010203040590
:10E85000060700010203040506070007070707056E
:10E860000607000102030405060700010203040570
:10E87000010700010203040506070003060306065C
:10E88000060600010505050605070001020304054B
:10E89000060700040606040606060002020606062F
:10E8A0000606000306030606060600030603060620
:10E8B0000606000306030606060600010203040519
:10E8C0000607000102030405060700010203040510
:10E8D0000607000102030405060700010203040500
:10E8E00006070001020304050607000102030405F0
:10E8F00006070001020304050607000102030405E0
:10E9000006070003060306060606000306030606BE
:10E9100006060003060306060606000102030405B8
:10E9200006070001020304050607000102030405AF
:10E93000060700010203040506070001020304059F
:10E94000060700010203040506070001020304058F
:10E95000060700010203040506070001020304057F
:10E96000060700030603060606060003060306065E
:10E970000606000306030606060600010203040558
:10E98000060700010203040506070001020304054F
:10E99000060700010203040506070001020304053F
:10E9A000060700010203040506070001020304052F
:10E9B000060700010203040506070001020304051F
:10E9C000060700010203040506070001020304050F
:10E9D00006070001020304050607000707070705ED
:10E9E00006070001020304050607000102030405EF
:10E9F00001070001020304050607000306030606DB
:10EA000006060001050505060507000102030405C9
:10EA100006070004060604060606000202060606AD
:10EA200006060001020304050607000102030405AF
:10EA3000060700010203040506070001020304059E
:10EA40000607000102030405060700030603060685
:10EA5000060600010203040506070001020304057F
:10EA6000060700010203040506070001020304056E
:10EA70000607000102030405060700030603060655
:10EA8000060600010203040506070001020304054F
:10EA9000060700010203040506070001020304053E
:10EAA0000607000102030405060700030603060625
:10EAB000060600010203040506070001020304051F
:10EAC000060700010203040506070001020304050E
:10EAD00006070001020304050607000306030606F5
:10EAE00006060001020304050607000102030405EF
:10EAF00006070001020304050607000102030405DE
:10EB000006070001020304050607000306030606C4
:10EB100006060001020304050607000102030405BE
:10EB200006070001020304050607000102030405AD
:10EB3000060700010203040506070001020304059D
:10EB4000060700010203040506070001020304058D
:10EB5000060700010203040506070007070707056B
:10EB60000607000102030405060700600000506765
:10EB7000000050520000004500005052000050427A
:10EB80000000004000005042000000380000003645
:10EB900000000038000000340000003200000034A3
:10EBA00000000030000000300000003200000029AA
:10EBB00000000029000000300000002800000028AC
:10EBC00000000029000000270000002700000028A6
:10EBD0000000002600000025000000260000502351
:10EBE00000000022000050230000502100000021FE
:10EBF00000005021000000200000001A0000501DFD
:10EC0000000050190000000000000000000000009B
:10EC100000000070007000700070007000700070E4
:10EC20000070006000600045004500400030003684
:10EC3000002800320025002900210027001A0025A5
:10EC4000001A0022001A0021001A001A001A001AE5
:10EC5000001A2D0025003280027A010237002700B9
:10EC6000222C010F01FF37002700224A01BDFFFFC0
:10EC700032002500294A0129FF01320029002568B8
:10EC8000010F01FF32002500290E017DFE01280041
:10EC90002900369E028E000128002900362A030F23
:10ECA000010128002900369E028E0001280029005B
:10ECB000369E02B0FF0128002900362003B5FF016F
:10ECC00028002900360C0383000132002900225459
:10ECD00001BDFFFE3200290025220115FFFF320091
:10ECE0002900224A017700FE320029002518012957
:10ECF00001FF3200290022360129FFFE32002900DF
:10ED00002236010F01FE320022002936017A01026B
:10ED10003700220027DC000F0101370027002230D6
:10ED200001BDFFFF3700270022180129FFFF3C002B
:10ED3000210025C8000F01012D0032002722017D8E
:10ED4000FEFF2D00210060C00329FF0328002700DB
:10ED500036F8020F01022800290036340329FF018A
:10ED60002D0025003280027700022800290036A2FB
:10ED7000037A0101280029003634038300013200A0
:10ED80002900225401BDFFFE37002700222201295D
:10ED9000FFFF3C002500210E017700FF3C0025000D
:10EDA0002104010F01FF32002900250E0115FFFF8C
:10EDB0002D003200254001C101FE37002700221836
:10EDC000017700FF3200220029FA000F0102320011
:10EDD0002900255401BDFFFF2D0025003290013A86
:10EDE000FF0223004000290802C101FE2300400069
:10EDF0003260048E00FF3700270021E6009DFEFEF2
:10EE00003C00250021C8001601FF32002700275EC4
:10EE1000013AFF003200250029040115FF013700E7
:10EE200025002522010001002D00250032E00130DF
:10EE300001023C00220022C800BAFE003C0025006E
:10EE400021B40029FFFF3700270021D3001601FE5F
:10EE50003C0025001AAA0029FFFE3700270022E601
:10EE6000003AFFFF3200270027040130010028008C
:10EE7000270036020329FF02280027003602030F6D
:10EE800001022800270036020329FF022D00250079
:10EE90003280027700022D00270032D0027A010171
:10EEA000230036003610047DFE00370022002718AC
:10EEB00001BDFF013700220027D20029FF013700E2
:10EEC00022002718015D0001320025002936010FBC
:10EED000010132002700275E013AFF0023003600BF
:10EEE00036E402C101003C001A0025A000BAFE026F
:10EEF000320025002922013AFF01320027002704B1
:10EF00000115FF003C00250021DC00BAFEFF3700A0
:10EF1000270021E6007F01FE3200290022040100C3
:10EF200001FE56312E302E333400680004091E5B7A
:10EF30003212140606063000000006060606060613
:10EF4000060606100080008000800000018000009E
:10EF50000300010008000800140010001800200041
:10EF600020005810001000800040000001800000C8
:10EF7000030001000800010014000100180008004F
:10EF80002000581000100080004000A00080008089
:10EF90000100010002000200030004000400100050
:10EFA0001000581000100080004000000180008018
:10EFB0000100010002000200030004000400100030
:10EFC0001000581000100080004000000180000078
:10EFD00003000100080004001000100014002000CD
:10EFE0001800581000100080004000000180000050
:10EFF00003000100080004001000040014000800D1
:10F00000180058100010008000400000010001208E
:10F01000010004800100080003000C00040010003F
:10F020001000580A0D496E76616C696420436F6D5B
:10F030006D616E643E0028003200329902000000CB
:10F040000A0D52454144593E000A0D0020000A0DA8
:10F050004E656172657374206C6F6320666F7220F9
:10F0600043757273686F742E7820616E64204375E7
:10F070007273686F742E79203D200055706772613D
:10F08000646520417661696C61626C6520436F6ED6
:10F09000746163740D4C6F62737465722053706F8A
:10F0A000727473000A0D4661727468657374206C23
:10F0B0006F6320666F722043757253686F742E7988
:10F0C0004C6F203D20000A0D4E65617265737420FF
:10F0D0006C6F6320666F722043757253686F742E75
:10F0E000784C6566743D20000A0D52616E646F6D48
:10F0F00020486F72697A6F6E74616C20285377654F
:10F10000657029204D6F6465000A0D6163745F703E
:10F11000726F6772616D2E666565645B707073688F
:10F120006F745F69785D3A20000A0D4C6172676503
:10F1300053706444726F705F546F702028756E66F0
:10F14000696C746572656429000A0D4C61726765AB
:10F1500053706444726F705F426F742028756E66DE
:10F16000696C746572656429000A0D5553415254E7
:10F1700032204F76657272756E206572726F7220E2
:10F18000636C65617265642E000A0D52616E646F76
:10F190006D20566572746963616C202844657074D3
:10F1A0006829204D6F6465000A0D4C6172676553D4
:10F1B000706444726F705F5A2028756E66696C7453
:10F1C0006572656429000A0D726E646D5F62617319
:10F1D000655F66656564735F696E646578203D2070
:10F1E000000A0D436F6D7061726520454550524FA6
:10F1F0004D20746F20464C415348000A0D506F77E4
:10F20000657220426173656C696E65722044726933
:10F210006C6C004F76657272756E206572726F72DB
:10F2200020636C65617265642E0A000A0D57616B7C
:10F2300065557020656C65765F636F72722E732002
:10F240003D20004472696C6C2053617665642074C3
:10F250006F204D616368696E65000A0D43757253D6
:10F26000686F742E6665656472617465203D200068
:10F270000A0D52616E646F6D20456C65766174692C
:10F280006F6E203D20000A0D41747461636B2F4442
:10F290006566656E64204472696C6C000A0D466F89
:10F2A000726568616E6420506C7573204472696C7D
:10F2B0006C000A0D4F7363696C6C61746520456C5A
:10F2C00065766174696F6E000A0D436C65617269E1
:10F2D0006E672070726F6772616D0A0D000A0D61B2
:10F2E00063745F70726F6772616D2E73686F743ACA
:10F2F00020000A0D496E7465726D656469617465FC
:10F30000204472696C6C000A0D4C61726765537021
:10F310006444726F705F41203D2030000A0D4C61E3
:10F3200072676553706444726F705F42203D203095
:10F33000000A0D4C6172676553706444726F705FB0
:10F3400043203D2030000A0D416C6C2D436F7572D7
:10F35000746572204472696C6C000A0D57524954EE
:10F360004520434F4C4C4953494F4E0A0D000A0D5E
:10F370000A0D0A0D57616B696E67205570202E2E9D
:10F380002E000A0D496E76616C6964204C6F6361D2
:10F3900074696F6E000A0D43757253686F742E782E
:10F3A0004C656674203D20000A0D4C617267655300
:10F3B000706444726F70203D2030000A0D46756CF9
:10F3C0006C2052616E646F6D204D6F6465000A0D94
:10F3D0004D6F6F6E62616C6C6572204472696C6C0B
:10F3E00000436C6561722050726F6772616D204DD1
:10F3F0006F6465000A0D576964652054776F204C6F
:10F40000696E650A0D000A0D4275696C64436D648E
:10F410002853435F583129000A0D42616C6C5469CE
:10F420006D65724F6E203D2030000A0D42616C6C9C
:10F4300054696D65724F6E203D20310055736572C1
:10F440002050726F6772616D204D6F6465000A0D08
:10F450004F7363696C6C61746520537765657000E8
:10F46000202020204D616368696E652020202020C7
:10F470000020202020466565646261636B202020A7
:10F48000200020202046656564204D6F746F722037
:10F4900020200020205377656570204D6F746F72B7
:10F4A000202020002020496E76616C696420446130
:10F4B000746120200020204F7665722D4375727292
:10F4C000656E742020002A2A2A2A204572726F72E3
:10F4D000202A2A2A2A2000506C6561736520547501
:10F4E000726E204F66662000546F702053657276EE
:10F4F00065204D6F746F722000426F7420536572E7
:10F500007665204D6F746F722000456C657661746E
:10F51000696F6E204D6F746F722000454C45563AEE
:10F520002020202020202020202020004C45465450
:10F5300059202020202020202020202000534C492A
:10F540004345522020202020202020202000322D42
:10F550004C494E453A2020202020202020200049E0
:10F560004E56414C494420202020202020202000BD
:10F570004752494E44455220202020202020202060
:10F5800000414456414E4345442020202020202065
:10F590002000415050524F4143482020202020203D
:10F5A000202000424547494E4E4552202020202031
:10F5B00020202000524E442044455054483A2020F8
:10F5C0002020202000524E442053574545503A20D9
:10F5D0002020202020004D4F4F4E42414C4C4552A0
:10F5E00020202020202000414C4C2D434F555254C8
:10F5F0004552202020202000494E5445524D45447C
:10F6000049415445202020200046554C4C59205259
:10F61000414E444F4D2020202000454C45563A2075
:10F62000203E202020203C202020004154544143F3
:10F630004B2F444546454E4420202000464F52451E
:10F6400048414E4420504C5553202020004645450B
:10F65000443A202020202020205345432000504FB2
:10F6600057455220424153454C494E4552200032A5
:10F670002D4C494E453A3E202020202020203C00A1
:10F68000524E442044455054483E20202020203CE7
:10F6900000524E442053574545503E202020202004
:10F6A0003C004C454654592020202020202020207A
:10F6B0003E3C00534C49434552202020202020202E
:10F6C000203E3C004752494E4445522020202020F5
:10F6D00020203E3C00414456414E434544202020DA
:10F6E0002020203E3C00415050524F4143482020B2
:10F6F000202020203E3C00424547494E4E455220A6
:10F7000020202020203E3C004D4F4F4E42414C4C8B
:10F710004552202020203E3C00414C4C2D434F556B
:10F72000525445522020203E3C00494E5445524DF3
:10F7300045444941544520203E3C0046554C4C59D7
:10F740002052414E444F4D20203E3C0041545441F4
:10F75000434B2F444546454E44203E3C00464F52C5
:10F760004548414E4420504C5553203E3C00504F9C
:10F7700057455220424153454C494E453E3C004678
:10F780004545443A20203E202020205345433C005C
:10F790004C4F4353202020202020202020202020B8
:10F7A000004C6F636174696F6E733A2020202020D3
:10F7B000200050726F6772616D204472696C6C2317
:10F7C000202000204E657874202B204261636B203E
:10F7D0002D2020005023202053484F542320204C1C
:10F7E0004F432320002A2041505020434F4E545273
:10F7F0004F4C202A200053504545443A20202020D9
:10F8000020204D504820003E4E455854202B204289
:10F8100041434B202D203C0053504545443A203E67
:10F82000202020204D50483C005023202053484F9A
:10F83000542320204C4F43203F0050232020536866
:10F840006F742320204C6F63203F00502320202022
:10F85000504C415920544F2052554E0050233E20C9
:10F860003C504C415920544F2052554E0050726527
:10F870007373202D20746F20657261736500507260
:10F880006573732061206C6F636174696F6E0074BF
:10F890006F205072676D2073686F742C206F720038
:10F8A0000A0D56657269667920454550524F4D20C4
:10F8B000000A0D496E76616C6964204D6574686F4D
:10F8C0006400322E2043616C69627261746520208D
:10F8D000202000312E2050726573732054455354FC
:10F8E00020202000342E20507265737320504C412C
:10F8F00059202020002020506C65617365207761BD
:10F9000069742E202000535441434B204F564552DA
:10F91000464C4F57202000332E2053656C6563748E
:10F92000204D6F64652020002042617474657279F7
:10F93000204C6576656C20200020536875747469CE
:10F940006E6720646F776E212000204261747465B9
:10F9500072793A20202020202520002043616C6904
:10F9600062726174696E672E2E2E20000A0D6C6F14
:10F9700063702D3E7370656564203D20000A0D4361
:10F98000757253686F742E794C6F203D20000A0DFC
:10F99000656C65765F636F72722E73203D20002068
:10F9A000544553542043414C494252415445200050
:10F9B00020202E202046542E204E454152455220D4
:10F9C00000282B29204E6F7420416C6C6F77656482
:10F9D0002000282D29204E6F7420416C6C6F7765B4
:10F9E0006420002D2D2D2D2D2D2D2D2D2D2D2D2D4A
:10F9F0002D2D2D0020202E202046542E2046415211
:10FA000054484552000A0D416476616E6365642076
:10FA10004472696C6C000A0D417070726F616368AA
:10FA2000204472696C6C000A0D426567696E6E65F0
:10FA300072204472696C6C00282B2920446973740D
:10FA4000616E636520206F7200282D292044697340
:10FA500074616E636520206F72002B2F2D20446926
:10FA60007374616E636520206F7200507573682037
:10FA70005445535420746F20747279002020202044
:10FA80002020202020202020202020200020202096
:10FA9000205048454E4F4D2031202020200020206E
:10FAA00020205048454E4F4D20322020202000205D
:10FAB000454C495445204752414E44205620200091
:10FAC00020506F7765722050726F626C656D2020D8
:10FAD0000020454C495445204752414E4420495648
:10FAE000200056657273696F6E20312E3232362EC9
:10FAF000303000454C495445204752414E44205631
