:040000000CEF00F011
:10000800D9CF3BF0DACF3CF0F3CF3DF0F5EDEFF090
:100018006DEFF6F055D8DF506D6F2A0EF66EC20EF2
:10002800C2EC9EF0F5CF68F06D51685D48E3300E84
:10003800665D000E67593BE243D82A0EF66EC20E83
:10004800C2EC9EF0F550606F616B66C062F067C0ED
:1000580063F0DCEC10F0280EF66EC20EF76E000EA0
:10006800F86E0900F5CF6AF00900F5CF6BF06D5115
:100078006A27000E6B2360516A2761516B236AC09F
:10008800F6FF6BC0F7FF000EF86E0800F5CFDFFF34
:10009800260EF66EC20EF76E000EF86E0900F5CF4A
:1000A800D9FF0900F5CFDAFF6DC0DFFF08D008D807
:1000B80067C06AF06AC06BF06C6B6B51DF6E120040
:1000C800240EF66EC20EF76E000EF86E0900F5CF1C
:1000D80068F00900F5CF69F068C0D9FF69C0DAFF98
:1000E800120000017C6F7CBF49D07C51800A740FDC
:1000F80045E201018D5142E08D6B00017C51606F3A
:10010800616B60BF6107636B5B0E626FDCEC10F0C4
:1001180060C07DF061C07EF00201265100017D279C
:100128000201275100017E23A1EC05F07F6B7DC001
:1001380064F07EC065F07F517825D96E000E792174
:10014800DA6EDF50666FB7ECF9F024D87F65EFD729
:100158007F6B15D81E0E23D8B7ECF9F01BD87F6536
:10016800F8D77F6B0CD83C0E1AD8B7ECF9F012D838
:100178007F65F8D7CFEC0FF07CC0F5F112007DC099
:1001880064F07EC065F07F5178257A6F000E792182
:100198007B6F120000017D4B7E2B7F2B1D0C7A2577
:1001A800D96E000E7B21DA6EDF50666F1200000EEA
:1001B8000001676FFA0E666FDF0E656F5DEC0BF07E
:1001C800000E0B5C200E0C5804E3020E716F000E3B
:1001D80003D0010E716F800E706F6B6BF00E6C6F39
:1001E8000BC06DF00CC06EF03AD8D8906E336D33FA
:1001F8006F2FFBD770516D2502015E6F00017151A1
:100208006E2102015F6F000E0001EC5D200EED59BA
:1002180004E3020E736F000E03D0010E736F800E9D
:10022800726F6B6BF00E6C6FECC06DF0EDC06EF022
:1002380016D8D8906E336D336F2FFBD772516D255A
:100248000201606F000173516E210201616F0101AB
:100258001951161117111811D8A41E8212006B51CA
:100268006D276C516E23070E6F6F070C000E00018F
:10027800676FEE0E666FCA0E656F5DEC0BF06C393A
:100288000F0B6D6F6E6B0F0E6D173BD8B5ECAAF0A8
:100298003FD8FBEC02F06CC06DF06DC06EF06F6B78
:1002A8000F0E6E176F6BE40E6E25F66EC10E6F2182
:1002B800B5ECAAF02DD8FBEC02F06BC06DF06CC069
:1002C8006EF0040E6F6FD8906E336D336F2FFBD7BF
:1002D8000F0E6D1716D8B5ECAAF01AD8FBEC02F081
:1002E8000F0E6B156D6F0DD8B5ECAAF011D8FBEC9D
:1002F80002F0000E676FFE0E666F770E656F5DEF9A
:100308000BF06E6BE40E6D25F66EC10E6E211200B9
:100318000800F5CF70F0040E0001616F900E606F59
:1003280070C062F01200060E0001616F000E606F6F
:1003380000EC12F060C065F061C066F03ED0060EB9
:100348000001616F000E606FDDEC07F0676F21A49C
:1003580021B633D0040E0001616F900E606F67C044
:1003680062F0FBEC02F0675135EC12F0676F6751F1
:100378000D0A03E067510A0A02E1676B218467519D
:100388002C0A02E1200E676F6751080A05E1010196
:1003980068510CE068070AD067511B0A03E10101A4
:1003A800686B04D014D867C0DFFF682B10D8DF6AE9
:1003B800200E686502D02184218800016507D8A035
:1003C80066076529D8B46629D8B41200B8D73A0E9A
:1003D80001016825D96EDA6A050EDA2212004FD0BB
:1003E80078C0D9FF79C0DAFFDECF60F0DDCF61F0E9
:1003F80019EC0EF020EE04F07851D9267951DA2262
:10040800DF50A7EC11F0000909E0000E0001676F4A
:10041800F20E666FCD0E656F5DEC0BF078C0D9FFFC
:1004280079C0DAFF0001DECF60F0DDCF61F0E9ECE2
:100438000FF02FD078C0D9FF79C0DAFFDECF60F097
:10044800DDCF61F019EC0EF07BEC12F000017C6F4F
:1004580078C0D9FF79C0DAFFDECF60F0DDCF61F078
:10046800E9EC0FF0000E0001676FEE0E666FCA0E22
:10047800656F5DEC0BF07C512CEC09F00AD076C06E
:100488007AF077C07BF07B5104E17A51A9E0010A48
:10049800D1E0120046D078C0D9FF79C0DAFF020156
:1004A800DECFD4F2DDCFD5F24CD078C0D9FF79C0F9
:1004B800DAFF0201DECFD2F2DDCFD3F242D078C02C
:1004C800D9FF79C0DAFF0201DECFCEF2DDCFCFF25D
:1004D80038D078C0D9FF79C0DAFF0201DECFD0F278
:1004E800DDCFD1F22ED0D4C2A2F1D5C2A3F1D2C2AF
:1004F800A0F1D3C2A1F1CEC29CF1CFC29DF1D0C26E
:100508009EF1D1C29FF101012F6B010E2E6F0201E6
:10051800D46BD56BD26BD36BCE6BCF6BD06BD16BEF
:1005280010D076C07AF077C07BF07B510AE17A511F
:10053800B2E0010ABAE0030AC2E0010ACAE0070A07
:10054800D2E0120041D0F9EC0DF050D078C0D9FFBC
:1005580079C0DAFFDECF7AF0DDCF7BF015ECD5F08D
:1005680045D078EC0EF068ECC5F0EEC06BF0EFC04B
:100578006CF03AEC01F0ECC06BF0EDC06CF06D6B18
:100588006E6BCAECF5F0E4C06BF0E5C06CF0E6C049
:100598006DF0E7C06EF0CAECF5F028D078EC0EF0FC
:1005A800EEC06BF0EFC06CF03AEC01F0ECD778C01D
:1005B800D9FF79C0DAFFDECFDCF0DECFDDF0DECFA9
:1005C800DEF0DECFDFF012D076C07AF077C07BF0B5
:1005D8007B510CE17A51BAE0010AB5E0030AC1E0A7
:1005E800010A04E0070ADAE0010AE1E0120020EE5D
:1005F80064F06051D9266151DA22DECF63F0DDCF95
:1006080064F06451800AF36E800EF35C5F0ED8B418
:10061800635D2DE220EE62F06051D9266151DA2245
:10062800DECF63F0DDCF64F063516025D96E64518D
:100638006121DA6E62C0DFFF20EE62F021D820EE81
:1006480064F01ED820EE62F06051D9266151DA229A
:100658005F0EDE16000EDD160BD8010ADD1002E172
:100668009D8805D005D8020ADD10D8B4A3881200E9
:1006780020EE66F06051D9266151DA22DE50120070
:100688006051D9266151DA22DE2A000EDD22000CE3
:1006980020EE64F02350D9262450DA22DECF26F04B
:1006A800DDCF27F02750800AF36E800EF35C5F0ED3
:1006B800D8B4265C2DE220EE62F02350D9262450CF
:1006C800DA22DECF26F0DDCF27F026502324D96E9C
:1006D80027502420DA6E25C0DFFF20EE62F021D8F3
:1006E80020EE64F01ED820EE62F02350D926245064
:1006F800DA225F0EDE16000EDD160BD8010ADD10B9
:1007080002E19D8805D005D8020ADD10D8B4A38877
:10071800120020EE66F02350D9262450DA22DE504B
:1007280012002350D9262450DA22DE2A000EDD22B8
:10073800000C69C06DF06AC06EF06DC060F06EC0EC
:1007480061F06BC062F06CC063F03EEC0CF060C00E
:100758006DF061C06EF0674B682B6E516D11EDE165
:1007680067C0D9FF68C0DAFF000EDF6A6707D8A044
:10077800680769C060F06AC061F06BC062F06CC065
:1007880063F059EC0EF060516F6F69C060F06AC099
:1007980061F06BC062F06CC063F03EEC0CF060C0BE
:1007A80069F061C06AF0090E6F6502D0070E6F2705
:1007B800300E6F2767C0D9FF68C0DAFF6FC0DFFF50
:1007C8006707D8A068076A516911D3E1674B682B9E
:1007D80012000001635160116111621105E1606B43
:1007E800616B626B636B42D06C6B6D6B6CC064F059
:1007F8006DC065F0D89064376537B10E6425F66E24
:10080800C10E6521B5ECAAF00900F5CF66F0090024
:10081800F5CF67F06651686F6751696F6A6B6B6BEC
:100828006851605D695161596A5162596B516359E8
:100838000EE3020E6C25646F000E6D21656F64C0B7
:1008480060F065C061F0000E61BFFF0E0DD06C4B0B
:100858006D2B6D51800A800F0E0ED8B46C5DC6E307
:10086800060E606F000E616F626F636F1200776B28
:100878007551800AF36E800EF35C000ED8B4745D77
:1008880006E2746D751FD8B0752B010E776F735122
:10089800800AF36E800EF35C000ED8B4725D06E237
:1008A800726D731FD8B0732B010E771B786B796B41
:1008B800755174111BE0010E766F04D0D89074370F
:1008C8007537762B75AFFAD7D89078377937745152
:1008D800725D7551735905E37451725F7551735B9D
:1008E8007881D89075337433762FEED7775104E03A
:1008F800786D791FD8B0792B78C072F079C073F011
:100908001200626F856A976A92949292929689947D
:10091800899289969FEC12F0300E13EC11F0050EB7
:10092800B6EC11F0300E13EC11F0010EB6EC11F02C
:10093800320E13EC11F024EC11F00009FCE124EC68
:1009480011F00009FCE10001625113EC11F024ECF4
:1009580011F00009FCE1080E13EC11F024EC11F081
:100968000009FCE10F0E13EC11F024EC11F0000962
:10097800FCE1010E13EC11F024EC11F00009FCE18C
:10098800130E13EC11F024EC11F00009FCE1800EB9
:1009980001EF11F06B6F6E6B6BC060F0616B010E55
:1009A800636FF40E626FDCEC10F06E510A0D430EAB
:1009B800696FC20E6A6FF3506927F4506A23605159
:1009C80069256C6F61516A216D6F090E6C25696F1D
:1009D800000E6D216A6F69C0F6FF6AC0F7FF000E4E
:1009E800F86E0800F550671910E16CC0F6FF6DC08D
:1009F800F7FF000EF86E0800F550661906E1685119
:100A0800D96EDA6A6EC0DFFF05D06E2B6E51800A90
:100A18004E0FC2E36E51800A4E0F010ED8B0000E81
:100A280012000101B66709D0030E0001796F540E58
:100A3800786F0101F55175EC00F0806AC69A4F0E87
:100A4800AB16AC9ACF0E9D164F0E6B166C9ACF0E46
:100A5800A316A4EC12F0A6EC12F0A2EC12F08AECA9
:100A680012F099EC12F090EC12F096EC12F08DEC7A
:100A780012F0C26A90EC12F093EC12F0806A816A6C
:100A8800826A836A846A856A866A926A010E936EAC
:100A9800946A956A966A976A986AD190F29EF29CCF
:100AA800F292F288030000F0F292F29812007D515F
:100AB8007C113EE07DC061F07CC060F07EC062F0D9
:100AC800636B4CEC10F060C084F061C085F0855118
:100AD800841126E084C0D9FF85C0DAFF000EDF6EDE
:100AE800844B852B7F5124E07DC065F07CC064F089
:100AF800BAECFAF064C080F065C081F066C082F09C
:100B080067C083F07F51D96EDA6A80C0DEFF81C08A
:100B1800DEFF82C0DEFF83C0DDFFD906D90608D01C
:100B28007CC0D9FF7DC0DAFFDF5002E07F51DCE1F5
:100B380085C07DF084C07CF01200150E776F3BD025
:100B4800656B350E646F000E676B666B696B686B5F
:100B5800C6ECF3F0050E3FEC12F0000E616B606B13
:100B680019EC0EF07BEC12F00001776F000E616B50
:100B7800606BE9EC0FF0050E3FEC12F0000E616BB4
:100B8800606B19EC0EF07BEC12F00001766F000E32
:100B9800616B606BE9EC0FF000017751150A03E017
:100BA8007651150A08E1000E676FFF0E666FCA0ED0
:100BB800656F5DEC0BF07751150AC2E07651150AA6
:100BC800D8A41200BDD7776B7351800AF36E800EDC
:100BD800F35C000ED8B4725D06E2726D731FD8B074
:100BE800732B010E776F7551800AF36E800EF35CDC
:100BF800000ED8B4745D04E2746D751FD8B0752BFF
:100C08007551741117E0010E766F04D0D8907437BF
:100C18007537762B75AFFAD77451725D7551735964
:100C280004E37451725F7551735BD89075337433F4
:100C3800762FF2D7775104E0726D731FD8B0732BFB
:100C480072C072F073C073F012006A6F6D6B6AC085
:100C580060F0616B010E636FF40E626FDCEC10F0F4
:100C68006D510A0D430E686FC20E696FF350682705
:100C7800F4506923605168256B6F615169216C6F6D
:100C8800090E6B25686F000E6C21696F68C0F6FF4E
:100C980069C0F7FF000EF86E0800F55067190AE101
:100CA8006BC0F6FF6CC0F7FF000EF86E0800F55039
:100CB800661905E06D2B6D51800A4E0FC8E36D5122
:100CC800800A4E0F010ED8B0000E120001016F51BC
:100CD800340AD8B421AC05D0000E0001656F020EAD
:100CE80030D0735113E129D0646B656B1ED0656BEE
:100CF800030E646F1A8A19D0656B040E646F1A8C20
:100D080014D0656B050E646F1A8AF9D773510C0BF2
:100D18000001626F636B635108E16251E5E0040A08
:100D2800E6E00C0AE9E0040AECE0655164110AE027
:100D3800F26708D0010EF26F05D0000E0001656F52
:100D4800010E646F64C060F065C061F012000101BB
:100D58008F6706D00001616B010E606FF5EC11F032
:100D68003EC260F03FC261F040C262F041C263F02F
:100D78006D0E0001646F4E0E656FC60E666F410EF4
:100D8800676F84EC0BF060C06EF061C06FF062C0FA
:100D980070F063C071F0390E6E2502013E6F300E9F
:100DA80000016F2102013F6F000E00017021020156
:100DB800406F000E000171210201416F4051000196
:100DC8006C6F7F0E0201411500016D6F120078C033
:100DD800D9FF79C0DAFFDECF7BF0DECF7CF0DECF43
:100DE8007DF0DECF7EF07F6B806B7FC07AF00F0ED8
:100DF8007A1707E17BC06BF07CC06CF03AEC01F02D
:100E08000ED07FC07AF0030E7A1709E1040E0001B4
:100E1800616F900E606F200E626FFBEC02F07B51E9
:100E2800D96EDA6ADF502CEC09F07B2B000E7C239C
:100E38007D237E237F4B802B8051800A800F800E7C
:100E4800D8B47F5DD2E326ECFDF05DEF0BF02FD038
:100E5800F29EEEC036F20201EFC037F2386B396B02
:100E6800EEC03AF2EFC03BF23C6B3D6BF28E2BD0FA
:100E780046C26BF047C26CF03AEC01F03AC26BF034
:100E88003BC26CF03CC26DF03DC26EF0CAECF5F0AE
:100E980036C26BF037C26CF038C26DF039C26EF0F2
:100EA800CAECF5F010D0010E0101696F0CD076C0C4
:100EB8007AF077C07BF07B5106E17A51C9E0010AEC
:100EC800D7E0030AF0E01200696B6A6B6B6B6C6B1E
:100ED800675164116511661129E0010E686F06D02B
:100EE800D8906437653766376737682B67AFF8D7A8
:100EF800D89069376A376B376C376451605D6551D4
:100F08006159665162596751635909E36451605FD9
:100F18006551615B6651625B6751635B6981D8901B
:100F28006733663365336433682FE2D769C060F08E
:100F38006AC061F06BC062F06CC063F012001D9073
:100F48001EB620D0010148510001686F25D868C03D
:100F580001F069C002F06AC003F06BC004F001013F
:100F680048510001686F18D868C005F069C006F0DC
:100F78006AC007F06BC008F007C060F008C061F0F5
:100F8800D2EC0EF06751661104E01EA61E841E9274
:100F980002D01E821E941200010149510001696F9E
:100FA8006A6B6B6B69C06BF068C06AF0696B686BE1
:100FB8001200646B20EE64F06051D9266151DA2288
:100FC800DE50DD102EE020EE60F06051D926615130
:100FD800DA22DECF62F0DDCF63F062516025D96E90
:100FE80063516121DA6EDF50646F20EE60F060516A
:100FF800D9266151DA22DE2A000EDD2220EE64F0C5
:101008006051D9266151DA22DE06000EDD5A20EE43
:1010180060F06051D9266151DA225F0EDE16000EAB
:10102800DD1664511200266A20EE64F02250D9269B
:101038002350DA22DE50DD102EE020EE60F0225040
:10104800D9262350DA22DECF24F0DDCF25F0245034
:101058002224D96E25502320DA6EDF50266E20EE2A
:1010680060F02250D9262350DA22DE2A000EDD2233
:1010780020EE64F02250D9262350DA22DE06000E34
:10108800DD5A20EE60F02250D9262350DA225F0E76
:10109800DE16000EDD162650120000017FC091F00A
:1010A80080C092F0000E92BFFF0E936F946F81C0C4
:1010B80085F082C086F0000E86BFFF0E876F886FAE
:1010C8008551896F86518A6F8B6B8C6B83518D6FBD
:1010D80084518E6F8F6B906B8EC090F08DC08FF0A7
:1010E8008E6B8D6B89518D11956F8A518E11966F0C
:1010F8008B518F11976F8C519011986F776B4B0EA6
:10110800766F796B910E786F7AEFF4F000017FC0FB
:1011180091F080C092F0000E92BFFF0E936F946F13
:1011280081C085F082C086F0000E86BFFF0E876FF3
:10113800886F8551896F86518A6F8B6B8C6B835151
:101148008D6F84518E6F8F6B906B8EC090F08DC0B9
:101158008FF08E6B8D6B89518D11956F8A518E1121
:10116800966F8B518F11976F8C519011986F776B89
:101178006B0E766F796B910E786F7AEFF4F0F2510F
:1011880033E1000E676FFC0E666FE20E656F5DEC73
:101198000BF004500110021003101EE06BC06FF03A
:1011A8006CC070F06DC071F06EC072F070C072F0FB
:1011B8006FC071F0706B6F6B6FC001F070C002F0A0
:1011C80071C003F072C004F0000E676FFF0E666F07
:1011D800860E656F5DEC0BF06BC016F16CC017F1F5
:1011E8006DC018F16EC019F112001E921D901EB646
:1011F80021D0010148510001666F1DD866C001F079
:1012080067C002F068C003F069C004F01E840101E1
:1012180048510001666F0FD866C005F067C006F038
:1012280068C007F069C008F007C060F008C061F046
:10123800D2EC0EF01200010149510001676F686B92
:10124800696B67C069F066C068F0676B666B12000F
:101258000001676F673926D8B5ECAAF00800F5CF0A
:1012680068F0040E616F900E606F68C062F0FBEC6E
:1012780002F0675117D8B5ECAAF00800F5CF68F06E
:10128800040E0001616F900E606F68C062F0FBECA5
:1012980002F0040E0001616F900E606F200E626F05
:1012A800FBEF02F00F0B656F666BE40E6525F66EBB
:1012B800C10E66211200656F6C6A6B6A65B16C8835
:1012C80065A302D06C8C6B8C65B56C8E65A702D05B
:1012D8006B8801D06B8A65A902D06C8401D06C94AC
:1012E80065BB6B8665AD02D0A38A01D0A39A65AFB2
:1012F80002D0A38801D0A39860C06FFF61C062F0DC
:1013080062C063F0646B63517D6E6C8A6B8E9892D9
:1013180098846CB86CBE01D0988212001BD024EC63
:1013280011F00009FCE1000161C0F6FF62C0F7FF9F
:10133800000EF86E0F0EF76403D00800F55005D0C4
:10134800F6CFE9FFF7CFEAFFEF5068EC11F00001A4
:10135800614B622B61C0F6FF62C0F7FF000EF86EAA
:101368000F0EF76403D00800F55005D0F6CFE9FF5B
:10137800F7CFEAFFEF500009D8B41200D0D77FF4B6
:101388000090F40019F4002AF400A1F40000000011
:101398000000000000000000000000000000000045
:1013A8000000000000000000000000000000C7FE70
:1013B800CEFED5FEDCFEE3FEEAFE68FF06FF74FF04
:1013C8006EFFB2FE0DFF1BFF4DFC31FC15FCF9FB57
:1013D80007FC23FC3FFCF1FE06FFFFFEF8FE67C09A
:1013E8006DF066C06CF016D06A07D8A06B0768C0AD
:1013F800F6FF69C0F7FF684B692B000EF86E6CC0EA
:10140800D9FF6DC0DAFF6C4B6D2B0800F5CFDFFFFD
:10141800DF500BE06B516A1108E0E6D76CC0D9FFCA
:101428006DC0DAFFDF6A6C4B6D2B6A07D8A06B07BB
:1014380000016A29D8B46B29D8B41200EFD7656FB8
:10144800AC6AAB6A65B1AC8865A302D0AC8CAB8CD6
:1014580065B5AC8E65A702D0AB8801D0AB8A65B9FB
:10146800AC8465BBAB8665AD02D09D8A01D09D9AE0
:1014780065AF02D09D8801D09D9860C0AFFF61C064
:1014880062F062C063F0646B63517F6EAC8AAB8EAE
:10149800949C948EACB8ACBE01D0948C12008DF79D
:1014A800AFF7B2F4B1F5DBFD11FEB7FDC0FD1BFAD5
:1014B800C9FDE4F516F75CF528F64BF517F6E5F4E3
:1014C80006F6A0F5D2F607F55BF6F5F505F77EF515
:1014D800B0F629F57DF6C2F5E3F6D3F5F4F63AF55C
:1014E8008EF68FF5C1F618F56CF66DF59FF6D4F407
:1014F8004AF6C3F439F6F6F4F6F461C065F060C054
:1015080064F002D0644B652B64C0D9FF65C0DAFF74
:10151800DF5006E0F7D70001644B652B624B632B65
:1015280062C0F6FF63C0F7FF000EF86E64C0D9FF13
:1015380065C0DAFF0F0EF76403D00800F55005D038
:10154800F6CFE9FFF7CFEAFFEF50DF6EDF50D8B4F0
:101558001200E1D700017F6F7FAF28D0B5EC0FF004
:10156800020E866F7FC079F115C07AF18451020AA4
:1015780003E08451050A07E1000E0001676B666B02
:1015880054ECFFF013D08451040A03E08451030A99
:1015980007E1000E0001676B666BEDECFEF006D00C
:1015A800000E0001676B666B0EEC00F012006BC05A
:1015B80016F16CC017F16DC018F16EC019F1045026
:1015C8000110021003101EE06BC06FF06CC070F0C9
:1015D8006DC071F06EC072F070C072F06FC071F0C3
:1015E800706B6F6B6FC001F070C002F071C003F0D8
:1015F80072C004F0000E676FFF0E666FC00E656F55
:101608005DEC0BF01200000E81B0010E0101B86F05
:10161800B75121EEB8F0DF6208D01D0EB6651BD0B9
:10162800BAC1B9F1B8C1BAF116D0000E02016C5DA9
:10163800800E6D5902E26C4B6D2B010188670AD050
:10164800B80508E1050EB66505D07B5103E0010E2B
:10165800666F816FB66BB8C1B7F1120000017A519D
:101668000201565D00017B51020157591FE3010138
:10167800622B625100017C6F7D6B01012C510001CE
:101688007C5D01012D5100017D5912E3000E776B3D
:10169800766B796B786B63EC0FF02CC162F1198073
:1016A8000001F26705D0010EF26F02D00101626BF2
:1016B8001200040E0001616F900E606F65C0F6FFA6
:1016C80066C0F7FF67C0F8FF0800F5CF62F0FBECD3
:1016D80002F020EE65F0DFCF68F0DE2ADECF69F099
:1016E800DDCF6AF0000EDE22DF2268C0F6FF69C097
:1016F800F7FF6AC0F8FF0800F550D8B41200D9D730
:10170800686B696B6A6B6B6B60A108D06451682762
:101718006551692366516A2367516B23D8906437F2
:10172800653766376737D890633362336133603320
:101738006351601161116211E7E168C060F069C02E
:1017480061F06AC062F06BC063F0120079C06CF09F
:1017580078C06BF0340E6D6F3BECFBF07D6F320E92
:101768007D5D15E279C06CF078C06BF07AC060F0EE
:101778007BC061F07DC062F0636B59EC0EF0605184
:101788006D6F3BECFBF07C6F7CC07DF002D0320EBD
:101798007D6F7D51120067C06CF066C06BF007D09A
:1017A80000016B4B6C2B682B000E69236A2368C001
:1017B800F6FF69C0F7FF6AC0F8FFF8BA03D008005F
:1017C800F55005D0F6CFE9FFF7CFEAFFEF506BC031
:1017D800D9FF6CC0DAFFDF6EDF50D8B41200E0D753
:1017E800616B020E606F19EC0EF0400EA7EC11F061
:1017F80000016651A7EC11F00001616B020E606FE9
:10180800E9EC0FF00001616B020E606F19EC0EF04D
:10181800410EA7EC11F000016451A7EC11F0000192
:10182800616B020E606FF2EF0FF00D500201F65D72
:101838000E50F7591BE3F8510D5CF9510E5816E399
:101848000001EE510201EE5D0001EF510201EF5976
:101858000DE3F0510001EE5D0201F1510001EF5975
:1018680005E3000E616F010E606F03D00001606B2D
:10187800616B1200656B666B635162111BE0010EB0
:10188800646F04D0D89062376337642B63AFFAD79C
:10189800D890653766376251605D6351615905E3D9
:1018A8006251605F6351615B6581D89063336233D5
:1018B800642FEED765C060F066C061F012000001C9
:1018C8006D6F6F6B010E6E6F6E516D1511E06F517C
:1018D800110DAF0EF3240001666F030EF420676F3D
:1018E800000E6A6FFA0E696F130E686FCFEC0BF07B
:1018F80000016F2BD8906E37030E6F65E5D7010E88
:101908000101816F010C616B010E606F65EC12F0D3
:10191800838C839C030EA7EC11F0000165C066F070
:1019280066C067F0686B6751A7EC11F0000164515D
:10193800A7EC11F07BEC12F00001696F838C616BEE
:10194800010E606FE9EC0FF0000169511200626F3F
:101958003F0EC716C66A6251C6126151C71205D03A
:10196800C78C0FD0C78CC6880CD06051F9E0020A2A
:10197800F9E0010AF8E005D0978E948608D094968D
:1019880006D06251040AF8E0010AF7E0F8D7948813
:10199800949AC68A1200706F6EC066F06FC067F0C6
:1019A800705129EC06F0716F130416E1716709D0C4
:1019B8006EC066F06FC067F07051060F29EC06F034
:1019C800716F716709D06EC066F06FC067F07051B3
:1019D8000C0F29EC06F0716F715112007351800AD7
:1019E800F36E800EF35C000ED8B4725D0CE270C02A
:1019F800D9FF71C0DAFF2D0EDF6E704B712B726D3F
:101A0800731FD8B0732B71C068F070C067F072C0D4
:101A180069F073C06AF074C06BF075C06CF09DEF2C
:101A280003F061C063F060C062F003D00001624B54
:101A3800632B62C0F6FF63C0F7FF000EF86E0F0E4F
:101A4800F76403D00800F55005D0F6CFE9FFF7CFCB
:101A5800EAFFEF500009EAE100016051625D606F42
:101A680061516359616F1200626F62510F0BBA6E58
:101A7800050EF66EF76A300EF86E0800F5CF60F0C6
:101A880060A102D0616901D0616B040EF66E000E90
:101A9800F76E300EF86E62AF02D0A190A08061514F
:101AA80002E0948201D0968E12008DF7AFF7DBFD2D
:101AB80011FED2FD08FEEDFFEDFFEDFFEDFFE2F7B1
:101AC800F3F7E4FDEDFDC0F76BF7F6FD1AFE5AF7E4
:101AD8009EF7502500E4CA014EDE014ABD01188375
:101AE80001AA41015C1500DAA40114D078C0D9FF1D
:101AF80079C0DAFF0201DECF02F2DDCF03F214D0A3
:101B080078C0D9FF79C0DAFF0201DECF08F2DDCF55
:101B180009F20AD076C07AF077C07BF07B5104E1F5
:101B28007A51E4E0010AECE0120014D078C0D9FF41
:101B380079C0DAFF0201DECF00F2DDCF01F214D066
:101B480078C0D9FF79C0DAFF0201DECF06F2DDCF17
:101B580007F20AD076C07AF077C07BF07B5104E1B7
:101B68007A51E4E0010AECE012001F0E0001686FF0
:101B7800E86BE96BEA6BEB6B0B6A0C6AE8C066F022
:101B8800E9C067F0D89066376737D8906637673707
:101B980066C060F067C061F0B5EC0EF06851D96EB0
:101BA800DA6A000EDE6EDD6E000C1D0E0001686F35
:101BB8006851D96EDA6ADE6ADD6A016A026A036A06
:101BC800046A056A066A076A086A05C066F006C0FC
:101BD80067F0D89066376737D8906637673766C03A
:101BE80060F067C061F0D2EF0EF00001F80E686F88
:101BF800E46BE56BE66BE76BEC6BED6BE4C066F0F2
:101C0800E5C067F0D89066376737D890663767378A
:101C180066C060F067C061F0EFEC0EF06851D96EF5
:101C2800DA6A000EDE6EDD6E000C010E0101756FC2
:101C380081888280838C838E08D0829015D0839C83
:101C480013D0839E11D081980FD0000160C062F03C
:101C580061C063F0635108E16251EFE0010AEFE00F
:101C6800030AEFE0010AEFE01200236A020E226E77
:101C780097EC0EF0400E16EC12F0285016EC12F00D
:101C8800236A020E226E03EC10F0236A020E226E03
:101C980097EC0EF0410E16EC12F0265016EC12F0EE
:101CA800236A020E226E0CEF10F06351621117E0E6
:101CB800010E646F04D0D89062376337642B63AF2A
:101CC800FAD76251605D6351615904E36251605F04
:101CD8006351615BD89063336233642FF2D760C07D
:101CE80060F061C061F01200F29E010139513811B3
:101CF80007E10001ED51EF1902E1EC51EE1911E194
:101D080038C162F239C163F209C03CF10AC03DF141
:101D18000101386B396B62C209F063C20AF0000135
:101D2800F981F28E1200010E756F81888280838C92
:101D3800838E08D0829014D0839C12D0839E10D0BA
:101D480081980ED022C024F023C025F0255008E148
:101D58002450F0E0010AF0E0030AF0E0010AF0E0A4
:101D6800120060C062F061C063F0060ED89062375E
:101D78006337E82EFBD762C064F063C065F065C0C6
:101D880074FF64C062F0D8906233D8906233300E2A
:101D980062177350CF0B6211736E120060C062F04D
:101DA80061C063F0060ED89062376337E82EFBD720
:101DB80062C064F063C065F065C0B8FF64C062F0DB
:101DC800D8906233D8906233300E6217B750CF0B79
:101DD8006211B76E120060C062F061C063F0060E57
:101DE800D89062376337E82EFBD762C064F063C0CF
:101DF80065F065C071FF64C062F0D8906233D89016
:101E08006233300E62177050CF0B6211706E120081
:101E180022C024F023C025F0060ED890243625369B
:101E2800E82EFBD724C026F025C027F027C074FF72
:101E380026C024F0D8902432D8902432300E2416AC
:101E48007350CF0B2410736E120022C024F023C0ED
:101E580025F0060ED89024362536E82EFBD724C068
:101E680026F025C027F027C0B8FF26C024F0D89058
:101E78002432D8902432300E2416B750CF0B2410B9
:101E8800B76E120022C024F023C025F0060ED890A9
:101E980024362536E82EFBD724C026F025C027F0A7
:101EA80027C071FF26C024F0D8902432D89024325D
:101EB800300E24167050CF0B2410706E12000101E2
:101EC80069510DE00201466B476B486B496B3A6BF1
:101ED8003B6B3C6B3D6B366B376B386B396BB9ECD6
:101EE8000DF0D9EC0DF0F9EC0DF074EC12F00101E5
:101EF8002E6B2F6B12000001676F696B665114E03F
:101F0800010E686F03D0D8906637682B66AFFBD791
:101F1800D89069376651675D03E36651675F6981E9
:101F2800D8906633682FF4D76951120020EE60F01C
:101F380011D820EE62F00ED820EE64F00BD820EE17
:101F480066F06051D9266151DA2262C0DEFF63C0B3
:101F5800DDFF12006051D9266151DA22DE6ADD6A9E
:101F680012001F6A206A0001F86BF96B1D6A1E6A6D
:101F780001012E6B2F6BD9EC0DF074EC12F0000EF2
:101F88000001676FFC0E666FEF0E656F5DEC0BF07E
:101F98000101646B12000001656B360E646F000E60
:101FA800676B666B696B686BC6ECF3F0050E3FEC0C
:101FB80012F0000E616B606B19EC0EF07BEC12F006
:101FC8000001616B606BF2EF0FF008D0828014D0D3
:101FD800838C12D0838E10D081880ED060C062F0BE
:101FE80061C063F0635108E16251F0E0010AF0E07A
:101FF800030AF0E0010AF0E00101756B120008D055
:10200800828014D0838C12D0838E10D081880ED019
:1020180022C024F023C025F0255008E12450F0E028
:10202800010AF0E0030AF0E0010AF0E00101756B33
:102038001200B9FEEDFF14FFEDFFEDFFC0FE98FFA3
:1020480006FF7AFFDEFFB2FE0DFF1BFF4DFC31FCE1
:1020580015FCF9FB07FC23FC3FFCF1FE06FFFFFE25
:10206800F8FE0ED024EC11F00009FCE166C0D9FF9F
:1020780067C0DAFFDF5068EC11F00001664B672B90
:1020880066C0D9FF67C0DAFFDF50D8B41200EAD7BC
:10209800625160C0D9FF61C0DAFFDF6205D061C05C
:1020A80061F060C060F00AD060C0D9FF61C0DAFF9B
:1020B800604B612BDF50ECE1606B616B120061C01B
:1020C80067F060C066F008D066C0D9FF67C0DAFF65
:1020D80062C0DFFF664B672B6407D8A06507000165
:1020E8006429D8B46529D8B41200EED778C0D9FFCE
:1020F80079C0DAFFDECF7AF0DDCF7BF020EE04F096
:102108007851D9267951DA227AC0E1FF7BC0E2FF03
:10211800DFCFE7FF12006CA2FED761C0D9FF62C013
:10212800DAFFDF50EAEC11F0000161C0D9FF62C0AC
:10213800DAFF614B622BDF50D8B41200ECD7616F25
:10214800080E626F636BD89061356335636FD89002
:1021580061376051635D02E36051635F622FF3D7BB
:1021680063511200606F6051360BB16EB36AB26A88
:10217800A19260AF02D0A08201D0A09260A102D04B
:10218800B18E01D0B19EB1801200606F60517E0B9C
:10219800CD6E60AD02D0CD8E01D0CD9ECF6ACE6A15
:1021A8009E9060AF02D09D8001D09D90CD8012009E
:1021B80060516203F3CF64F0F4CF65F060516303BC
:1021C800F350652761516203F350652764C060F0DE
:1021D80065C061F012000001616B030E606F19ECBD
:1021E8000EF0110EA7EC11F0E40EA7EC11F00001AF
:1021F800616B030E606FF2EF0FF00001606F976A7A
:1022080060518009856E89948992C3EC11F08986A2
:10221800C3EC11F08996C3EC11F097681200000125
:10222800606F976A60C085FF89948992C3EC11F04A
:102238008986C3EC11F08996C3EC11F097681200F7
:1022480089848992C3EC11F08986C3EC11F085AEBC
:1022580004D089968994010E03D089968994000E3A
:102268001200606F0C0E706EB1ACB1B605D0CA9496
:1022780060C0CBFFCA8404D0769460C077FF7684B0
:1022880098981200606F0C0E736E9896B1ACB1B648
:1022980005D0CA9460C0CBFFCA8404D0769460C0CD
:1022A80077FF76841200F20E010177176BAC03D02A
:1022B80077916BB077816BB477856BB277876ECF88
:1022C80060F00001605112000001606F976A60C001
:1022D80085FF89828994C3EC11F08986C3EC11F0DB
:1022E8008996899297681200606F0C0EB76EB1AC30
:1022F800B1B605D0CA9460C0CBFFCA8404D0769426
:1023080060C077FF76841200F20E010177176BAC7C
:1023180003D077916BB077816BB477856BB2778791
:102328006ECF22F0225012000001606F60517F0BC7
:10233800D56ED76AD66AF29460AF02D0F28A01D01D
:10234800F29AD58E12000001606FC9509E96C69E03
:1023580060C0C9FFC6AE02D0FF0E03D09EA6FED74E
:10236800000E12000001616F0D0E606FFC0EE82E6A
:10237800FED7602FFCD70001612FF6D7120000F0BE
:1023880000F000F000F000F000F000F000F000F0C5
:1023980000F000F000F01200606F6051FB0B766EE9
:1023A800786AA49660AF02D0A38601D0A3967684FB
:1023B800120000F000F000F000F000F000F000F073
:1023C80000F000F000F000F000F012000001606F73
:1023D8006CAC04D06C90010177B36C8060C06DFF69
:1023E800120060C03EF2020161C03FF2406B416BD7
:1023F800010E01018F6F010C20EE64F06051D926A7
:102408006151DA22DECF60F0DDCF61F0120020EEFC
:1024180064F02250D9262350DA22DECF22F0DDCF15
:1024280023F01200226EC9509E96C69E22C0C9FF94
:10243800C6BE02D09EA6FED7120078C0D9FF79C0CA
:10244800DAFFDECF60F0DDCF61F019EF0EF0606FDC
:1024580060510F0BBD6E60AF02D09E949D84948432
:102468001200606F7B0E605D04E2600E606501D053
:10247800609B605112000001606FFA0E00F0E82EB8
:10248800FDD70001602FF9D71200A150BBCF24F06F
:10249800BCCF25F024C022F025C023F012009E50A6
:1024A800BECF24F0BFCF25F024C022F025C023F0F2
:1024B8001200ABBCAB50AB50AB50AECF60F060512C
:1024C8001200010E0101756F81888280838C838ED2
:1024D800010C21BC04D0010173512CEC09F012004D
:1024E800776B320E766F796B786B7AEFF4F0C950B0
:1024F8009E96C96A9EA6FED7C9501200010E010118
:102508006D6F010C606F60C07CFF12007694A3961B
:102518001200B190A0921200CD909D901200D59E0D
:10252800F29A1200A090BA6A12009D94BD6A120035
:10253800746B219C12004B0E3FEF12F0706A120070
:0C254800736A1200B76A12001200120041
:10BD3000004D4400D60D004D5300F4200057530031
:10BD4000E60300525301E6030031510044EA013298
:10BD5000510144EA0133510244EA014C510344EADF
:10BD600001324C0344EA0141510444EA01435105C4
:10BD700044EA0154510644EA0153510744EA0134AC
:10BD8000510844EA014E510944EA0131560078D184
:10BD90000132560178D10133560278D1014C560355
:10BDA00078D101334C0378D10134560478D1014164
:10BDB000560578D1013157004C05003257014C052A
:10BDC000003357024C05004C57034C0500344C031C
:10BDD0004C05003457044C05004157054C050054F0
:10BDE0005300C61E0053430042240052450002C6C1
:10BDF0000157450102C60154450202C601504503E0
:10BE000002C60153450402C601534900560E0043C1
:10BE10004401560E00445302560E0044410024CD06
:10BE20000145410124CD0153410224CD014142038A
:10BE300024CD0146410424CD0144480678D1014374
:10BE40005800321B00545801321B00435900F21AAB
:10BE500000545901F21A005843004CD701594301CC
:10BE60004CD7015443024CD7014243034CD70146FF
:10BE700043044CD7014E43054CD7014943064CD7E8
:10BE8000014843074CD7015643084CD701314309B9
:10BE90004CD701584E009C0400594E019C0400549C
:10BEA0004E029C0400424E039C0400534E049C042A
:10BEB00000524D00DA240053460004250031584159
:10BEC000F4E801325842F4E801335843F4E8014100
:10BED0005844F4E801485845F4E8014C5846F4E861
:10BEE00001505847F4E801535848F4E801565849BE
:10BEF000F4E8014F584AF4E80152584BF4E8013194
:10BF00005961F4E801325962F4E801335963F4E805
:10BF100001415964F4E801485965F4E8014C596657
:10BF2000F4E801505967F4E801535968F4E8015600
:10BF30005969F4E8014F596AF4E80152596BF4E881
:10BF400001534430F4E801535331F4E801434F35D1
:10BF5000F4E801534F36F4E801424B0066F901431F
:10BF60004B0166F9014F50002A0A00544C33F4E8A3
:10BF700001534D34F4E80100000052250000000098
:10BF800000000000060000000000050000000000A6
:10BF90000400000000000300000000000200000098
:10BFA0000000010000000000000000000000000090
:10BFB0000000000006120C00000005110B0000003C
:10BFC00004100A000000030F09000000020E080020
:10BFD0000000010D0700000000000000000000004C
:10BFE0000000000000000000000000000000000051
:10BFF0000000000000000000000000000000000041
:10C000000000000000000000000000000000000030
:10C010000000000006120C00000005110B000000DB
:10C0200004100A000000030F09000000020E0800BF
:10C030000000010D070000000000000000000000EB
:10C040000000000006120C00000005110B000000AB
:10C0500004100A000000030F09000000020E08008F
:10C060000000010D070000000000000000000000BB
:10C0700000000000000000000000000000000000C0
:10C0800000000000000000000000000000000000B0
:10C09000000000000000000000000000000600009A
:10C0A000050C05000506000C110600060B0000003B
:10C0B0000000000000000000000C06000C0C06014F
:10C0C0000D0C06020E0C06030F0C0604100C0605E0
:10C0D000110205000502030104020102030C050020
:10C0E000050D0301040E01020302050C1102030DEC
:10C0F0001002010E0F0205060B0203070A020108D7
:10C10000091201001168006E00820069009D006440
:10C1100000B7005F00D1005A00EB00550005015048
:10C120000020014B003A014600540141006E013CE1
:10C130000088013700A3013200BD012D00D701287E
:10C1400000F101230001021E002502190040021423
:10C15000005A020F0074020A008E020500740300E8
:10C1600000650000A5000035010020020020040049
:10C170002008002010002020002040002080002007
:10C1800000012000022000042000082000102000F0
:10C1900020FF03E0025002E0019801600136012017
:10C1A000011001F800F000D800D800D8000000000D
:10C1B0000085038002E001980160015001300120F8
:10C1C000010801F800EC00D800D800D800000000F9
:10C1D000000D06000A171717171717171417171748
:10C1E000171717003031323334353637383961623A
:10C1F0006364656600000F14191E23282D32373C36
:10C2000041464B505AC0FE40FFC4FF00003C00C0F6
:10C210000040012800320032C8000000000006067D
:10C2200006060400BC01BE016BE508BC01BE01EBC3
:10C23000E608BC01BE016BE8083E3B3D372F1F00FE
:10C2400040105028006000255C03C0FEFD2D0060FA
:10C2500000214402C0FEFD320060001A9A01C0FEB7
:10C26000FD2D00320025CC01C0FEFE320029002247
:10C270001801C0FEFE3700270021F000C0FEFE3C82
:10C280000025001AAA00C0FEFE280036002934034B
:10C29000C0FEFF2D003200274402C0FEFF320029FD
:10C2A00000256801C0FEFF37002700222C01C0FED8
:10C2B000FF3C002500210401C0FEFF410022001ABE
:10C2C000A000C0FEFF28003200322404C0FE002D72
:10C2D00000290029E001C0FE003200270027680184
:10C2E000C0FE0037002500252C01C0FE003C0022C6
:10C2F0000022C800C0FE004100210021A000C0FEB5
:10C300000046001A001A6E00C0FE00280029003600
:10C31000D403C0FE012D00270032D002C0FE01323E
:10C32000002500297C01C0FE0137002200272C01D6
:10C33000C0FE013C00210025C800C0FE0141001ADA
:10C3400000227800C0FE012D002500329402C0FEBC
:10C350000232002200294001C0FE023700210027DE
:10C36000F000C0FE023C001A0025A000C0FE023210
:10C37000001A00608002C0FE030000000000000000
:10C3800000000000000000000000000000000000AD
:10C39000000000000000000000000000000000009D
:10C3A000000000000000000000000000000000008D
:10C3B000000000000000000000000000000000007D
:10C3C000000000000000000000000000000000006D
:10C3D000000000000000000000000000000000005D
:10C3E000000000000000000000000000000000004D
:10C3F000000000000000000000000000000000003D
:10C40000000000000000000000000000000000002C
:10C41000000000000000000000000000000000001C
:10C42000000000000000000000000000000000000C
:10C43000000000000000002800600025520340FFBB
:10C44000FD2D006000213A0240FFFD320060001A1D
:10C45000900140FFFD2D00320025C20140FFFE3259
:10C46000002900220E0140FFFE3700270021E600D0
:10C4700040FFFE3C0025001AA00040FFFE280036C9
:10C4800000292A0340FFFF2D003200273A0240FF17
:10C49000FF32002900255E0140FFFF370027002200
:10C4A000220140FFFF3C00250021FA0040FFFF4130
:10C4B0000022001A960040FFFF28003200321A04C2
:10C4C00040FF002D00290029D60140FF003200273F
:10C4D00000275E0140FF003700250025220140FFB4
:10C4E000003C00220022BE0040FF0041002100214C
:10C4F000960040FF0046001A001A690040FF00281D
:10C5000000290036CA0340FF012D00270032C60271
:10C5100040FF013200250029720140FF013700224F
:10C520000027220140FF013C00210025BE0040FF02
:10C530000141001A00226E0040FF012D002500324B
:10C540008A0240FF023200220029360140FF0237F2
:10C5500000210027E60040FF023C001A002596005B
:10C5600040FF0232001A0060760240FF0300000024
:10C5700000000000000000000000000000000000BB
:10C5800000000000000000000000000000000000AB
:10C59000000000000000000000000000000000009B
:10C5A000000000000000000000000000000000008B
:10C5B000000000000000000000000000000000007B
:10C5C000000000000000000000000000000000006B
:10C5D000000000000000000000000000000000005B
:10C5E000000000000000000000000000000000004B
:10C5F000000000000000000000000000000000003B
:10C60000000000000000000000000000000000002A
:10C61000000000000000000000000000000000001A
:10C62000000000000000000000000028006000255D
:10C630004803C4FFFD2D006000213002C4FFFD321D
:10C640000060001A8601C4FFFD2D00320025B801EC
:10C65000C4FFFE32002900220401C4FFFE37002778
:10C660000021DC00C4FFFE3C0025001A9600C4FF38
:10C67000FE28003600292003C4FFFF2D00320027CA
:10C680003002C4FFFF32002900255401C4FFFF37E8
:10C69000002700221801C4FFFF3C00250021F00004
:10C6A000C4FFFF410022001A8C00C4FFFF280032A3
:10C6B00000321004C4FF002D00290029CC01C4FF62
:10C6C0000032002700275401C4FF00370025002551
:10C6D0001801C4FF003C00220022B400C4FF004146
:10C6E000002100218C00C4FF0046001A001A6400DB
:10C6F000C4FF002800290036C003C4FF012D002715
:10C700000032BC02C4FF0132002500296801C4FFC9
:10C710000137002200271801C4FF013C0021002539
:10C72000B400C4FF0141001A00226400C4FF012DBF
:10C73000002500328002C4FF0232002200292C01B1
:10C74000C4FF023700210027DC00C4FF023C001AAE
:10C7500000258C00C4FF0232001A00606C02C4FF86
:10C7600003000000000000000000000000000000C6
:10C7700000000000000000000000000000000000B9
:10C7800000000000000000000000000000000000A9
:10C790000000000000000000000000000000000099
:10C7A0000000000000000000000000000000000089
:10C7B0000000000000000000000000000000000079
:10C7C0000000000000000000000000000000000069
:10C7D0000000000000000000000000000000000059
:10C7E0000000000000000000000000000000000049
:10C7F0000000000000000000000000000000000039
:10C800000000000000000000000000000000000028
:10C8100000000000000000000000000000000028F0
:10C820000060002548037E00FD2D006000213002DD
:10C830007E00FD320060001A86017E00FD2D003270
:10C840000025B8017E00FE320029002204017E008E
:10C85000FE3700270021DC007E00FE3C0025001A88
:10C8600096007E00FE280036002920037E00FF2D62
:10C870000032002730027E00FF32002900255401DB
:10C880007E00FF370027002218017E00FF3C0025B4
:10C890000021F0007E00FF410022001A8C007E0083
:10C8A000FF280032003210047E00002D00290029EC
:10C8B000CC017E0000320027002754017E000037A3
:10C8C0000025002518017E00003C00220022B40053
:10C8D0007E000041002100218C007E000046001AED
:10C8E000001A64007E00002800290036C0037E0084
:10C8F000012D00270032BC027E00013200250029F4
:10C9000068017E0001370022002718017E00013CEB
:10C9100000210025B4007E000141001A00226400BD
:10C920007E00012D0025003280027E0002320022AE
:10C9300000292C017E00023700210027DC007E0048
:10C94000023C001A00258C007E000232001A0060B2
:10C950006C027E00030000000000000000000000E8
:10C9600000000000000000000000000000000000C7
:10C9700000000000000000000000000000000000B7
:10C9800000000000000000000000000000000000A7
:10C990000000000000000000000000000000000097
:10C9A0000000000000000000000000000000000087
:10C9B0000000000000000000000000000000000077
:10C9C0000000000000000000000000000000000067
:10C9D0000000000000000000000000000000000057
:10C9E0000000000000000000000000000000000047
:10C9F0000000000000000000000000000000000037
:10CA00000000000000000000000000000000000026
:10CA1000000000280060002552030001FD2D006089
:10CA200000213A020001FD320060001A900100016D
:10CA3000FD2D00320025C2010001FE320029002236
:10CA40000E010001FE3700270021E6000001FE3C38
:10CA50000025001AA0000001FE28003600292A0344
:10CA60000001FF2D003200273A020001FF320029A9
:10CA700000255E010001FF3700270022220100018E
:10CA8000FF3C00250021FA000001FF410022001AAE
:10CA900096000001FF28003200321A040001002D28
:10CAA00000290029D60100010032002700275E017D
:10CAB000000100370025002522010001003C002272
:10CAC0000022BE000001004100210021960000016B
:10CAD0000046001A001A69000001002800290036EB
:10CAE000CA030001012D00270032C60200010132F5
:10CAF00000250029720100010137002200272201D0
:10CB00000001013C00210025BE0000010141001A86
:10CB100000226E000001012D002500328A02000172
:10CB200002320022002936010001023700210027CD
:10CB3000E6000001023C001A0025960000010232C6
:10CB4000001A0060760200010300000000000000EF
:10CB500000000000000000000000000000000000D5
:10CB600000000000000000000000000000000000C5
:10CB700000000000000000000000000000000000B5
:10CB800000000000000000000000000000000000A5
:10CB90000000000000000000000000000000000095
:10CBA0000000000000000000000000000000000085
:10CBB0000000000000000000000000000000000075
:10CBC0000000000000000000000000000000000065
:10CBD0000000000000000000000000000000000055
:10CBE0000000000000000000000000000000000045
:10CBF0000000000000000000000000000000000035
:10CC00000000000000000028006000255C03800197
:10CC1000FD2D0060002144028001FD320060001AF9
:10CC20009A018001FD2D00320025CC018001FE32E9
:10CC30000029002218018001FE3700270021F000A2
:10CC40008001FE3C0025001AAA008001FE28003663
:10CC5000002934038001FF2D0032002744028001A7
:10CC6000FF320029002568018001FF3700270022DC
:10CC70002C018001FF3C0025002104018001FF41BF
:10CC80000022001AA0008001FF2800320032240494
:10CC90008001002D00290029E001800100320027D9
:10CCA0000027680180010037002500252C01800144
:10CCB000003C00220022C800800100410021002128
:10CCC000A00080010046001A001A6E0080010028B2
:10CCD00000290036D4038001012D00270032D00244
:10CCE00080010132002500297C01800101370022EA
:10CCF00000272C018001013C00210025C800800193
:10CD00000141001A002278008001012D0025003227
:10CD10009402800102320022002940018001023782
:10CD200000210027F0008001023C001A0025A0002D
:10CD300080010232001A00608002800103000000BE
:10CD400000000000000000000000000000000000E3
:10CD500000000000000000000000000000000000D3
:10CD600000000000000000000000000000000000C3
:10CD700000000000000000000000000000000000B3
:10CD800000000000000000000000000000000000A3
:10CD90000000000000000000000000000000000093
:10CDA0000000000000000000000000000000000083
:10CDB0000000000000000000000000000000000073
:10CDC0000000000000000000000000000000000063
:10CDD0000000000000000000000000000000000053
:10CDE0000000000000000000000000000000000043
:10CDF0000000000000000000000000280060002586
:10CE00009E02A4FEFD2D00600021E001A4FEFD3283
:10CE10000060001A8601A4FEFD2800360027EA0102
:10CE2000A4FEFE2D003200257C01A4FEFE32002966
:10CE30000022F000A4FEFE3700270021D200A4FE4D
:10CE4000FE3C0025001AA000A4FEFE2800360029A2
:10CE50008002A4FEFF2D00320027D601A4FEFF327F
:10CE6000002900254001A4FEFF370027002204010D
:10CE7000A4FEFF3C00250021B400A4FEFF410022D7
:10CE8000001A8C00A4FEFF28003200329803A4FE92
:10CE9000002D00290029A401A4FE0032002700274C
:10CEA0003601A4FE003700250025F000A4FE003C5A
:10CEB00000220022A000A4FE0041002100218C00DD
:10CEC000A4FE0028002900364803A4FE012D0027F7
:10CED00000328002A4FE0132002500294001A4FE98
:10CEE000013700220027DC00A4FE013C00210025C0
:10CEF000A000A4FE0141001A00228C00A4FE01281B
:10CF0000002700360C03A4FE022D00250032440247
:10CF1000A4FE0232002200290401A4FE02370021EF
:10CF20000027B400A4FE023C001A00258C00A4FED9
:10CF3000022D002100609803A4FE0332001A006055
:10CF40000802A4FE03000000000000000000000032
:10CF500000000000000000000000000000000000D1
:10CF600000000000000000000000000000000000C1
:10CF700000000000000000000000000000000000B1
:10CF800000000000000000000000000000000000A1
:10CF90000000000000000000000000000000000091
:10CFA0000000000000000000000000000000000081
:10CFB0000000000000000000000000000000000071
:10CFC0000000000000000000000000000000000061
:10CFD0000000000000000000000000000000000051
:10CFE0000000000000000000000000000000002D14
:10CFF00000600021D60130FFFD320060001A7C0184
:10D0000030FFFD2800360027E00130FFFE2D003202
:10D010000025720130FFFE3200290022E60030FFB9
:10D02000FE3700270021C80030FFFE3C0025001A13
:10D03000960030FFFE2800360029760230FFFF2DD3
:10D0400000320027CC0130FFFF32002900253601D5
:10D0500030FFFF3700270022FA0030FFFF3C002599
:10D060000021AA0030FFFF28003200328E0330FF7B
:10D07000002D002900299A0130FF003200270027E7
:10D080002C0130FF003700250025E60030FF003C72
:10D0900000220022960030FF004100210021820082
:10D0A00030FF0028002900363E0330FF012D002705
:10D0B0000032760230FF013200250029360130FFB0
:10D0C000013700220027D20030FF013C002100255B
:10D0D000960030FF0141001A0022820030FF012833
:10D0E00000270036020330FF022D002500323A02ED
:10D0F00030FF023200220029FA0030FF02370021FF
:10D100000027AA0030FF023C001A0025820030FFF1
:10D11000022D002100608E0330FF0332001A0060F0
:10D12000FE0130FF030000000000000000000000CE
:10D1300000000000000000000000000000000000EF
:10D1400000000000000000000000000000000000DF
:10D1500000000000000000000000000000000000CF
:10D1600000000000000000000000000000000000BF
:10D1700000000000000000000000000000000000AF
:10D18000000000000000000000000000000000009F
:10D19000000000000000000000000000000000008F
:10D1A000000000000000000000000000000000007F
:10D1B000000000000000000000000000000000006F
:10D1C000000000000000000000000000000000005F
:10D1D000000000000000000000000000000000004F
:10D1E0000000002D00600021CC01BCFFFD3200607A
:10D1F000001A7201BCFFFD2800360027D601BCFFD3
:10D20000FE2D003200256801BCFFFE3200290022FD
:10D21000DC00BCFFFE3700270021BE00BCFFFE3C47
:10D220000025001A8C00BCFFFE28003600296C0285
:10D23000BCFFFF2D00320027C201BCFFFF320029D6
:10D2400000252C01BCFFFF3700270022F000BCFFA7
:10D25000FF3C00250021A000BCFFFF280032003267
:10D260008403BCFF002D002900299001BCFF00327F
:10D27000002700272201BCFF003700250025DC0025
:10D28000BCFF003C002200228C00BCFF00410021BA
:10D2900000217800BCFF0028002900363403BCFFC1
:10D2A000012D002700326C02BCFF0132002500294D
:10D2B0002C01BCFF013700220027C800BCFF013C45
:10D2C000002100258C00BCFF0141001A00227800DB
:10D2D000BCFF012800270036F802BCFF022D002504
:10D2E00000323002BCFF023200220029F000BCFFF5
:10D2F000023700210027A000BCFF023C001A0025D5
:10D300007800BCFF022D002100608403BCFF0332C3
:10D31000001A0060F401BCFF0300000000000000E0
:10D3200000000000000000000000000000000000FD
:10D3300000000000000000000000000000000000ED
:10D3400000000000000000000000000000000000DD
:10D3500000000000000000000000000000000000CD
:10D3600000000000000000000000000000000000BD
:10D3700000000000000000000000000000000000AD
:10D38000000000000000000000000000000000009D
:10D39000000000000000000000000000000000008D
:10D3A000000000000000000000000000000000007D
:10D3B000000000000000000000000000000000006D
:10D3C000000000000000000000000000000000005D
:10D3D000000000000000002D00600021CC018A0048
:10D3E000FD320060001A72018A00FD280036002715
:10D3F000D6018A00FE2D0032002568018A00FE3227
:10D4000000290022DC008A00FE3700270021BE0030
:10D410008A00FE3C0025001A8C008A00FE28003697
:10D4200000296C028A00FF2D00320027C2018A0009
:10D43000FF32002900252C018A00FF370027002237
:10D44000F0008A00FF3C00250021A0008A00FF2890
:10D450000032003284038A00002D00290029900147
:10D460008A0000320027002722018A0000370025A9
:10D470000025DC008A00003C002200228C008A008B
:10D4800000410021002178008A0000280029003690
:10D4900034038A00012D002700326C028A00013219
:10D4A000002500292C018A00013700220027C8002E
:10D4B0008A00013C002100258C008A000141001AED
:10D4C000002278008A00012800270036F8028A002E
:10D4D000022D0025003230028A000232002200298B
:10D4E000F0008A00023700210027A0008A00023CD9
:10D4F000001A002578008A00022D002100608403B4
:10D500008A000332001A0060F4018A000300000060
:10D51000000000000000000000000000000000000B
:10D5200000000000000000000000000000000000FB
:10D5300000000000000000000000000000000000EB
:10D5400000000000000000000000000000000000DB
:10D5500000000000000000000000000000000000CB
:10D5600000000000000000000000000000000000BB
:10D5700000000000000000000000000000000000AB
:10D58000000000000000000000000000000000009B
:10D59000000000000000000000000000000000008B
:10D5A000000000000000000000000000000000007B
:10D5B000000000000000000000000000000000006B
:10D5C00000000000000000000000002D00600021AD
:10D5D000D6011601FD320060001A7C011601FD28FB
:10D5E00000360027E0011601FE2D003200257201F1
:10D5F0001601FE3200290022E6001601FE37002740
:10D600000021C8001601FE3C0025001A96001601F4
:10D61000FE280036002976021601FF2D0032002771
:10D62000CC011601FF320029002536011601FF3713
:10D6300000270022FA001601FF3C00250021AA0065
:10D640001601FF28003200328E031601002D00293A
:10D6500000299A0116010032002700272C0116012B
:10D66000003700250025E6001601003C00220022BC
:10D6700096001601004100210021820016010028B9
:10D68000002900363E031601012D002700327602E4
:10D69000160101320025002936011601013700224A
:10D6A0000027D2001601013C00210025960016013A
:10D6B0000141001A002282001601012800270036CD
:10D6C00002031601022D002500323A021601023231
:10D6D00000220029FA001601023700210027AA00C3
:10D6E0001601023C001A002582001601022D0021BD
:10D6F00000608E0316010332001A0060FE0116015D
:10D700000300000000000000000000000000000016
:10D710000000000000000000000000000000000009
:10D7200000000000000000000000000000000000F9
:10D7300000000000000000000000000000000000E9
:10D7400000000000000000000000000000000000D9
:10D7500000000000000000000000000000000000C9
:10D7600000000000000000000000000000000000B9
:10D7700000000000000000000000000000000000A9
:10D780000000000000000000000000000000000099
:10D790000000000000000000000000000000000089
:10D7A0000000000000000000000000000000000079
:10D7B0000000000000000000000000000000002841
:10D7C000006000259E02A201FD2D00600021E00105
:10D7D000A201FD320060001A8601A201FD28003678
:10D7E0000027EA01A201FE2D003200257C01A201E2
:10D7F000FE3200290022F000A201FE37002700219E
:10D80000D200A201FE3C0025001AA000A201FE28C1
:10D81000003600298002A201FF2D00320027D60128
:10D82000A201FF32002900254001A201FF37002795
:10D8300000220401A201FF3C00250021B400A20146
:10D84000FF410022001A8C00A201FF2800320032A2
:10D850009803A201002D00290029A401A201003291
:10D86000002700273601A201003700250025F0001F
:10D87000A201003C00220022A000A20100410021E0
:10D8800000218C00A2010028002900364803A201D3
:10D89000012D002700328002A2010132002500295B
:10D8A0004001A201013700220027DC00A201013C57
:10D8B00000210025A000A2010141001A00228C00D5
:10D8C000A2010128002700360C03A201022D002529
:10D8D00000324402A2010232002200290401A20106
:10D8E000023700210027B400A201023C001A0025E3
:10D8F0008C00A201022D002100609803A2010332D6
:10D90000001A00600802A2010300000000000000ED
:10D910000000000000000000000000000000000007
:10D9200000000000000000000000000000000000F7
:10D9300000000000000000000000000000000000E7
:10D9400000000000000000000000000000000000D7
:10D9500000000000000000000000000000000000C7
:10D9600000000000000000000000000000000000B7
:10D9700000000000000000000000000000000000A7
:10D980000000000000000000000000000000000097
:10D990000000000000000000000000000000000087
:10D9A0000000000000000000000000000000000077
:10D9B0000000002300600028200384FEFD28006092
:10D9C0000025E00184FEFD2D006000217C0184FE25
:10D9D000FD320060001A7C0184FEFD230040002916
:10D9E000080284FEFE2800360027900184FEFE2DEA
:10D9F000003200252C0184FEFE2300400032740416
:10DA000084FEFF2800360029CC0184FEFF2D003261
:10DA10000027680184FEFF3200290025180184FEDA
:10DA2000FF3700270022DC0084FEFF23003600368B
:10DA3000240484FE0028003200320C0384FE002DF2
:10DA400000290029680184FE003200270027040114
:10DA500084FE003700250025B40084FE0023003238
:10DA60000040740484FE012800290036BC0284FEB4
:10DA7000012D00270032300284FE013200250029EA
:10DA8000040184FE013700220027A00084FE012348
:10DA900000290040980384FE0228002700369402E3
:10DAA00084FE022D00250032F40184FE02320022A1
:10DAB0000029C80084FE022800250060380484FE86
:10DAC000032D00210060E40284FE0332001A00608E
:10DAD000900184FE03000000000000000000000030
:10DAE0000000000000000000000000000000000036
:10DAF0000000000000000000000000000000000026
:10DB00000000000000000000000000000000000015
:10DB10000000000000000000000000000000000005
:10DB200000000000000000000000000000000000F5
:10DB300000000000000000000000000000000000E5
:10DB400000000000000000000000000000000000D5
:10DB500000000000000000000000000000000000C5
:10DB600000000000000000000000000000000000B5
:10DB700000000000000000000000000000000000A5
:10DB80000000000000000000000000000000000095
:10DB90000000000000000000000000000000000085
:10DBA00000000000000000230060002816031CFF96
:10DBB000FD2800600025D6011CFFFD2D006000211E
:10DBC00072011CFFFD320060001A72011CFFFD2370
:10DBD00000400029FE011CFFFE28003600278601B8
:10DBE0001CFFFE2D0032002522011CFFFE32002901
:10DBF0000022D2001CFFFE23004000326A041CFFFA
:10DC0000FF2800360029C2011CFFFF2D003200272B
:10DC10005E011CFFFF32002900250E011CFFFF23BF
:10DC2000003600361A041CFF0028003200320203BE
:10DC30001CFF002D002900295E011CFF0032002777
:10DC40000027FA001CFF003700250025AA001CFF52
:10DC5000002800290036B2021CFF012D00270032E7
:10DC600026021CFF013200250029FA001CFF0123B7
:10DC7000002900408E031CFF0228002700368A027C
:10DC80001CFF022D00250032EA011CFF02230028A0
:10DC900000607E041CFF0328002500602E041CFF8A
:10DCA000032D00210060DA021CFF0332001A00601D
:10DCB00086011CFF030000000000000000000000BF
:10DCC0000000000000000000000000000000000054
:10DCD0000000000000000000000000000000000044
:10DCE0000000000000000000000000000000000034
:10DCF0000000000000000000000000000000000024
:10DD00000000000000000000000000000000000013
:10DD10000000000000000000000000000000000003
:10DD200000000000000000000000000000000000F3
:10DD300000000000000000000000000000000000E3
:10DD400000000000000000000000000000000000D3
:10DD500000000000000000000000000000000000C3
:10DD600000000000000000000000000000000000B3
:10DD700000000000000000000000000000000000A3
:10DD80000000000000000000000000000000000093
:10DD900000000000000000000000002800600025D6
:10DDA000CC01B8FFFD2D006000216801B8FFFD32F5
:10DDB0000060001A6801B8FFFD28004500297C01B9
:10DDC000B8FFFE2D004000271801B8FFFE320036D4
:10DDD0000025C800B8FFFE3700320022B400B8FFAB
:10DDE000FE23004500326004B8FFFF2800400029F0
:10DDF000B801B8FFFF2D003600275401B8FFFF32ED
:10DE0000003200250401B8FFFF3700290022C800B6
:10DE1000B8FFFF23003600361004B8FF0028003298
:10DE20000032F802B8FF002D002900295401B8FF84
:10DE3000003200270027F000B8FF0037002500253A
:10DE4000A000B8FF002800290040A802B8FF012D5B
:10DE5000002700361C02B8FF013200250032F00016
:10DE6000B8FF0137002200298C00B8FF01280027E5
:10DE700000368002B8FF022D00270040E001B8FF05
:10DE8000023200250036B400B8FF0237002200320B
:10DE90007800B8FF0232001A00607C01B8FF03006E
:10DEA0000000000000000000000000000000000072
:10DEB0000000000000000000000000000000000062
:10DEC0000000000000000000000000000000000052
:10DED0000000000000000000000000000000000042
:10DEE0000000000000000000000000000000000032
:10DEF0000000000000000000000000000000000022
:10DF00000000000000000000000000000000000011
:10DF10000000000000000000000000000000000001
:10DF200000000000000000000000000000000000F1
:10DF300000000000000000000000000000000000E1
:10DF400000000000000000000000000000000000D1
:10DF500000000000000000000000000000000000C1
:10DF600000000000000000000000000000000000B1
:10DF700000000000000000000000000000000000A1
:10DF8000000000000000000000000000000000236E
:10DF9000006000280C039600FD2800600025CC01DD
:10DFA0009600FD2D0060002168019600FD320060A2
:10DFB000001A68019600FD2300400029F401960034
:10DFC000FE28003600277C019600FE2D0032002539
:10DFD00018019600FE3200290022C8009600FE2398
:10DFE0000040003260049600FF2800360029B80186
:10DFF0009600FF2D0032002754019600FF320029C1
:10E00000002504019600FF23003600361004960018
:10E01000002800320032F8029600002D0029002965
:10E0200054019600003200270027F00096000037C8
:10E0300000250025A0009600002800290036A8022F
:10E040009600012D002700321C02960001320025A7
:10E050000029F00096000137002200278C0096006E
:10E0600001280027003680029600022D002500328C
:10E07000E0019600023200220029B4009600022D31
:10E0800000210060D00296000332001A00607C017B
:10E0900096000300000000000000000000000000E7
:10E0A0000000000000000000000000000000000070
:10E0B0000000000000000000000000000000000060
:10E0C0000000000000000000000000000000000050
:10E0D0000000000000000000000000000000000040
:10E0E0000000000000000000000000000000000030
:10E0F0000000000000000000000000000000000020
:10E10000000000000000000000000000000000000F
:10E1100000000000000000000000000000000000FF
:10E1200000000000000000000000000000000000EF
:10E1300000000000000000000000000000000000DF
:10E1400000000000000000000000000000000000CF
:10E1500000000000000000000000000000000000BF
:10E1600000000000000000000000000000000000AF
:10E17000000000000000000000000000000000009F
:10E18000000000230060002816033001FD28006015
:10E190000025D6013001FD2D006000217201300103
:10E1A000FD320060001A72013001FD230040002999
:10E1B000FE013001FE280036002786013001FE2DC9
:10E1C0000032002522013001FE3200290022D20057
:10E1D0003001FE23004000326A043001FF2800367F
:10E1E0000029C2013001FF2D003200275E013001FD
:10E1F000FF32002900250E013001FF2300360036D2
:10E200001A04300100280032003202033001002DD0
:10E21000002900295E013001003200270027FA00A2
:10E220003001003700250025AA0030010028002910
:10E230000036B2023001012D0027003226023001E3
:10E24000013200250029FA00300101230029004095
:10E250008E0330010228002700368A023001022D89
:10E2600000250032EA0130010223002800607E040C
:10E2700030010328002500602E043001032D002109
:10E280000060DA0230010332001A006086013001BA
:10E29000030000000000000000000000000000007B
:10E2A000000000000000000000000000000000006E
:10E2B000000000000000000000000000000000005E
:10E2C000000000000000000000000000000000004E
:10E2D000000000000000000000000000000000003E
:10E2E000000000000000000000000000000000002E
:10E2F000000000000000000000000000000000001E
:10E30000000000000000000000000000000000000D
:10E3100000000000000000000000000000000000FD
:10E3200000000000000000000000000000000000ED
:10E3300000000000000000000000000000000000DD
:10E3400000000000000000000000000000000000CD
:10E3500000000000000000000000000000000000BD
:10E3600000000000000000000000000000000000AD
:10E370000000000000000023006000282003C80106
:10E38000FD2800600025E001C801FD2D006000218E
:10E390007C01C801FD320060001A7C01C801FD2328
:10E3A000004000290802C801FE280036002790011D
:10E3B000C801FE2D003200252C01C801FE230040BB
:10E3C00000327404C801FF2800360029CC01C801BE
:10E3D000FF2D003200276801C801FF320029002507
:10E3E0001801C801FF3700270022DC00C801FF2305
:10E3F000003600362404C8010028003200320C0325
:10E40000C801002D002900296801C8010032002739
:10E4100000270401C801003700250025B400C80109
:10E420000023003200407404C8010128002900368E
:10E43000BC02C801012D002700323002C8010132A0
:10E44000002500290401C801013700220027A0008F
:10E45000C8010123002900409803C80102280027B1
:10E4600000369402C801022D00250032F401C801D3
:10E47000023200220029C800C801022800250060DD
:10E480003804C801032D00210060E402C8010332F2
:10E49000001A00609001C8010300000000000000A5
:10E4A000000000000000000000000000000000006C
:10E4B000000000000000000000000000000000005C
:10E4C000000000000000000000000000000000004C
:10E4D000000000000000000000000000000000003C
:10E4E000000000000000000000000000000000002C
:10E4F000000000000000000000000000000000001C
:10E50000000000000000000000000000000000000B
:10E5100000000000000000000000000000000000FB
:10E5200000000000000000000000000000000000EB
:10E5300000000000000000000000000000000000DB
:10E5400000000000000000000000000000000000CB
:10E5500000000000000000000000000000000000BB
:10E5600000000000000000000000000001020304A1
:10E570000501070001020304050607000306030660
:10E58000060606000105050506050700010203044D
:10E590000506070004060604060606000202060633
:10E5A0000606060001020304050607000102030433
:10E5B0000506070001020304050607000102030423
:10E5C0000506070001020304050607000102030413
:10E5D0000506070001020304050607000102030403
:10E5E00005060700010203040506070001020304F3
:10E5F00005060700010203040506070001020304E3
:10E6000005060700010203040506070001020304D2
:10E6100005060700010203040506070001020304C2
:10E6200005060700010203040506070001020304B2
:10E6300005060700010203040506070001020304A2
:10E640000506070001020304050607000102030492
:10E650000506070001020304050607000102030482
:10E660000506070001020304050607000102030472
:10E670000506070001020304050607000102030462
:10E680000506070001020304050607000102030452
:10E690000506070001020304050607000102030442
:10E6A0000506070001020304050607000102030432
:10E6B0000506070001020304050607000102030422
:10E6C0000506070001020304050607000102030412
:10E6D00005060700010203040506070007070707F0
:10E6E00005060700010203040506070001020304F2
:10E6F00005010700010203040506070003060306DF
:10E7000006060600010505050605070001020304CB
:10E7100005060700040606040606060002020606B1
:10E7200006060600030603060606060003060306A1
:10E730000606060003060306060606000102030499
:10E740000506070001020304050607000102030491
:10E750000506070001020304050607000102030481
:10E760000506070001020304050607000102030471
:10E770000506070001020304050607000102030461
:10E780000506070003060306060606000306030641
:10E790000606060003060306060606000102030439
:10E7A0000506070001020304050607000102030431
:10E7B0000506070001020304050607000102030421
:10E7C0000506070001020304050607000102030411
:10E7D0000506070001020304050607000102030401
:10E7E00005060700030603060606060003060306E1
:10E7F00006060600030603060606060001020304D9
:10E8000005060700010203040506070001020304D0
:10E8100005060700010203040506070001020304C0
:10E8200005060700010203040506070001020304B0
:10E8300005060700010203040506070001020304A0
:10E840000506070001020304050607000102030490
:10E85000050607000102030405060700070707076E
:10E860000506070001020304050607000102030470
:10E87000050107000102030405060700030603065D
:10E88000060606000105050506050700010203044A
:10E890000506070004060604060606000202060630
:10E8A0000606060001020304050607000102030430
:10E8B0000506070001020304050607000102030420
:10E8C0000506070001020304050607000306030608
:10E8D0000606060001020304050607000102030400
:10E8E00005060700010203040506070001020304F0
:10E8F00005060700010203040506070003060306D8
:10E9000006060600010203040506070001020304CF
:10E9100005060700010203040506070001020304BF
:10E9200005060700010203040506070003060306A7
:10E93000060606000102030405060700010203049F
:10E94000050607000102030405060700010203048F
:10E950000506070001020304050607000306030677
:10E96000060606000102030405060700010203046F
:10E97000050607000102030405060700010203045F
:10E980000506070001020304050607000306030647
:10E99000060606000102030405060700010203043F
:10E9A000050607000102030405060700010203042F
:10E9B000050607000102030405060700010203041F
:10E9C000050607000102030405060700010203040F
:10E9D00005060700010203040506070007070707ED
:10E9E0000506070001020304050607006000005049
:10E9F00067000050520000004500005052000050D7
:10EA000042000000400000504200000038000000BA
:10EA10003600000038000000340000003200000022
:10EA20003400000030000000300000003200000020
:10EA3000290000002900000030000000280000002C
:10EA40002800000029000000270000002700000027
:10EA500028000000260000002500000026000050CD
:10EA6000230000002200005023000050210000007D
:10EA70002100005021000000200000001A0000507A
:10EA80001D00005019000000000000000000000000
:10EA900000000000700070007000700070007000D6
:10EAA00070007000600060004500450040003000CC
:10EAB00036002800320025002900210027001A0016
:10EAC00025001A0022001A0021001A001A001A005C
:10EAD0001A001A2D00250032940280010237002707
:10EAE0000022E6001601FF37002700220401C4FFC0
:10EAF000FF3200250029220130FF013200290025C4
:10EB000022011601FF3200250029FA0084FE0128A7
:10EB100000290036A80296000128002900363E038D
:10EB20001601012800290036A802960001280029B4
:10EB30000036A802B8FF0128002900363403BCFFC4
:10EB400001280029003634038A00013200290022FE
:10EB50000E01C4FFFE3200290025F0001CFFFF3229
:10EB60000029002204017E00FE3200290025E60073
:10EB70003001FF3200290022DC0030FFFE32002984
:10EB80000022F0001601FE32002200290E01800151
:10EB900002370022002796001601013700270022C5
:10EBA000FE00C4FFFF3700270022DC0030FFFF3CDF
:10EBB0000021002578001601012D003200272201D6
:10EBC00084FEFF2D00210060C00330FF03280027D2
:10EBD0000036020316010228002900363E0330FFEA
:10EBE000012D002500326C027E000228002900362B
:10EBF000CA0380010128002900362A038A00013255
:10EC0000002900220E01C4FFFE3700270022DC008D
:10EC100030FFFF3C00250021D2007E00FF3C002594
:10EC20000021B4001601FF3200290025E6001CFF78
:10EC3000FF2D00320025FA00C801FE370027002210
:10EC400018017E00FF3200220029FA00160102326C
:10EC5000002900255401C4FFFF2D0025003290013A
:10EC600040FF0223004000290802C801FE230040A3
:10EC7000003260049600FF3700270021E600A4FE62
:10EC8000FE3C00250021C8001601FF3200270027A6
:10EC90005E0140FF00320025002904011CFF0137FE
:10ECA0000025002522010001002D00250032E00191
:10ECB0003001023C00220022C800C0FE003C0025BA
:10ECC0000021B40030FFFF3700270021D3001601D8
:10ECD000FE3C0025001AC80030FFFE370027002246
:10ECE000220140FFFF3200270027040130010028E5
:10ECF00000270036020330FF0228002700360203F7
:10ED00001601022800270036020330FF022D0025DD
:10ED1000003280027E00022D00270032D0028001E6
:10ED2000012300360036240484FE00370022002729
:10ED30001801C4FF013700220027D20030FF01373D
:10ED40000022002718017E0001320025002936012B
:10ED500016010132002700275E0140FF0023003624
:10ED60000036E402C801003C001A0025A000CEFED7
:10ED70000232002500294A0140FF01320027002706
:10ED800004011CFF003C002500210401C0FEFF37E8
:10ED900000270021DC00A201FE32002900223601FA
:10EDA0000001FE56312E302E333400680004091E57
:10EDB0005B32121406060630000000060606060640
:10EDC000060606061000800080008000000180001A
:10EDD00000030001000800080014001000180020C3
:10EDE000002000581000100080004000000180004A
:10EDF00000030001000800010014000100180008D1
:10EE0000002000581000100080004000A00080008A
:10EE10008001000100020002000300040004001051
:10EE20000010005810001000800040000001800019
:10EE30008001000100020002000300040004001031
:10EE400000100058100010008000400000018000F9
:10EE5000000300010008000400100010001400204E
:10EE600000180058100010008000400000018000D1
:10EE70000003000100080004001000040014000852
:10EE80000018005810001000800040000001000130
:10EE900020010004800100080003000C00040010A1
:10EEA000001000580A0D496E76616C696420436F4A
:10EEB0006D6D616E643E00280032003299020000E0
:10EEC000000A0D52454144593E000A0D0020000A37
:10EED0000D28466565644561726C794F6E20262663
:10EEE000205370656564496E52616E6765282920FC
:10EEF0002626202842616C6C456C617073656448FD
:10EF0000616C66536563203E3D20537461727446A4
:10EF100065656454696D652929000A0D2846656593
:10EF20006454696D656F75744F6E202626202842E3
:10EF3000616C6C456C617073656448616C665365A7
:10EF400063203E3D2028666565645F726174655F7D
:10EF50006873202D2031292929000A0D4E65617220
:10EF6000657374206C6F6320666F722043757273D3
:10EF7000686F742E7820616E642043757273686FB9
:10EF8000742E79203D2000557067726164652041C0
:10EF90007661696C61626C6520436F6E7461637445
:10EFA0000D4C6F62737465722053706F72747300CE
:10EFB0000A0D282021746F705F737461742E52756E
:10EFC0006E2026262021626F745F737461742E5246
:10EFD000756E2029000A0D4661727468657374208D
:10EFE0006C6F6320666F722043757253686F742E66
:10EFF000794C6F203D20000A0D4E65617265737477
:10F00000206C6F6320666F722043757253686F7453
:10F010002E784C6566743D20000A0D52616E646F57
:10F020006D20486F72697A6F6E74616C2028537717
:10F0300065657029204D6F6465000A0D6163745F1A
:10F0400070726F6772616D2E666565645B70707358
:10F05000686F745F69785D3A20000A0D4C617267D1
:10F060006553706444726F705F546F702028756EC2
:10F0700066696C746572656429000A0D4C6172677B
:10F080006553706444726F705F426F742028756EB0
:10F0900066696C746572656429000A0D55534152A6
:10F0A0005432204F76657272756E206572726F727F
:10F0B00020636C65617265642E000A0D52616E6496
:10F0C0006F6D20566572746963616C2028446570A9
:10F0D000746829204D6F6465000A0D4C6172676584
:10F0E00053706444726F705F5A2028756E66696C45
:10F0F000746572656429000A0D726E646D5F6261E9
:10F1000073655F66656564735F696E646578203DED
:10F1100020000A0D436F6D706172652045455052A5
:10F120004F4D20746F20464C415348000A0D506FDC
:10F1300077657220426173656C696E6572204472F6
:10F14000696C6C004F76657272756E206572726FB5
:10F150007220636C65617265642E0A000A0D576146
:10F160006B65557020656C65765F636F72722E7388
:10F17000203D20000A0D42616C6C456C6170736526
:10F180006448616C665365633A20004472696C6C34
:10F1900020536176656420746F204D616368696EE9
:10F1A00065000A0D43757253686F742E6665656459
:10F1B00072617465203D20000A0D52616E646F6DAE
:10F1C00020456C65766174696F6E203D20000A0DE4
:10F1D00041747461636B2F446566656E642044728C
:10F1E000696C6C000A0D466F726568616E64205030
:10F1F0006C7573204472696C6C000A0D42616C6C12
:10F20000456C617073656448616C665365633D006D
:10F210000A0D4F7363696C6C61746520456C65768B
:10F220006174696F6E000A0D436C656172696E6787
:10F230002070726F6772616D0A0D000A0D61637450
:10F240005F70726F6772616D2E73686F743A200021
:10F250000A0D496E7465726D656469617465204458
:10F2600072696C6C000A0D4C61726765537064447E
:10F27000726F70436E74203D20000A0D4C617267FE
:10F280006553706444726F705F41203D2030000A06
:10F290000D4C6172676553706444726F705F4220F9
:10F2A0003D2030000A0D4C617267655370644472F2
:10F2B0006F705F43203D2030000A0D416C6C2D4380
